{
  "_format": "hh-sol-artifact-1",
  "contractName": "BeerCoinV2",
  "sourceName": "contracts/BeerCoinV2.sol",
  "abi": [
    {
      "inputs": [
        {
          "internalType": "address",
          "name": "initialOwner",
          "type": "address"
        }
      ],
      "stateMutability": "nonpayable",
      "type": "constructor"
    },
    {
      "inputs": [
        {
          "internalType": "address",
          "name": "spender",
          "type": "address"
        },
        {
          "internalType": "uint256",
          "name": "allowance",
          "type": "uint256"
        },
        {
          "internalType": "uint256",
          "name": "needed",
          "type": "uint256"
        }
      ],
      "name": "ERC20InsufficientAllowance",
      "type": "error"
    },
    {
      "inputs": [
        {
          "internalType": "address",
          "name": "sender",
          "type": "address"
        },
        {
          "internalType": "uint256",
          "name": "balance",
          "type": "uint256"
        },
        {
          "internalType": "uint256",
          "name": "needed",
          "type": "uint256"
        }
      ],
      "name": "ERC20InsufficientBalance",
      "type": "error"
    },
    {
      "inputs": [
        {
          "internalType": "address",
          "name": "approver",
          "type": "address"
        }
      ],
      "name": "ERC20InvalidApprover",
      "type": "error"
    },
    {
      "inputs": [
        {
          "internalType": "address",
          "name": "receiver",
          "type": "address"
        }
      ],
      "name": "ERC20InvalidReceiver",
      "type": "error"
    },
    {
      "inputs": [
        {
          "internalType": "address",
          "name": "sender",
          "type": "address"
        }
      ],
      "name": "ERC20InvalidSender",
      "type": "error"
    },
    {
      "inputs": [
        {
          "internalType": "address",
          "name": "spender",
          "type": "address"
        }
      ],
      "name": "ERC20InvalidSpender",
      "type": "error"
    },
    {
      "inputs": [
        {
          "internalType": "address",
          "name": "owner",
          "type": "address"
        }
      ],
      "name": "OwnableInvalidOwner",
      "type": "error"
    },
    {
      "inputs": [
        {
          "internalType": "address",
          "name": "account",
          "type": "address"
        }
      ],
      "name": "OwnableUnauthorizedAccount",
      "type": "error"
    },
    {
      "anonymous": false,
      "inputs": [
        {
          "indexed": true,
          "internalType": "address",
          "name": "owner",
          "type": "address"
        },
        {
          "indexed": true,
          "internalType": "address",
          "name": "spender",
          "type": "address"
        },
        {
          "indexed": false,
          "internalType": "uint256",
          "name": "value",
          "type": "uint256"
        }
      ],
      "name": "Approval",
      "type": "event"
    },
    {
      "anonymous": false,
      "inputs": [
        {
          "indexed": true,
          "internalType": "address",
          "name": "previousOwner",
          "type": "address"
        },
        {
          "indexed": true,
          "internalType": "address",
          "name": "newOwner",
          "type": "address"
        }
      ],
      "name": "OwnershipTransferred",
      "type": "event"
    },
    {
      "anonymous": false,
      "inputs": [
        {
          "indexed": true,
          "internalType": "address",
          "name": "from",
          "type": "address"
        },
        {
          "indexed": false,
          "internalType": "uint256",
          "name": "amount",
          "type": "uint256"
        }
      ],
      "name": "TokensBurned",
      "type": "event"
    },
    {
      "anonymous": false,
      "inputs": [
        {
          "indexed": true,
          "internalType": "address",
          "name": "to",
          "type": "address"
        },
        {
          "indexed": false,
          "internalType": "uint256",
          "name": "amount",
          "type": "uint256"
        }
      ],
      "name": "TokensMinted",
      "type": "event"
    },
    {
      "anonymous": false,
      "inputs": [
        {
          "indexed": true,
          "internalType": "address",
          "name": "from",
          "type": "address"
        },
        {
          "indexed": true,
          "internalType": "address",
          "name": "to",
          "type": "address"
        },
        {
          "indexed": false,
          "internalType": "uint256",
          "name": "value",
          "type": "uint256"
        }
      ],
      "name": "Transfer",
      "type": "event"
    },
    {
      "inputs": [],
      "name": "MAX_SUPPLY",
      "outputs": [
        {
          "internalType": "uint256",
          "name": "",
          "type": "uint256"
        }
      ],
      "stateMutability": "view",
      "type": "function"
    },
    {
      "inputs": [
        {
          "internalType": "address",
          "name": "owner",
          "type": "address"
        },
        {
          "internalType": "address",
          "name": "spender",
          "type": "address"
        }
      ],
      "name": "allowance",
      "outputs": [
        {
          "internalType": "uint256",
          "name": "",
          "type": "uint256"
        }
      ],
      "stateMutability": "view",
      "type": "function"
    },
    {
      "inputs": [
        {
          "internalType": "address",
          "name": "spender",
          "type": "address"
        },
        {
          "internalType": "uint256",
          "name": "value",
          "type": "uint256"
        }
      ],
      "name": "approve",
      "outputs": [
        {
          "internalType": "bool",
          "name": "",
          "type": "bool"
        }
      ],
      "stateMutability": "nonpayable",
      "type": "function"
    },
    {
      "inputs": [
        {
          "internalType": "address",
          "name": "account",
          "type": "address"
        }
      ],
      "name": "balanceOf",
      "outputs": [
        {
          "internalType": "uint256",
          "name": "",
          "type": "uint256"
        }
      ],
      "stateMutability": "view",
      "type": "function"
    },
    {
      "inputs": [
        {
          "internalType": "uint256",
          "name": "amount",
          "type": "uint256"
        }
      ],
      "name": "burn",
      "outputs": [],
      "stateMutability": "nonpayable",
      "type": "function"
    },
    {
      "inputs": [
        {
          "internalType": "address",
          "name": "from",
          "type": "address"
        },
        {
          "internalType": "uint256",
          "name": "amount",
          "type": "uint256"
        }
      ],
      "name": "burnFrom",
      "outputs": [],
      "stateMutability": "nonpayable",
      "type": "function"
    },
    {
      "inputs": [],
      "name": "decimals",
      "outputs": [
        {
          "internalType": "uint8",
          "name": "",
          "type": "uint8"
        }
      ],
      "stateMutability": "view",
      "type": "function"
    },
    {
      "inputs": [],
      "name": "maxSupply",
      "outputs": [
        {
          "internalType": "uint256",
          "name": "",
          "type": "uint256"
        }
      ],
      "stateMutability": "pure",
      "type": "function"
    },
    {
      "inputs": [
        {
          "internalType": "address",
          "name": "to",
          "type": "address"
        },
        {
          "internalType": "uint256",
          "name": "amount",
          "type": "uint256"
        }
      ],
      "name": "mint",
      "outputs": [],
      "stateMutability": "nonpayable",
      "type": "function"
    },
    {
      "inputs": [],
      "name": "name",
      "outputs": [
        {
          "internalType": "string",
          "name": "",
          "type": "string"
        }
      ],
      "stateMutability": "view",
      "type": "function"
    },
    {
      "inputs": [],
      "name": "owner",
      "outputs": [
        {
          "internalType": "address",
          "name": "",
          "type": "address"
        }
      ],
      "stateMutability": "view",
      "type": "function"
    },
    {
      "inputs": [],
      "name": "renounceOwnership",
      "outputs": [],
      "stateMutability": "nonpayable",
      "type": "function"
    },
    {
      "inputs": [],
      "name": "symbol",
      "outputs": [
        {
          "internalType": "string",
          "name": "",
          "type": "string"
        }
      ],
      "stateMutability": "view",
      "type": "function"
    },
    {
      "inputs": [],
      "name": "totalSupply",
      "outputs": [
        {
          "internalType": "uint256",
          "name": "",
          "type": "uint256"
        }
      ],
      "stateMutability": "view",
      "type": "function"
    },
    {
      "inputs": [
        {
          "internalType": "address",
          "name": "to",
          "type": "address"
        },
        {
          "internalType": "uint256",
          "name": "value",
          "type": "uint256"
        }
      ],
      "name": "transfer",
      "outputs": [
        {
          "internalType": "bool",
          "name": "",
          "type": "bool"
        }
      ],
      "stateMutability": "nonpayable",
      "type": "function"
    },
    {
      "inputs": [
        {
          "internalType": "address",
          "name": "from",
          "type": "address"
        },
        {
          "internalType": "address",
          "name": "to",
          "type": "address"
        },
        {
          "internalType": "uint256",
          "name": "value",
          "type": "uint256"
        }
      ],
      "name": "transferFrom",
      "outputs": [
        {
          "internalType": "bool",
          "name": "",
          "type": "bool"
        }
      ],
      "stateMutability": "nonpayable",
      "type": "function"
    },
    {
      "inputs": [
        {
          "internalType": "address",
          "name": "newOwner",
          "type": "address"
        }
      ],
      "name": "transferOwnership",
      "outputs": [],
      "stateMutability": "nonpayable",
      "type": "function"
    }
  ],
  "bytecode": "0x6080604052346103ca5761104e6020813803918261001c816103cf565b9384928339810103126103ca57516001600160a01b038116908190036103ca5761004660406103cf565b9060088252672132b2b921b7b4b760c11b602083015261006660406103cf565b60048152632122a2a960e11b602082015282519091906001600160401b0381116102d357600354600181811c911680156103c0575b60208210146102b357601f811161035b575b506020601f82116001146102f457819293946000926102e9575b50508160011b916000199060031b1c1916176003555b81516001600160401b0381116102d357600454600181811c911680156102c9575b60208210146102b357601f811161024e575b50602092601f82116001146101e957928192936000926101de575b50508160011b916000199060031b1c1916176004555b80156101c857600580546001600160a01b0319811683179091556040517f3f2c9d57c068687834f0de942a9babb9e5acab57d516d3480a3c16ee165a4273916020919084906001600160a01b03167f8be0079c531659141344cd1fd0a4f28419497f9722a3daafe3b4186f6b6457e0600080a360008152a2604051610c5990816103f58239f35b631e4fbdf760e01b600052600060045260246000fd5b01519050388061012b565b601f198216936004600052806000209160005b868110610236575083600195961061021d575b505050811b01600455610141565b015160001960f88460031b161c1916905538808061020f565b919260206001819286850151815501940192016101fc565b60046000527f8a35acfbc15ff81a39ae7d344fd709f28e8600b4aa8c65c6b64bfe7fe36bd19b601f830160051c810191602084106102a9575b601f0160051c01905b81811061029d5750610110565b60008155600101610290565b9091508190610287565b634e487b7160e01b600052602260045260246000fd5b90607f16906100fe565b634e487b7160e01b600052604160045260246000fd5b0151905038806100c7565b601f198216906003600052806000209160005b8181106103435750958360019596971061032a575b505050811b016003556100dd565b015160001960f88460031b161c1916905538808061031c565b9192602060018192868b015181550194019201610307565b60036000527fc2575a0e9e593c00f959f8c92f12db2869c3395a3b0502d05e2516446f71f85b601f830160051c810191602084106103b6575b601f0160051c01905b8181106103aa57506100ad565b6000815560010161039d565b9091508190610394565b90607f169061009b565b600080fd5b6040519190601f01601f191682016001600160401b038111838210176102d35760405256fe608080604052600436101561001357600080fd5b60003560e01c90816306fdde031461083c57508063095ea7b31461081657806318160ddd146107f857806323b872dd1461070b578063313ce567146106ef57806332cb6b0c146101ba57806340c10f191461058757806342966c681461051657806370a08231146104dc578063715018a61461047f57806379cc67901461035b5780638da5cb5b1461033257806395d89b4114610211578063a9059cbb146101e0578063d5abeb01146101ba578063dd62ed3e146101695763f2fde38b146100da57600080fd5b34610164576020366003190112610164576100f3610958565b6100fb610b12565b6001600160a01b0316801561014e57600580546001600160a01b0319811683179091556001600160a01b03167f8be0079c531659141344cd1fd0a4f28419497f9722a3daafe3b4186f6b6457e0600080a3005b631e4fbdf760e01b600052600060045260246000fd5b600080fd5b3461016457604036600319011261016457610182610958565b61018a61096e565b6001600160a01b039182166000908152600160209081526040808320949093168252928352819020549051908152f35b346101645760003660031901126101645760206040516a52b7d2dcc80cd2e40000008152f35b34610164576040366003190112610164576102066101fc610958565b6024359033610a4d565b602060405160018152f35b346101645760003660031901126101645760405160006004548060011c90600181168015610328575b602083108114610314578285529081156102f857506001146102a1575b50819003601f01601f191681019067ffffffffffffffff82118183101761028b576102878291826040528261090f565b0390f35b634e487b7160e01b600052604160045260246000fd5b905060046000527f8a35acfbc15ff81a39ae7d344fd709f28e8600b4aa8c65c6b64bfe7fe36bd19b6000905b8282106102e257506020915082010182610257565b60018160209254838588010152019101906102cd565b90506020925060ff191682840152151560051b82010182610257565b634e487b7160e01b84526022600452602484fd5b91607f169161023a565b34610164576000366003190112610164576005546040516001600160a01b039091168152602090f35b3461016457604036600319011261016457610374610958565b60243590610383821515610991565b60018060a01b038116918260005260006020526103a78160406000205410156109f2565b60008381526001602090815260408083203384529091529020549080821061042a578082039182116104145761040b817ffd38818f5291bf0bb3a2a48aadc06ba8757865d1dabd804585338aab3009dcb6946104066020953383610bbc565b610b3b565b604051908152a2005b634e487b7160e01b600052601160045260246000fd5b60405162461bcd60e51b815260206004820152602760248201527f42656572436f696e3a206275726e20616d6f756e74206578636565647320616c6044820152666c6f77616e636560c81b6064820152608490fd5b3461016457600036600319011261016457610498610b12565b600580546001600160a01b031981169091556000906001600160a01b03167f8be0079c531659141344cd1fd0a4f28419497f9722a3daafe3b4186f6b6457e08280a3005b34610164576020366003190112610164576001600160a01b036104fd610958565b1660005260006020526020604060002054604051908152f35b3461016457602036600319011261016457600435610535811515610991565b33600052600060205261054f8160406000205410156109f2565b6105598133610b3b565b6040519081527ffd38818f5291bf0bb3a2a48aadc06ba8757865d1dabd804585338aab3009dcb660203392a2005b34610164576040366003190112610164576105a0610958565b602435906105ac610b12565b6001600160a01b031680156106aa576a52b7d2dcc80cd2e40000006105d383600254610984565b11610665577f3f2c9d57c068687834f0de942a9babb9e5acab57d516d3480a3c16ee165a4273602060009361060a81600254610984565b600255836106505780600254036002555b83857fddf252ad1be2c89b69c2b068fc378daa952ba7f163c4a11628f55a4df523b3ef84604051858152a3604051908152a280f35b8385528482526040852081815401905561061b565b60405162461bcd60e51b815260206004820152601c60248201527f42656572436f696e3a2065786365656473206d617820737570706c79000000006044820152606490fd5b60405162461bcd60e51b815260206004820152601e60248201527f42656572436f696e3a206d696e7420746f207a65726f206164647265737300006044820152606490fd5b3461016457600036600319011261016457602060405160128152f35b3461016457606036600319011261016457610724610958565b61072c61096e565b6001600160a01b038216600081815260016020908152604080832033845290915290205490926044359291600019811061076c575b506102069350610a4d565b8381106107db5784156107c55733156107af57610206946000526001602052604060002060018060a01b0333166000526020528360406000209103905584610761565b634a1406b160e11b600052600060045260246000fd5b63e602df0560e01b600052600060045260246000fd5b8390637dc7a0d960e11b6000523360045260245260445260646000fd5b34610164576000366003190112610164576020600254604051908152f35b3461016457604036600319011261016457610206610832610958565b6024359033610bbc565b346101645760003660031901126101645760006003548060011c90600181168015610905575b602083108114610314578285529081156102f857506001146108ae5750819003601f01601f191681019067ffffffffffffffff82118183101761028b576102878291826040528261090f565b905060036000527fc2575a0e9e593c00f959f8c92f12db2869c3395a3b0502d05e2516446f71f85b6000905b8282106108ef57506020915082010182610257565b60018160209254838588010152019101906108da565b91607f1691610862565b91909160208152825180602083015260005b818110610942575060409293506000838284010152601f8019910116010190565b8060208092870101516040828601015201610921565b600435906001600160a01b038216820361016457565b602435906001600160a01b038216820361016457565b9190820180921161041457565b1561099857565b60405162461bcd60e51b815260206004820152602c60248201527f42656572436f696e3a206275726e20616d6f756e74206d75737420626520677260448201526b06561746572207468616e20360a41b6064820152608490fd5b156109f957565b60405162461bcd60e51b815260206004820152602660248201527f42656572436f696e3a20696e73756666696369656e742062616c616e636520746044820152653790313ab93760d11b6064820152608490fd5b6001600160a01b0316908115610afc576001600160a01b0316918215610ae6576000828152806020526040812054828110610acc5791604082827fddf252ad1be2c89b69c2b068fc378daa952ba7f163c4a11628f55a4df523b3ef958760209652828652038282205586815280845220818154019055604051908152a3565b916064928463391434e360e21b8452600452602452604452fd5b63ec442f0560e01b600052600060045260246000fd5b634b637e8f60e11b600052600060045260246000fd5b6005546001600160a01b03163303610b2657565b63118cdaa760e01b6000523360045260246000fd5b6001600160a01b03168015610afc57600091818352826020526040832054818110610ba357817fddf252ad1be2c89b69c2b068fc378daa952ba7f163c4a11628f55a4df523b3ef926020928587528684520360408620558060025403600255604051908152a3565b6064939263391434e360e21b8452600452602452604452fd5b6001600160a01b03169081156107c5576001600160a01b03169182156107af5760207f8c5be1e5ebec7d5bd14f71427d1e84f3dd0314c0f7b2291e5b200ac8c7c3b925918360005260018252604060002085600052825280604060002055604051908152a356fea2646970667358221220b0bfcdf7f0ec3befea83863796e0ee893d02b889c242c4b50ec4c459d867a2e364736f6c634300081c0033",
  "linkReferences": {},
  "deployedLinkReferences": {}
}