{
  "_format": "hh-sol-artifact-1",
  "contractName": "BeerCoinDistributorV2",
  "sourceName": "contracts/BeerCoinDistributorV2.sol",
  "abi": [
    {
      "inputs": [
        {
          "internalType": "address",
          "name": "_beerCoin",
          "type": "address"
        },
        {
          "internalType": "address",
          "name": "initialOwner",
          "type": "address"
        }
      ],
      "stateMutability": "nonpayable",
      "type": "constructor"
    },
    {
      "inputs": [
        {
          "internalType": "address",
          "name": "owner",
          "type": "address"
        }
      ],
      "name": "OwnableInvalidOwner",
      "type": "error"
    },
    {
      "inputs": [
        {
          "internalType": "address",
          "name": "account",
          "type": "address"
        }
      ],
      "name": "OwnableUnauthorizedAccount",
      "type": "error"
    },
    {
      "inputs": [],
      "name": "ReentrancyGuardReentrantCall",
      "type": "error"
    },
    {
      "anonymous": false,
      "inputs": [
        {
          "indexed": false,
          "internalType": "bool",
          "name": "active",
          "type": "bool"
        }
      ],
      "name": "DistributionToggled",
      "type": "event"
    },
    {
      "anonymous": false,
      "inputs": [
        {
          "indexed": true,
          "internalType": "address",
          "name": "previousOwner",
          "type": "address"
        },
        {
          "indexed": true,
          "internalType": "address",
          "name": "newOwner",
          "type": "address"
        }
      ],
      "name": "OwnershipTransferred",
      "type": "event"
    },
    {
      "anonymous": false,
      "inputs": [
        {
          "indexed": false,
          "internalType": "uint256",
          "name": "newMultiplier",
          "type": "uint256"
        }
      ],
      "name": "ReferrerMultiplierUpdated",
      "type": "event"
    },
    {
      "anonymous": false,
      "inputs": [
        {
          "indexed": false,
          "internalType": "uint256",
          "name": "newRate",
          "type": "uint256"
        }
      ],
      "name": "RewardRateUpdated",
      "type": "event"
    },
    {
      "anonymous": false,
      "inputs": [
        {
          "indexed": true,
          "internalType": "address",
          "name": "user",
          "type": "address"
        },
        {
          "indexed": false,
          "internalType": "uint256",
          "name": "amount",
          "type": "uint256"
        }
      ],
      "name": "TokensClaimed",
      "type": "event"
    },
    {
      "anonymous": false,
      "inputs": [
        {
          "indexed": true,
          "internalType": "address",
          "name": "user",
          "type": "address"
        },
        {
          "indexed": false,
          "internalType": "string",
          "name": "username",
          "type": "string"
        }
      ],
      "name": "UserKicked",
      "type": "event"
    },
    {
      "anonymous": false,
      "inputs": [
        {
          "indexed": true,
          "internalType": "address",
          "name": "user",
          "type": "address"
        },
        {
          "indexed": false,
          "internalType": "string",
          "name": "username",
          "type": "string"
        },
        {
          "indexed": true,
          "internalType": "address",
          "name": "referrer",
          "type": "address"
        }
      ],
      "name": "UserRegistered",
      "type": "event"
    },
    {
      "anonymous": false,
      "inputs": [
        {
          "indexed": true,
          "internalType": "address",
          "name": "user",
          "type": "address"
        },
        {
          "indexed": false,
          "internalType": "string",
          "name": "username",
          "type": "string"
        },
        {
          "indexed": true,
          "internalType": "address",
          "name": "trustedUser",
          "type": "address"
        }
      ],
      "name": "UserRegisteredByTrusted",
      "type": "event"
    },
    {
      "anonymous": false,
      "inputs": [
        {
          "indexed": true,
          "internalType": "address",
          "name": "user",
          "type": "address"
        },
        {
          "indexed": false,
          "internalType": "string",
          "name": "username",
          "type": "string"
        }
      ],
      "name": "UserTrusted",
      "type": "event"
    },
    {
      "anonymous": false,
      "inputs": [
        {
          "indexed": true,
          "internalType": "address",
          "name": "user",
          "type": "address"
        },
        {
          "indexed": false,
          "internalType": "string",
          "name": "username",
          "type": "string"
        }
      ],
      "name": "UserUntrusted",
      "type": "event"
    },
    {
      "inputs": [],
      "name": "MULTIPLIER_BASE",
      "outputs": [
        {
          "internalType": "uint256",
          "name": "",
          "type": "uint256"
        }
      ],
      "stateMutability": "view",
      "type": "function"
    },
    {
      "inputs": [
        {
          "internalType": "address",
          "name": "user",
          "type": "address"
        },
        {
          "internalType": "string",
          "name": "username",
          "type": "string"
        }
      ],
      "name": "addTrustedUser",
      "outputs": [],
      "stateMutability": "nonpayable",
      "type": "function"
    },
    {
      "inputs": [
        {
          "internalType": "uint256",
          "name": "",
          "type": "uint256"
        }
      ],
      "name": "allUsers",
      "outputs": [
        {
          "internalType": "address",
          "name": "",
          "type": "address"
        }
      ],
      "stateMutability": "view",
      "type": "function"
    },
    {
      "inputs": [],
      "name": "baseRewardRate",
      "outputs": [
        {
          "internalType": "uint256",
          "name": "",
          "type": "uint256"
        }
      ],
      "stateMutability": "view",
      "type": "function"
    },
    {
      "inputs": [],
      "name": "beerCoin",
      "outputs": [
        {
          "internalType": "contract BeerCoinV2",
          "name": "",
          "type": "address"
        }
      ],
      "stateMutability": "view",
      "type": "function"
    },
    {
      "inputs": [
        {
          "internalType": "address",
          "name": "user",
          "type": "address"
        }
      ],
      "name": "calculatePendingRewards",
      "outputs": [
        {
          "internalType": "uint256",
          "name": "pendingRewards",
          "type": "uint256"
        }
      ],
      "stateMutability": "view",
      "type": "function"
    },
    {
      "inputs": [],
      "name": "claimRewards",
      "outputs": [],
      "stateMutability": "nonpayable",
      "type": "function"
    },
    {
      "inputs": [],
      "name": "distributionActive",
      "outputs": [
        {
          "internalType": "bool",
          "name": "",
          "type": "bool"
        }
      ],
      "stateMutability": "view",
      "type": "function"
    },
    {
      "inputs": [],
      "name": "getAllTrustedUsers",
      "outputs": [
        {
          "internalType": "address[]",
          "name": "",
          "type": "address[]"
        }
      ],
      "stateMutability": "view",
      "type": "function"
    },
    {
      "inputs": [],
      "name": "getTotalTrustedUsers",
      "outputs": [
        {
          "internalType": "uint256",
          "name": "",
          "type": "uint256"
        }
      ],
      "stateMutability": "view",
      "type": "function"
    },
    {
      "inputs": [],
      "name": "getTotalUsers",
      "outputs": [
        {
          "internalType": "uint256",
          "name": "",
          "type": "uint256"
        }
      ],
      "stateMutability": "view",
      "type": "function"
    },
    {
      "inputs": [
        {
          "internalType": "address",
          "name": "user",
          "type": "address"
        }
      ],
      "name": "getUserInfo",
      "outputs": [
        {
          "internalType": "string",
          "name": "username",
          "type": "string"
        },
        {
          "internalType": "bool",
          "name": "isTrusted",
          "type": "bool"
        },
        {
          "internalType": "bool",
          "name": "isActive",
          "type": "bool"
        },
        {
          "internalType": "address",
          "name": "referrer",
          "type": "address"
        },
        {
          "internalType": "uint256",
          "name": "referralCount",
          "type": "uint256"
        },
        {
          "internalType": "uint256",
          "name": "totalEarned",
          "type": "uint256"
        },
        {
          "internalType": "uint256",
          "name": "pendingRewards",
          "type": "uint256"
        },
        {
          "internalType": "uint256",
          "name": "joinTime",
          "type": "uint256"
        }
      ],
      "stateMutability": "view",
      "type": "function"
    },
    {
      "inputs": [
        {
          "internalType": "address",
          "name": "",
          "type": "address"
        }
      ],
      "name": "isRegistered",
      "outputs": [
        {
          "internalType": "bool",
          "name": "",
          "type": "bool"
        }
      ],
      "stateMutability": "view",
      "type": "function"
    },
    {
      "inputs": [
        {
          "internalType": "string",
          "name": "username",
          "type": "string"
        }
      ],
      "name": "isUsernameAvailable",
      "outputs": [
        {
          "internalType": "bool",
          "name": "",
          "type": "bool"
        }
      ],
      "stateMutability": "view",
      "type": "function"
    },
    {
      "inputs": [
        {
          "internalType": "address",
          "name": "user",
          "type": "address"
        }
      ],
      "name": "kickUser",
      "outputs": [],
      "stateMutability": "nonpayable",
      "type": "function"
    },
    {
      "inputs": [],
      "name": "owner",
      "outputs": [
        {
          "internalType": "address",
          "name": "",
          "type": "address"
        }
      ],
      "stateMutability": "view",
      "type": "function"
    },
    {
      "inputs": [],
      "name": "referrerMultiplier",
      "outputs": [
        {
          "internalType": "uint256",
          "name": "",
          "type": "uint256"
        }
      ],
      "stateMutability": "view",
      "type": "function"
    },
    {
      "inputs": [
        {
          "internalType": "string",
          "name": "username",
          "type": "string"
        },
        {
          "internalType": "address",
          "name": "referrer",
          "type": "address"
        }
      ],
      "name": "registerUser",
      "outputs": [],
      "stateMutability": "nonpayable",
      "type": "function"
    },
    {
      "inputs": [
        {
          "internalType": "address",
          "name": "userAddress",
          "type": "address"
        },
        {
          "internalType": "string",
          "name": "username",
          "type": "string"
        }
      ],
      "name": "registerUserByTrusted",
      "outputs": [],
      "stateMutability": "nonpayable",
      "type": "function"
    },
    {
      "inputs": [
        {
          "internalType": "address",
          "name": "user",
          "type": "address"
        }
      ],
      "name": "removeTrustedUser",
      "outputs": [],
      "stateMutability": "nonpayable",
      "type": "function"
    },
    {
      "inputs": [],
      "name": "renounceOwnership",
      "outputs": [],
      "stateMutability": "nonpayable",
      "type": "function"
    },
    {
      "inputs": [],
      "name": "toggleDistribution",
      "outputs": [],
      "stateMutability": "nonpayable",
      "type": "function"
    },
    {
      "inputs": [
        {
          "internalType": "address",
          "name": "newOwner",
          "type": "address"
        }
      ],
      "name": "transferOwnership",
      "outputs": [],
      "stateMutability": "nonpayable",
      "type": "function"
    },
    {
      "inputs": [
        {
          "internalType": "uint256",
          "name": "",
          "type": "uint256"
        }
      ],
      "name": "trustedUsers",
      "outputs": [
        {
          "internalType": "address",
          "name": "",
          "type": "address"
        }
      ],
      "stateMutability": "view",
      "type": "function"
    },
    {
      "inputs": [
        {
          "internalType": "uint256",
          "name": "newMultiplier",
          "type": "uint256"
        }
      ],
      "name": "updateReferrerMultiplier",
      "outputs": [],
      "stateMutability": "nonpayable",
      "type": "function"
    },
    {
      "inputs": [
        {
          "internalType": "uint256",
          "name": "newRate",
          "type": "uint256"
        }
      ],
      "name": "updateRewardRate",
      "outputs": [],
      "stateMutability": "nonpayable",
      "type": "function"
    },
    {
      "inputs": [
        {
          "internalType": "string",
          "name": "",
          "type": "string"
        }
      ],
      "name": "usernameToAddress",
      "outputs": [
        {
          "internalType": "address",
          "name": "",
          "type": "address"
        }
      ],
      "stateMutability": "view",
      "type": "function"
    },
    {
      "inputs": [
        {
          "internalType": "address",
          "name": "",
          "type": "address"
        }
      ],
      "name": "users",
      "outputs": [
        {
          "internalType": "string",
          "name": "username",
          "type": "string"
        },
        {
          "internalType": "bool",
          "name": "isTrusted",
          "type": "bool"
        },
        {
          "internalType": "bool",
          "name": "isActive",
          "type": "bool"
        },
        {
          "internalType": "address",
          "name": "referrer",
          "type": "address"
        },
        {
          "internalType": "uint256",
          "name": "referralCount",
          "type": "uint256"
        },
        {
          "internalType": "uint256",
          "name": "lastClaimTime",
          "type": "uint256"
        },
        {
          "internalType": "uint256",
          "name": "totalEarned",
          "type": "uint256"
        },
        {
          "internalType": "uint256",
          "name": "joinTime",
          "type": "uint256"
        }
      ],
      "stateMutability": "view",
      "type": "function"
    }
  ],
  "bytecode": "0x60a03461015957601f61228b38819003918201601f19168301916001600160401b0383118484101761015e5780849260409485528339810103126101595761004681610174565b906001600160a01b039061005c90602001610174565b1690811561014357600080546001600160a01b031981168417825560405193916001600160a01b03909116907f8be0079c531659141344cd1fd0a4f28419497f9722a3daafe3b4186f6b6457e09080a3600180805566038d7ea4c6800060025560326003556004805460ff191690911790556001600160a01b031690811561010157506080526040516121029081610189823960805181818161087801526114540152f35b62461bcd60e51b815260206004820152601f60248201527f42656572436f696e20616464726573732063616e6e6f74206265207a65726f006044820152606490fd5b631e4fbdf760e01b600052600060045260246000fd5b600080fd5b634e487b7160e01b600052604160045260246000fd5b51906001600160a01b03821682036101595756fe6080604052600436101561001257600080fd5b6000803560e01c8063097aad1014611a515780630e54b872146115e65780631dd5a9481461158a578063372500ab146113b457806337e03f64146113705780636386c1c7146112c2578063715018a6146112685780637863e3c0146111755780637ed8c35e14610d925780637f891c8014610cea5780638bfee820146108a75780638cd93eef146108625780638da5cb5b1461083b57806399fb15d2146108185780639be572f6146107fa5780639ef3a26114610755578063a2bdedf4146106d4578063a87430ba14610646578063af866d8714610469578063afbf34401461044b578063c3c5a5471461040c578063efae2ee6146103ee578063f1de3194146102e8578063f2fde38b14610262578063f69c6dec146101f7578063f825f1431461018d578063f97136af146101715763fdf8d2421461015157600080fd5b3461016e578060031936011261016e576020600354604051908152f35b80fd5b503461016e578060031936011261016e57602060405160648152f35b503461016e57602036600319011261016e576004359067ffffffffffffffff821161016e5760206101c13660048501611aed565b816101d56040519283815193849201611b8d565b600690820190815281900382019020546040516001600160a01b039091168152f35b503461016e57602036600319011261016e576004359067ffffffffffffffff821161016e57602061022b3660048501611aed565b8161023f6040519283815193849201611b8d565b600690820190815281900382019020546040516001600160a01b03909116158152f35b503461016e57602036600319011261016e5761027c611a7d565b6102846120a3565b6001600160a01b031680156102d45781546001600160a01b03198116821783556001600160a01b03167f8be0079c531659141344cd1fd0a4f28419497f9722a3daafe3b4186f6b6457e08380a380f35b631e4fbdf760e01b82526004829052602482fd5b503461016e57602036600319011261016e57610302611a7d565b61030a6120a3565b6001600160a01b03168082526007602052604082205461032c9060ff16612015565b808252600560205260ff600160408420015460081c16156103a95780825260056020526001604083200161ff0019815416905580825260056020527f027b6bf28c3ea625d8e992716aa9d93969a8dcb0eec48431ed006234b270d4036103a360408420604051918291602083526020830190611ca1565b0390a280f35b60405162461bcd60e51b815260206004820152601860248201527f5573657220697320616c726561647920696e61637469766500000000000000006044820152606490fd5b503461016e578060031936011261016e576020600954604051908152f35b503461016e57602036600319011261016e5760209060ff906040906001600160a01b03610437611a7d565b168152600784522054166040519015158152f35b503461016e578060031936011261016e576020600254604051908152f35b503461016e57602036600319011261016e57610483611a7d565b61048b6120a3565b6001600160a01b0316808252600760205260408220546104ad9060ff16612015565b808252600560205260ff6001604084200154161561060b57808252600560205260408220600101805460ff19169055815b6009548082101561060457826104f383611b44565b905460039190911b1c6001600160a01b03161461051357506001016104de565b60001981019081116105f0579061054761052f61056b93611b44565b905460039190911b1c6001600160a01b031691611b44565b81546001600160a01b0393841660039290921b91821b9390911b1916919091179055565b60095480156105dc576000190161058181611b44565b81549060018060a01b039060031b1b191690556009555b80825260056020527fddece651176b4d76629e735760a05157f20556fb0ae07ad54bce944723b5759f6103a360408420604051918291602083526020830190611ca1565b634e487b7160e01b83526031600452602483fd5b634e487b7160e01b84526011600452602484fd5b5050610598565b60405162461bcd60e51b8152602060048201526013602482015272155cd95c881a5cc81b9bdd081d1c9d5cdd1959606a1b6044820152606490fd5b503461016e57602036600319011261016e576040906001600160a01b0361066b611a7d565b1681526005602052206040519061068d826106868184611ca1565b0383611acb565b6106d06001820154916002810154906003810154600560048301549201549260405196879660018060a01b038160101c169160ff808360081c1692169089611bd5565b0390f35b503461016e57602036600319011261016e576004359060085482101561016e5760085482101561074157600881527ff3f7a9fe364faab93b216da50a3214154f22a0a2b415b23a84c8169e8b636ee39091015460405160039290921b1c6001600160a01b03168152602090f35b634e487b7160e01b81526032600452602490fd5b503461016e57602036600319011261016e576004356107726120a3565b80156107aa576020817f41d466ebd06fb97e7786086ac8b69b7eb7da798592036251291d34e9791cde0192600255604051908152a180f35b60405162461bcd60e51b815260206004820152602260248201527f5265776172642072617465206d7573742062652067726561746572207468616e604482015261020360f41b6064820152608490fd5b503461016e578060031936011261016e576020600854604051908152f35b503461016e578060031936011261016e57602060ff600454166040519015158152f35b503461016e578060031936011261016e57546040516001600160a01b039091168152602090f35b503461016e578060031936011261016e576040517f00000000000000000000000000000000000000000000000000000000000000006001600160a01b03168152602090f35b503461016e576108b636611c24565b338352600760205260ff60408420541680610cd1575b80610cb5575b15610c70576108e560ff60045416611e91565b6108f96001600160a01b0383161515612057565b6001600160a01b03821683526007602052604083205461091c9060ff1615611edd565b61092881511515611f29565b61095e604051825161093e818360208701611b8d565b60069082019081528190036020019020546001600160a01b031615611f75565b6001600160a01b0382163314610c2b5760405161097a81611a98565b818152836020820152600160408201523360608201528360808201524260a08201528360c08201524260e082015260018060a01b038316845260056020526040842090805180519067ffffffffffffffff8211610c17576109db8454611c67565b601f8111610bd6575b50602090601f8311600114610b6e5791806005949260e0948a92610b63575b50508160011b916000199060031b1c19161784555b60018401610a3860208301511515829060ff801983541691151516179055565b6040820151815461ff00191690151560081b61ff00161781556060820151815462010000600160b01b03191660109190911b62010000600160b01b03161790556080810151600285015560a0810151600385015560c0810151600485015501519101556001600160a01b0382168352600760209081526040808520805460ff191660011790555182519091908290610ad38183878601611b8d565b60069082019081520301902080546001600160a01b0319166001600160a01b038416179055610b0182611fba565b338352600560205260026040842001610b1a8154612006565b90557facc57e4df9c31b350a3d7e6267e5d7d16c549e68354205767ff1811d1146457c6040516020815280610b5d339560018060a01b0316946020830190611bb0565b0390a380f35b015190503880610a03565b8488528188209190601f198416895b818110610bbe575092600192859260e0966005989610610ba5575b505050811b018455610a18565b015160001960f88460031b161c19169055388080610b98565b92936020600181928786015181550195019301610b7d565b84885260208820601f840160051c810160208510610c10575b601f830160051c82018110610c055750506109e4565b898155600101610bef565b5080610bef565b634e487b7160e01b87526041600452602487fd5b60405162461bcd60e51b815260206004820152601860248201527f43616e6e6f7420726567697374657220796f757273656c6600000000000000006044820152606490fd5b60405162461bcd60e51b815260206004820152601b60248201527f4d757374206265206163746976652074727573746564207573657200000000006044820152606490fd5b50338352600560205260ff600160408520015460081c166108d2565b50338352600560205260ff6001604085200154166108cc565b503461016e57602036600319011261016e57600435610d076120a3565b60648110610d41576020817fa22d6af19c6f93cec4ca5544959e3a75e8b4416139216080171f5662a64489e992600355604051908152a180f35b60405162461bcd60e51b8152602060048201526024808201527f4d756c7469706c696572206d757374206265206174206c6561737420313030206044820152632831782960e01b6064820152608490fd5b503461016e57610da136611c24565b90610daa6120a3565b610dbe6001600160a01b0382161515612057565b610dca82511515611f29565b6001600160a01b03811683526007602052604083205460ff166110b757610dfd604051835161093e818360208801611b8d565b604051610e0981611a98565b82815260016020820152600160408201528360608201528360808201524260a08201528360c08201524260e082015260018060a01b038216845260056020526040842090805180519067ffffffffffffffff8211610c1757610e6b8454611c67565b601f8111611076575b50602090601f8311600114610fe8577fe4ab0700c1b4ac7b07b68d06857075bcddc95e5875b9e25cf4316a38a79b5fcd9593836103a3969460059460e0948c92610fdd575b50508160011b916000199060031b1c19161784555b60018401610eee60208301511515829060ff801983541691151516179055565b6040820151815461ff00191690151560081b61ff00161781556060820151815462010000600160b01b03191660109190911b62010000600160b01b03161790556080810151600285015560a0810151600385015560c0810151600485015501519101556001600160a01b0381168552600760209081526040808720805460ff191660011790555185519091908290610f8981838a8601611b8d565b60069082019081520301902080546001600160a01b0319166001600160a01b038316179055610fb781611fba565b610fc081611fe1565b6040519182916020835260018060a01b0316946020830190611bb0565b015190503880610eb9565b8488528188209190601f198416895b81811061105e57508460059460e0947fe4ab0700c1b4ac7b07b68d06857075bcddc95e5875b9e25cf4316a38a79b5fcd9a98946103a39a9860019510611045575b505050811b018455610ece565b015160001960f88460031b161c19169055388080611038565b92936020600181928786015181550195019301610ff7565b84885260208820601f840160051c8101602085106110b0575b601f830160051c820181106110a5575050610e74565b89815560010161108f565b508061108f565b6001600160a01b03811683526005602052604083206001015460ff16611130576001600160a01b03811683526005602052604083206001908101805460ff191690911790557fe4ab0700c1b4ac7b07b68d06857075bcddc95e5875b9e25cf4316a38a79b5fcd906103a39061112b81611fe1565b610fc0565b60405162461bcd60e51b815260206004820152601760248201527f5573657220697320616c726561647920747275737465640000000000000000006044820152606490fd5b503461016e578060031936011261016e57600954801561124b576020906040518092818385935201600985527f6e1540171b6c0c960b71a7020d9f60077f6af931a8bbf590da0223dacf75c7af92855b8181106112295750506111da92500382611acb565b905b604051918291602083016020845282518091526020604085019301915b818110611207575050500390f35b82516001600160a01b03168452859450602093840193909201916001016111f9565b84546001600160a01b03168352600194850194869450602090930192016111c5565b5060405161125a602082611acb565b8181526000368137906111dc565b503461016e578060031936011261016e576112816120a3565b80546001600160a01b03198116825581906001600160a01b03167f8be0079c531659141344cd1fd0a4f28419497f9722a3daafe3b4186f6b6457e08280a380f35b503461016e57602036600319011261016e57611342906106d060406112e5611a7d565b6001600160a01b03811680855260076020528285205491949161130a9060ff16612015565b815260056020522060018101549260028201549061132c600484015491611d5a565b9161134960058501549460405198898092611ca1565b0388611acb565b6040519687966001600160a01b03601082901c169160ff600883901c811692169089611bd5565b503461016e57602036600319011261016e576004359060095482101561016e57602061139b83611b44565b905460405160039290921b1c6001600160a01b03168152f35b503461016e578060031936011261016e5733815260076020526113dd60ff604083205416612015565b338152600560205260ff600160408320015460081c16156115505761140660ff60045416611e91565b60026001541461154157600260015561141e33611d5a565b908115611506573381526005602052426003604083200155338152600560205260046040822001611450838254611d4d565b90557f00000000000000000000000000000000000000000000000000000000000000006001600160a01b0316803b15611502578180916044604051809481936340c10f1960e01b83523360048401528860248401525af180156114f7576114e7575b50906040519081527f896e034966eaaf1adc54acc0f257056febbd300c9e47182cf761982cf1f5e43060203392a26001805580f35b816114f191611acb565b386114b2565b6040513d84823e3d90fd5b5080fd5b60405162461bcd60e51b81526020600482015260136024820152724e6f207265776172647320746f20636c61696d60681b6044820152606490fd5b633ee5aeb560e01b8152600490fd5b60405162461bcd60e51b815260206004820152601260248201527155736572206973206e6f742061637469766560701b6044820152606490fd5b503461016e578060031936011261016e576115a36120a3565b7f23ac23f9a3d47c9cff74aa16364727d0dcedec5665b037fdfc2c171d4b352797602060045460ff8082161516809160ff1916176004556040519015158152a180f35b503461016e57604036600319011261016e5760043567ffffffffffffffff811161150257611618903690600401611aed565b906024356001600160a01b03811681036115025761163a60ff60045416611e91565b338252600760205261165360ff60408420541615611edd565b61165f83511515611f29565b611675604051845161093e818360208901611b8d565b6001600160a01b0381163314611a14576001600160a01b03811682526005602052604082206001015460ff16156119cf576001600160a01b03811682526005602052604082206001015460081c60ff161561198a57604051926116d784611a98565b8084526020840193838552604081019460018652606082019060018060a01b03851682526080830186815260a084019042825260c085019288845260e0860194428652338a52600560205260408a2096519a8b5167ffffffffffffffff8111611976576117448954611c67565b601f811161192c575b5060209c601f82116001146118bc5790808d9e6117ba949360059c9d9e9f926118b1575b50508160011b916000199060031b1c1916178a555b6117a360018b0194511515859060ff801983541691151516179055565b51835461ff00191690151560081b61ff0016178355565b51815462010000600160b01b03191660109190911b62010000600160b01b031617905551600286015551600385015551600484015551910155338352600760209081526040808520805460ff1916600117905551825190919082906118228183878601611b8d565b60069082019081520301902080546001600160a01b0319163390811790915561184a90611fba565b6001600160a01b0382168352600560205260408320600201805461186d90612006565b90557f43864134af361805265e0c6a51a53b97a54d02d4753018d0d1ef2d19a44ff602604051926020845260018060a01b03169280610b5d33946020830190611bb0565b015190503880611771565b898d528d8d209d90601f1983168e5b81811061191257509e60059b9c9d9e9f9284926117ba9695600195106118f9575b505050811b018a55611786565b015160001960f88460031b161c191690553880806118ec565b9f838301518155600101926020019f6020019f929f6118cb565b898d5260208d20601f830160051c8101916020841061196c575b601f0160051c01908d905b82811061195f57505061174d565b6001918155018d90611951565b9091508190611946565b634e487b7160e01b8c52604160045260248cfd5b60405162461bcd60e51b815260206004820152601760248201527f5265666572726572206d757374206265206163746976650000000000000000006044820152606490fd5b60405162461bcd60e51b815260206004820152601860248201527f5265666572726572206d757374206265207472757374656400000000000000006044820152606490fd5b60405162461bcd60e51b815260206004820152601560248201527421b0b73737ba103932b332b9103cb7bab939b2b63360591b6044820152606490fd5b503461016e57602036600319011261016e576020611a75611a70611a7d565b611d5a565b604051908152f35b600435906001600160a01b0382168203611a9357565b600080fd5b610100810190811067ffffffffffffffff821117611ab557604052565b634e487b7160e01b600052604160045260246000fd5b90601f8019910116810190811067ffffffffffffffff821117611ab557604052565b81601f82011215611a935780359067ffffffffffffffff8211611ab55760405192611b22601f8401601f191660200185611acb565b82845260208383010111611a9357816000926020809301838601378301015290565b600954811015611b5f57600960005260206000200190600090565b634e487b7160e01b600052603260045260246000fd5b8054821015611b5f5760005260206000200190600090565b60005b838110611ba05750506000910152565b8181015183820152602001611b90565b90602091611bc981518092818552858086019101611b8d565b601f01601f1916010190565b9491989796939092611bf460e097946101008852610100880190611bb0565b9915156020870152151560408601526001600160a01b03166060850152608084015260a083015260c08201520152565b906040600319830112611a93576004356001600160a01b0381168103611a9357916024359067ffffffffffffffff8211611a9357611c6491600401611aed565b90565b90600182811c92168015611c97575b6020831014611c8157565b634e487b7160e01b600052602260045260246000fd5b91607f1691611c76565b60009291815491611cb183611c67565b8083529260018116908115611d075750600114611ccd57505050565b60009081526020812093945091925b838310611ced575060209250010190565b600181602092949394548385870101520191019190611cdc565b915050602093945060ff929192191683830152151560051b010190565b81810292918115918404141715611d3757565b634e487b7160e01b600052601160045260246000fd5b91908201809211611d3757565b6001600160a01b031660008181526007602052604090205460ff16158015611e72575b8015611e65575b611e5f576000526005602052604060002060405190611da282611a98565b604051611dba81611db38185611ca1565b0382611acb565b8252600181015460ff81161515602084015260ff8160081c161515604084015260018060a01b039060101c1660608301526002810154916080810192835260e060056003840154938460a0850152600481015460c085015201549101524203428111611d3757600254611e2c91611d24565b815190919015611e5b57906064611e54611c6493611e4c60035485611d24565b905190611d24565b0490611d4d565b5090565b50600090565b5060ff6004541615611d84565b5080600052600560205260ff60016040600020015460081c1615611d7d565b15611e9857565b60405162461bcd60e51b815260206004820152601a60248201527f446973747269627574696f6e206973206e6f74206163746976650000000000006044820152606490fd5b15611ee457565b60405162461bcd60e51b815260206004820152601760248201527f5573657220616c726561647920726567697374657265640000000000000000006044820152606490fd5b15611f3057565b60405162461bcd60e51b815260206004820152601860248201527f557365726e616d652063616e6e6f7420626520656d70747900000000000000006044820152606490fd5b15611f7c57565b60405162461bcd60e51b81526020600482015260166024820152752ab9b2b93730b6b29030b63932b0b23c903a30b5b2b760511b6044820152606490fd5b60085490600160401b821015611ab557610547826001611fdf94016008556008611b75565b565b60095490600160401b821015611ab557610547826001611fdf94016009556009611b75565b6000198114611d375760010190565b1561201c57565b60405162461bcd60e51b8152602060048201526013602482015272155cd95c881b9bdd081c9959da5cdd195c9959606a1b6044820152606490fd5b1561205e57565b60405162461bcd60e51b815260206004820152601b60248201527f5573657220616464726573732063616e6e6f74206265207a65726f00000000006044820152606490fd5b6000546001600160a01b031633036120b757565b63118cdaa760e01b6000523360045260246000fdfea2646970667358221220b4ca50cfb85e923225a75254f6d9f224800bb2ec028c6c0fc955abc05bddecce64736f6c634300081c0033",
  "linkReferences": {},
  "deployedLinkReferences": {}
}