{
  "_format": "hh-sol-artifact-1",
  "contractName": "BeerCoinDistributor",
  "sourceName": "contracts/BeerCoinDistributor.sol",
  "abi": [
    {
      "inputs": [
        {
          "internalType": "address",
          "name": "_beerCoin",
          "type": "address"
        },
        {
          "internalType": "address",
          "name": "initialOwner",
          "type": "address"
        }
      ],
      "stateMutability": "nonpayable",
      "type": "constructor"
    },
    {
      "inputs": [
        {
          "internalType": "address",
          "name": "owner",
          "type": "address"
        }
      ],
      "name": "OwnableInvalidOwner",
      "type": "error"
    },
    {
      "inputs": [
        {
          "internalType": "address",
          "name": "account",
          "type": "address"
        }
      ],
      "name": "OwnableUnauthorizedAccount",
      "type": "error"
    },
    {
      "inputs": [],
      "name": "ReentrancyGuardReentrantCall",
      "type": "error"
    },
    {
      "anonymous": false,
      "inputs": [
        {
          "indexed": false,
          "internalType": "bool",
          "name": "active",
          "type": "bool"
        }
      ],
      "name": "DistributionToggled",
      "type": "event"
    },
    {
      "anonymous": false,
      "inputs": [
        {
          "indexed": true,
          "internalType": "address",
          "name": "previousOwner",
          "type": "address"
        },
        {
          "indexed": true,
          "internalType": "address",
          "name": "newOwner",
          "type": "address"
        }
      ],
      "name": "OwnershipTransferred",
      "type": "event"
    },
    {
      "anonymous": false,
      "inputs": [
        {
          "indexed": false,
          "internalType": "uint256",
          "name": "newMultiplier",
          "type": "uint256"
        }
      ],
      "name": "ReferrerMultiplierUpdated",
      "type": "event"
    },
    {
      "anonymous": false,
      "inputs": [
        {
          "indexed": false,
          "internalType": "uint256",
          "name": "newRate",
          "type": "uint256"
        }
      ],
      "name": "RewardRateUpdated",
      "type": "event"
    },
    {
      "anonymous": false,
      "inputs": [
        {
          "indexed": true,
          "internalType": "address",
          "name": "user",
          "type": "address"
        },
        {
          "indexed": false,
          "internalType": "uint256",
          "name": "amount",
          "type": "uint256"
        }
      ],
      "name": "TokensClaimed",
      "type": "event"
    },
    {
      "anonymous": false,
      "inputs": [
        {
          "indexed": true,
          "internalType": "address",
          "name": "user",
          "type": "address"
        },
        {
          "indexed": false,
          "internalType": "string",
          "name": "username",
          "type": "string"
        }
      ],
      "name": "UserKicked",
      "type": "event"
    },
    {
      "anonymous": false,
      "inputs": [
        {
          "indexed": true,
          "internalType": "address",
          "name": "user",
          "type": "address"
        },
        {
          "indexed": false,
          "internalType": "string",
          "name": "username",
          "type": "string"
        },
        {
          "indexed": true,
          "internalType": "address",
          "name": "referrer",
          "type": "address"
        }
      ],
      "name": "UserRegistered",
      "type": "event"
    },
    {
      "anonymous": false,
      "inputs": [
        {
          "indexed": true,
          "internalType": "address",
          "name": "user",
          "type": "address"
        },
        {
          "indexed": false,
          "internalType": "string",
          "name": "username",
          "type": "string"
        }
      ],
      "name": "UserTrusted",
      "type": "event"
    },
    {
      "anonymous": false,
      "inputs": [
        {
          "indexed": true,
          "internalType": "address",
          "name": "user",
          "type": "address"
        },
        {
          "indexed": false,
          "internalType": "string",
          "name": "username",
          "type": "string"
        }
      ],
      "name": "UserUntrusted",
      "type": "event"
    },
    {
      "inputs": [],
      "name": "MULTIPLIER_BASE",
      "outputs": [
        {
          "internalType": "uint256",
          "name": "",
          "type": "uint256"
        }
      ],
      "stateMutability": "view",
      "type": "function"
    },
    {
      "inputs": [
        {
          "internalType": "address",
          "name": "user",
          "type": "address"
        },
        {
          "internalType": "string",
          "name": "username",
          "type": "string"
        }
      ],
      "name": "addTrustedUser",
      "outputs": [],
      "stateMutability": "nonpayable",
      "type": "function"
    },
    {
      "inputs": [
        {
          "internalType": "uint256",
          "name": "",
          "type": "uint256"
        }
      ],
      "name": "allUsers",
      "outputs": [
        {
          "internalType": "address",
          "name": "",
          "type": "address"
        }
      ],
      "stateMutability": "view",
      "type": "function"
    },
    {
      "inputs": [],
      "name": "baseRewardRate",
      "outputs": [
        {
          "internalType": "uint256",
          "name": "",
          "type": "uint256"
        }
      ],
      "stateMutability": "view",
      "type": "function"
    },
    {
      "inputs": [],
      "name": "beerCoin",
      "outputs": [
        {
          "internalType": "contract BeerCoin",
          "name": "",
          "type": "address"
        }
      ],
      "stateMutability": "view",
      "type": "function"
    },
    {
      "inputs": [
        {
          "internalType": "address",
          "name": "user",
          "type": "address"
        }
      ],
      "name": "calculatePendingRewards",
      "outputs": [
        {
          "internalType": "uint256",
          "name": "pendingRewards",
          "type": "uint256"
        }
      ],
      "stateMutability": "view",
      "type": "function"
    },
    {
      "inputs": [],
      "name": "claimRewards",
      "outputs": [],
      "stateMutability": "nonpayable",
      "type": "function"
    },
    {
      "inputs": [],
      "name": "distributionActive",
      "outputs": [
        {
          "internalType": "bool",
          "name": "",
          "type": "bool"
        }
      ],
      "stateMutability": "view",
      "type": "function"
    },
    {
      "inputs": [],
      "name": "getAllTrustedUsers",
      "outputs": [
        {
          "internalType": "address[]",
          "name": "",
          "type": "address[]"
        }
      ],
      "stateMutability": "view",
      "type": "function"
    },
    {
      "inputs": [],
      "name": "getTotalTrustedUsers",
      "outputs": [
        {
          "internalType": "uint256",
          "name": "",
          "type": "uint256"
        }
      ],
      "stateMutability": "view",
      "type": "function"
    },
    {
      "inputs": [],
      "name": "getTotalUsers",
      "outputs": [
        {
          "internalType": "uint256",
          "name": "",
          "type": "uint256"
        }
      ],
      "stateMutability": "view",
      "type": "function"
    },
    {
      "inputs": [
        {
          "internalType": "address",
          "name": "user",
          "type": "address"
        }
      ],
      "name": "getUserInfo",
      "outputs": [
        {
          "internalType": "string",
          "name": "username",
          "type": "string"
        },
        {
          "internalType": "bool",
          "name": "isTrusted",
          "type": "bool"
        },
        {
          "internalType": "bool",
          "name": "isActive",
          "type": "bool"
        },
        {
          "internalType": "address",
          "name": "referrer",
          "type": "address"
        },
        {
          "internalType": "uint256",
          "name": "referralCount",
          "type": "uint256"
        },
        {
          "internalType": "uint256",
          "name": "totalEarned",
          "type": "uint256"
        },
        {
          "internalType": "uint256",
          "name": "pendingRewards",
          "type": "uint256"
        },
        {
          "internalType": "uint256",
          "name": "joinTime",
          "type": "uint256"
        }
      ],
      "stateMutability": "view",
      "type": "function"
    },
    {
      "inputs": [
        {
          "internalType": "address",
          "name": "",
          "type": "address"
        }
      ],
      "name": "isRegistered",
      "outputs": [
        {
          "internalType": "bool",
          "name": "",
          "type": "bool"
        }
      ],
      "stateMutability": "view",
      "type": "function"
    },
    {
      "inputs": [
        {
          "internalType": "string",
          "name": "username",
          "type": "string"
        }
      ],
      "name": "isUsernameAvailable",
      "outputs": [
        {
          "internalType": "bool",
          "name": "",
          "type": "bool"
        }
      ],
      "stateMutability": "view",
      "type": "function"
    },
    {
      "inputs": [
        {
          "internalType": "address",
          "name": "user",
          "type": "address"
        }
      ],
      "name": "kickUser",
      "outputs": [],
      "stateMutability": "nonpayable",
      "type": "function"
    },
    {
      "inputs": [],
      "name": "owner",
      "outputs": [
        {
          "internalType": "address",
          "name": "",
          "type": "address"
        }
      ],
      "stateMutability": "view",
      "type": "function"
    },
    {
      "inputs": [],
      "name": "referrerMultiplier",
      "outputs": [
        {
          "internalType": "uint256",
          "name": "",
          "type": "uint256"
        }
      ],
      "stateMutability": "view",
      "type": "function"
    },
    {
      "inputs": [
        {
          "internalType": "string",
          "name": "username",
          "type": "string"
        },
        {
          "internalType": "address",
          "name": "referrer",
          "type": "address"
        }
      ],
      "name": "registerUser",
      "outputs": [],
      "stateMutability": "nonpayable",
      "type": "function"
    },
    {
      "inputs": [
        {
          "internalType": "address",
          "name": "user",
          "type": "address"
        }
      ],
      "name": "removeTrustedUser",
      "outputs": [],
      "stateMutability": "nonpayable",
      "type": "function"
    },
    {
      "inputs": [],
      "name": "renounceOwnership",
      "outputs": [],
      "stateMutability": "nonpayable",
      "type": "function"
    },
    {
      "inputs": [],
      "name": "toggleDistribution",
      "outputs": [],
      "stateMutability": "nonpayable",
      "type": "function"
    },
    {
      "inputs": [
        {
          "internalType": "address",
          "name": "newOwner",
          "type": "address"
        }
      ],
      "name": "transferOwnership",
      "outputs": [],
      "stateMutability": "nonpayable",
      "type": "function"
    },
    {
      "inputs": [
        {
          "internalType": "uint256",
          "name": "",
          "type": "uint256"
        }
      ],
      "name": "trustedUsers",
      "outputs": [
        {
          "internalType": "address",
          "name": "",
          "type": "address"
        }
      ],
      "stateMutability": "view",
      "type": "function"
    },
    {
      "inputs": [
        {
          "internalType": "uint256",
          "name": "newMultiplier",
          "type": "uint256"
        }
      ],
      "name": "updateReferrerMultiplier",
      "outputs": [],
      "stateMutability": "nonpayable",
      "type": "function"
    },
    {
      "inputs": [
        {
          "internalType": "uint256",
          "name": "newRate",
          "type": "uint256"
        }
      ],
      "name": "updateRewardRate",
      "outputs": [],
      "stateMutability": "nonpayable",
      "type": "function"
    },
    {
      "inputs": [
        {
          "internalType": "string",
          "name": "",
          "type": "string"
        }
      ],
      "name": "usernameToAddress",
      "outputs": [
        {
          "internalType": "address",
          "name": "",
          "type": "address"
        }
      ],
      "stateMutability": "view",
      "type": "function"
    },
    {
      "inputs": [
        {
          "internalType": "address",
          "name": "",
          "type": "address"
        }
      ],
      "name": "users",
      "outputs": [
        {
          "internalType": "string",
          "name": "username",
          "type": "string"
        },
        {
          "internalType": "bool",
          "name": "isTrusted",
          "type": "bool"
        },
        {
          "internalType": "bool",
          "name": "isActive",
          "type": "bool"
        },
        {
          "internalType": "address",
          "name": "referrer",
          "type": "address"
        },
        {
          "internalType": "uint256",
          "name": "referralCount",
          "type": "uint256"
        },
        {
          "internalType": "uint256",
          "name": "lastClaimTime",
          "type": "uint256"
        },
        {
          "internalType": "uint256",
          "name": "totalEarned",
          "type": "uint256"
        },
        {
          "internalType": "uint256",
          "name": "joinTime",
          "type": "uint256"
        }
      ],
      "stateMutability": "view",
      "type": "function"
    }
  ],
  "bytecode": "0x60a03461015957601f611e2b38819003918201601f19168301916001600160401b0383118484101761015e5780849260409485528339810103126101595761004681610174565b906001600160a01b039061005c90602001610174565b1690811561014357600080546001600160a01b031981168417825560405193916001600160a01b03909116907f8be0079c531659141344cd1fd0a4f28419497f9722a3daafe3b4186f6b6457e09080a3600180805566038d7ea4c6800060025560966003556004805460ff191690911790556001600160a01b03169081156101015750608052604051611ca29081610189823960805181818161086d015261107e0152f35b62461bcd60e51b815260206004820152601f60248201527f42656572436f696e20616464726573732063616e6e6f74206265207a65726f006044820152606490fd5b631e4fbdf760e01b600052600060045260246000fd5b600080fd5b634e487b7160e01b600052604160045260246000fd5b51906001600160a01b03821682036101595756fe6080604052600436101561001257600080fd5b6000803560e01c8063097aad10146116d85780630e54b872146112105780631dd5a948146111b4578063372500ab14610fde57806337e03f6414610f9a5780636386c1c714610eec578063715018a614610e925780637863e3c014610dca5780637ed8c35e146109445780637f891c801461089c5780638cd93eef146108575780638da5cb5b1461083057806399fb15d21461080d5780639be572f6146107ef5780639ef3a2611461074a578063a2bdedf4146106c9578063a87430ba1461063b578063af866d871461045e578063afbf344014610440578063c3c5a54714610401578063efae2ee6146103e3578063f1de3194146102dd578063f2fde38b14610257578063f69c6dec146101ec578063f825f14314610182578063f97136af146101665763fdf8d2421461014657600080fd5b346101635780600319360112610163576020600354604051908152f35b80fd5b5034610163578060031936011261016357602060405160648152f35b5034610163576020366003190112610163576004359067ffffffffffffffff82116101635760206101b63660048501611774565b816101ca6040519283815193849201611814565b600690820190815281900382019020546040516001600160a01b039091168152f35b5034610163576020366003190112610163576004359067ffffffffffffffff82116101635760206102203660048501611774565b816102346040519283815193849201611814565b600690820190815281900382019020546040516001600160a01b03909116158152f35b503461016357602036600319011261016357610271611704565b610279611c43565b6001600160a01b031680156102c95781546001600160a01b03198116821783556001600160a01b03167f8be0079c531659141344cd1fd0a4f28419497f9722a3daafe3b4186f6b6457e08380a380f35b631e4fbdf760e01b82526004829052602482fd5b5034610163576020366003190112610163576102f7611704565b6102ff611c43565b6001600160a01b0316808252600760205260408220546103219060ff16611c01565b808252600560205260ff600160408420015460081c161561039e5780825260056020526001604083200161ff0019815416905580825260056020527f027b6bf28c3ea625d8e992716aa9d93969a8dcb0eec48431ed006234b270d403610398604084206040519182916020835260208301906118e5565b0390a280f35b60405162461bcd60e51b815260206004820152601860248201527f5573657220697320616c726561647920696e61637469766500000000000000006044820152606490fd5b50346101635780600319360112610163576020600954604051908152f35b50346101635760203660031901126101635760209060ff906040906001600160a01b0361042c611704565b168152600784522054166040519015158152f35b50346101635780600319360112610163576020600254604051908152f35b503461016357602036600319011261016357610478611704565b610480611c43565b6001600160a01b0316808252600760205260408220546104a29060ff16611c01565b808252600560205260ff6001604084200154161561060057808252600560205260408220600101805460ff19169055815b600954808210156105f957826104e8836117cb565b905460039190911b1c6001600160a01b03161461050857506001016104d3565b60001981019081116105e5579061053c610524610560936117cb565b905460039190911b1c6001600160a01b0316916117cb565b81546001600160a01b0393841660039290921b91821b9390911b1916919091179055565b60095480156105d15760001901610576816117cb565b81549060018060a01b039060031b1b191690556009555b80825260056020527fddece651176b4d76629e735760a05157f20556fb0ae07ad54bce944723b5759f610398604084206040519182916020835260208301906118e5565b634e487b7160e01b83526031600452602483fd5b634e487b7160e01b84526011600452602484fd5b505061058d565b60405162461bcd60e51b8152602060048201526013602482015272155cd95c881a5cc81b9bdd081d1c9d5cdd1959606a1b6044820152606490fd5b5034610163576020366003190112610163576040906001600160a01b03610660611704565b168152600560205220604051906106828261067b81846118e5565b0383611752565b6106c56001820154916002810154906003810154600560048301549201549260405196879660018060a01b038160101c169160ff808360081c169216908961185c565b0390f35b503461016357602036600319011261016357600435906008548210156101635760085482101561073657600881527ff3f7a9fe364faab93b216da50a3214154f22a0a2b415b23a84c8169e8b636ee39091015460405160039290921b1c6001600160a01b03168152602090f35b634e487b7160e01b81526032600452602490fd5b503461016357602036600319011261016357600435610767611c43565b801561079f576020817f41d466ebd06fb97e7786086ac8b69b7eb7da798592036251291d34e9791cde0192600255604051908152a180f35b60405162461bcd60e51b815260206004820152602260248201527f5265776172642072617465206d7573742062652067726561746572207468616e604482015261020360f41b6064820152608490fd5b50346101635780600319360112610163576020600854604051908152f35b5034610163578060031936011261016357602060ff600454166040519015158152f35b5034610163578060031936011261016357546040516001600160a01b039091168152602090f35b50346101635780600319360112610163576040517f00000000000000000000000000000000000000000000000000000000000000006001600160a01b03168152602090f35b5034610163576020366003190112610163576004356108b9611c43565b606481106108f3576020817fa22d6af19c6f93cec4ca5544959e3a75e8b4416139216080171f5662a64489e992600355604051908152a180f35b60405162461bcd60e51b8152602060048201526024808201527f4d756c7469706c696572206d757374206265206174206c6561737420313030206044820152632831782960e01b6064820152608490fd5b50346101635760403660031901126101635761095e611704565b60243567ffffffffffffffff8111610dc65761097e903690600401611774565b90610987611c43565b6001600160a01b03811615610d81576109a282511515611b24565b6109d860405183516109b8818360208801611814565b60069082019081528190036020019020546001600160a01b031615611b70565b6001600160a01b03811683526007602052604083205460ff16610cc357604051610a018161171f565b82815260016020820152600160408201528360608201528360808201524260a08201528360c08201524260e082015260018060a01b038216845260056020526040842090805180519067ffffffffffffffff8211610caf57610a6384546118ab565b601f8111610c6e575b50602090601f8311600114610be0577fe4ab0700c1b4ac7b07b68d06857075bcddc95e5875b9e25cf4316a38a79b5fcd959383610398969460059460e0948c92610bd5575b50508160011b916000199060031b1c19161784555b60018401610ae660208301511515829060ff801983541691151516179055565b6040820151815461ff00191690151560081b61ff00161781556060820151815462010000600160b01b03191660109190911b62010000600160b01b03161790556080810151600285015560a0810151600385015560c0810151600485015501519101556001600160a01b0381168552600760209081526040808720805460ff191660011790555185519091908290610b8181838a8601611814565b60069082019081520301902080546001600160a01b0319166001600160a01b038316179055610baf81611bb5565b610bb881611bdc565b6040519182916020835260018060a01b0316946020830190611837565b015190503880610ab1565b8488528188209190601f198416895b818110610c5657508460059460e0947fe4ab0700c1b4ac7b07b68d06857075bcddc95e5875b9e25cf4316a38a79b5fcd9a98946103989a9860019510610c3d575b505050811b018455610ac6565b015160001960f88460031b161c19169055388080610c30565b92936020600181928786015181550195019301610bef565b84885260208820601f840160051c810160208510610ca8575b601f830160051c82018110610c9d575050610a6c565b898155600101610c87565b5080610c87565b634e487b7160e01b87526041600452602487fd5b6001600160a01b03811683526005602052604083206001015460ff16610d3c576001600160a01b03811683526005602052604083206001908101805460ff191690911790557fe4ab0700c1b4ac7b07b68d06857075bcddc95e5875b9e25cf4316a38a79b5fcd9061039890610d3781611bdc565b610bb8565b60405162461bcd60e51b815260206004820152601760248201527f5573657220697320616c726561647920747275737465640000000000000000006044820152606490fd5b60405162461bcd60e51b815260206004820152601b60248201527f5573657220616464726573732063616e6e6f74206265207a65726f00000000006044820152606490fd5b8280fd5b503461016357806003193601126101635760405180602060095491828152018091600985527f6e1540171b6c0c960b71a7020d9f60077f6af931a8bbf590da0223dacf75c7af90855b818110610e735750505082610e29910383611752565b604051928392602084019060208552518091526040840192915b818110610e51575050500390f35b82516001600160a01b0316845285945060209384019390920191600101610e43565b82546001600160a01b0316845260209093019260019283019201610e13565b5034610163578060031936011261016357610eab611c43565b80546001600160a01b03198116825581906001600160a01b03167f8be0079c531659141344cd1fd0a4f28419497f9722a3daafe3b4186f6b6457e08280a380f35b503461016357602036600319011261016357610f6c906106c56040610f0f611704565b6001600160a01b038116808552600760205282852054919491610f349060ff16611c01565b8152600560205220600181015492600282015490610f5660048401549161199e565b91610f73600585015494604051988980926118e5565b0388611752565b6040519687966001600160a01b03601082901c169160ff600883901c81169216908961185c565b50346101635760203660031901126101635760043590600954821015610163576020610fc5836117cb565b905460405160039290921b1c6001600160a01b03168152f35b5034610163578060031936011261016357338152600760205261100760ff604083205416611c01565b338152600560205260ff600160408320015460081c161561117a5761103060ff60045416611ad8565b60026001541461116b5760026001556110483361199e565b90811561113057338152600560205242600360408320015533815260056020526004604082200161107a838254611991565b90557f00000000000000000000000000000000000000000000000000000000000000006001600160a01b0316803b1561112c578180916044604051809481936340c10f1960e01b83523360048401528860248401525af1801561112157611111575b50906040519081527f896e034966eaaf1adc54acc0f257056febbd300c9e47182cf761982cf1f5e43060203392a26001805580f35b8161111b91611752565b386110dc565b6040513d84823e3d90fd5b5080fd5b60405162461bcd60e51b81526020600482015260136024820152724e6f207265776172647320746f20636c61696d60681b6044820152606490fd5b633ee5aeb560e01b8152600490fd5b60405162461bcd60e51b815260206004820152601260248201527155736572206973206e6f742061637469766560701b6044820152606490fd5b50346101635780600319360112610163576111cd611c43565b7f23ac23f9a3d47c9cff74aa16364727d0dcedec5665b037fdfc2c171d4b352797602060045460ff8082161516809160ff1916176004556040519015158152a180f35b50346101635760403660031901126101635760043567ffffffffffffffff811161112c57611242903690600401611774565b906024356001600160a01b038116810361112c5761126460ff60045416611ad8565b338252600760205260ff6040832054166116935761128483511515611b24565b61129a60405184516109b8818360208901611814565b6001600160a01b0381163314611656576001600160a01b03811682526005602052604082206001015460ff1615611611576001600160a01b03811682526005602052604082206001015460081c60ff16156115cc57604051926112fc8461171f565b8084526020840193838552604081019460018652606082019060018060a01b03851682526080830186815260a084019042825260c085019288845260e0860194428652338a52600560205260408a2096519a8b5167ffffffffffffffff81116115b85761136989546118ab565b601f811161156e575b5060209c601f82116001146114fe5790808d9e6113df949360059c9d9e9f926114f3575b50508160011b916000199060031b1c1916178a555b6113c860018b0194511515859060ff801983541691151516179055565b51835461ff00191690151560081b61ff0016178355565b51815462010000600160b01b03191660109190911b62010000600160b01b031617905551600286015551600385015551600484015551910155338352600760209081526040808520805460ff1916600117905551825190919082906114478183878601611814565b60069082019081520301902080546001600160a01b0319163390811790915561146f90611bb5565b6001600160a01b0382168352600560205260408320600201805460001981146114df5760010190557f43864134af361805265e0c6a51a53b97a54d02d4753018d0d1ef2d19a44ff602604051926020845260018060a01b031692806114d933946020830190611837565b0390a380f35b634e487b7160e01b85526011600452602485fd5b015190503880611396565b898d528d8d209d90601f1983168e5b81811061155457509e60059b9c9d9e9f9284926113df96956001951061153b575b505050811b018a556113ab565b015160001960f88460031b161c1916905538808061152e565b9f838301518155600101926020019f6020019f929f61150d565b898d5260208d20601f830160051c810191602084106115ae575b601f0160051c01908d905b8281106115a1575050611372565b6001918155018d90611593565b9091508190611588565b634e487b7160e01b8c52604160045260248cfd5b60405162461bcd60e51b815260206004820152601760248201527f5265666572726572206d757374206265206163746976650000000000000000006044820152606490fd5b60405162461bcd60e51b815260206004820152601860248201527f5265666572726572206d757374206265207472757374656400000000000000006044820152606490fd5b60405162461bcd60e51b815260206004820152601560248201527421b0b73737ba103932b332b9103cb7bab939b2b63360591b6044820152606490fd5b60405162461bcd60e51b815260206004820152601760248201527f5573657220616c726561647920726567697374657265640000000000000000006044820152606490fd5b50346101635760203660031901126101635760206116fc6116f7611704565b61199e565b604051908152f35b600435906001600160a01b038216820361171a57565b600080fd5b610100810190811067ffffffffffffffff82111761173c57604052565b634e487b7160e01b600052604160045260246000fd5b90601f8019910116810190811067ffffffffffffffff82111761173c57604052565b81601f8201121561171a5780359067ffffffffffffffff821161173c57604051926117a9601f8401601f191660200185611752565b8284526020838301011161171a57816000926020809301838601378301015290565b6009548110156117e657600960005260206000200190600090565b634e487b7160e01b600052603260045260246000fd5b80548210156117e65760005260206000200190600090565b60005b8381106118275750506000910152565b8181015183820152602001611817565b9060209161185081518092818552858086019101611814565b601f01601f1916010190565b949198979693909261187b60e097946101008852610100880190611837565b9915156020870152151560408601526001600160a01b03166060850152608084015260a083015260c08201520152565b90600182811c921680156118db575b60208310146118c557565b634e487b7160e01b600052602260045260246000fd5b91607f16916118ba565b600092918154916118f5836118ab565b808352926001811690811561194b575060011461191157505050565b60009081526020812093945091925b838310611931575060209250010190565b600181602092949394548385870101520191019190611920565b915050602093945060ff929192191683830152151560051b010190565b8181029291811591840414171561197b57565b634e487b7160e01b600052601160045260246000fd5b9190820180921161197b57565b6001600160a01b031660008181526007602052604090205460ff16158015611ab9575b8015611aac575b611aa65760005260056020526040600020604051906119e68261171f565b6040516119fe816119f781856118e5565b0382611752565b8252600181015460ff81161515602084015260ff8160081c161515604084015260018060a01b039060101c1660608301526002810154916080810192835260e060056003840154938460a0850152600481015460c08501520154910152420342811161197b57600254611a7091611968565b815190919015611aa257906064611a98611a9f93611a9060035485611968565b905190611968565b0490611991565b90565b5090565b50600090565b5060ff60045416156119c8565b5080600052600560205260ff60016040600020015460081c16156119c1565b15611adf57565b60405162461bcd60e51b815260206004820152601a60248201527f446973747269627574696f6e206973206e6f74206163746976650000000000006044820152606490fd5b15611b2b57565b60405162461bcd60e51b815260206004820152601860248201527f557365726e616d652063616e6e6f7420626520656d70747900000000000000006044820152606490fd5b15611b7757565b60405162461bcd60e51b81526020600482015260166024820152752ab9b2b93730b6b29030b63932b0b23c903a30b5b2b760511b6044820152606490fd5b60085490600160401b82101561173c5761053c826001611bda940160085560086117fc565b565b60095490600160401b82101561173c5761053c826001611bda940160095560096117fc565b15611c0857565b60405162461bcd60e51b8152602060048201526013602482015272155cd95c881b9bdd081c9959da5cdd195c9959606a1b6044820152606490fd5b6000546001600160a01b03163303611c5757565b63118cdaa760e01b6000523360045260246000fdfea26469706673582212201147fa8f08b2852e0b06d280451655e7e6e268b4fff548694ded91748f07e6db64736f6c634300081c0033",
  "linkReferences": {},
  "deployedLinkReferences": {}
}