{
  "contracts/BeerCoinDistributorV2.sol": {
    "BeerCoinDistributorV2": {
      "abi": [
        {
          "inputs": [
            {
              "internalType": "address",
              "name": "_beerCoin",
              "type": "address"
            },
            {
              "internalType": "address",
              "name": "initialOwner",
              "type": "address"
            }
          ],
          "stateMutability": "nonpayable",
          "type": "constructor"
        },
        {
          "inputs": [
            {
              "internalType": "address",
              "name": "owner",
              "type": "address"
            }
          ],
          "name": "OwnableInvalidOwner",
          "type": "error"
        },
        {
          "inputs": [
            {
              "internalType": "address",
              "name": "account",
              "type": "address"
            }
          ],
          "name": "OwnableUnauthorizedAccount",
          "type": "error"
        },
        {
          "inputs": [],
          "name": "ReentrancyGuardReentrantCall",
          "type": "error"
        },
        {
          "anonymous": false,
          "inputs": [
            {
              "indexed": false,
              "internalType": "bool",
              "name": "active",
              "type": "bool"
            }
          ],
          "name": "DistributionToggled",
          "type": "event"
        },
        {
          "anonymous": false,
          "inputs": [
            {
              "indexed": true,
              "internalType": "address",
              "name": "previousOwner",
              "type": "address"
            },
            {
              "indexed": true,
              "internalType": "address",
              "name": "newOwner",
              "type": "address"
            }
          ],
          "name": "OwnershipTransferred",
          "type": "event"
        },
        {
          "anonymous": false,
          "inputs": [
            {
              "indexed": false,
              "internalType": "uint256",
              "name": "newMultiplier",
              "type": "uint256"
            }
          ],
          "name": "ReferrerMultiplierUpdated",
          "type": "event"
        },
        {
          "anonymous": false,
          "inputs": [
            {
              "indexed": false,
              "internalType": "uint256",
              "name": "newRate",
              "type": "uint256"
            }
          ],
          "name": "RewardRateUpdated",
          "type": "event"
        },
        {
          "anonymous": false,
          "inputs": [
            {
              "indexed": true,
              "internalType": "address",
              "name": "user",
              "type": "address"
            },
            {
              "indexed": false,
              "internalType": "uint256",
              "name": "amount",
              "type": "uint256"
            }
          ],
          "name": "TokensClaimed",
          "type": "event"
        },
        {
          "anonymous": false,
          "inputs": [
            {
              "indexed": true,
              "internalType": "address",
              "name": "user",
              "type": "address"
            },
            {
              "indexed": false,
              "internalType": "string",
              "name": "username",
              "type": "string"
            }
          ],
          "name": "UserKicked",
          "type": "event"
        },
        {
          "anonymous": false,
          "inputs": [
            {
              "indexed": true,
              "internalType": "address",
              "name": "user",
              "type": "address"
            },
            {
              "indexed": false,
              "internalType": "string",
              "name": "username",
              "type": "string"
            },
            {
              "indexed": true,
              "internalType": "address",
              "name": "referrer",
              "type": "address"
            }
          ],
          "name": "UserRegistered",
          "type": "event"
        },
        {
          "anonymous": false,
          "inputs": [
            {
              "indexed": true,
              "internalType": "address",
              "name": "user",
              "type": "address"
            },
            {
              "indexed": false,
              "internalType": "string",
              "name": "username",
              "type": "string"
            },
            {
              "indexed": true,
              "internalType": "address",
              "name": "trustedUser",
              "type": "address"
            }
          ],
          "name": "UserRegisteredByTrusted",
          "type": "event"
        },
        {
          "anonymous": false,
          "inputs": [
            {
              "indexed": true,
              "internalType": "address",
              "name": "user",
              "type": "address"
            },
            {
              "indexed": false,
              "internalType": "string",
              "name": "username",
              "type": "string"
            }
          ],
          "name": "UserTrusted",
          "type": "event"
        },
        {
          "anonymous": false,
          "inputs": [
            {
              "indexed": true,
              "internalType": "address",
              "name": "user",
              "type": "address"
            },
            {
              "indexed": false,
              "internalType": "string",
              "name": "username",
              "type": "string"
            }
          ],
          "name": "UserUntrusted",
          "type": "event"
        },
        {
          "inputs": [],
          "name": "MULTIPLIER_BASE",
          "outputs": [
            {
              "internalType": "uint256",
              "name": "",
              "type": "uint256"
            }
          ],
          "stateMutability": "view",
          "type": "function"
        },
        {
          "inputs": [
            {
              "internalType": "address",
              "name": "user",
              "type": "address"
            },
            {
              "internalType": "string",
              "name": "username",
              "type": "string"
            }
          ],
          "name": "addTrustedUser",
          "outputs": [],
          "stateMutability": "nonpayable",
          "type": "function"
        },
        {
          "inputs": [
            {
              "internalType": "uint256",
              "name": "",
              "type": "uint256"
            }
          ],
          "name": "allUsers",
          "outputs": [
            {
              "internalType": "address",
              "name": "",
              "type": "address"
            }
          ],
          "stateMutability": "view",
          "type": "function"
        },
        {
          "inputs": [],
          "name": "baseRewardRate",
          "outputs": [
            {
              "internalType": "uint256",
              "name": "",
              "type": "uint256"
            }
          ],
          "stateMutability": "view",
          "type": "function"
        },
        {
          "inputs": [],
          "name": "beerCoin",
          "outputs": [
            {
              "internalType": "contract BeerCoinV2",
              "name": "",
              "type": "address"
            }
          ],
          "stateMutability": "view",
          "type": "function"
        },
        {
          "inputs": [
            {
              "internalType": "address",
              "name": "user",
              "type": "address"
            }
          ],
          "name": "calculatePendingRewards",
          "outputs": [
            {
              "internalType": "uint256",
              "name": "pendingRewards",
              "type": "uint256"
            }
          ],
          "stateMutability": "view",
          "type": "function"
        },
        {
          "inputs": [],
          "name": "claimRewards",
          "outputs": [],
          "stateMutability": "nonpayable",
          "type": "function"
        },
        {
          "inputs": [],
          "name": "distributionActive",
          "outputs": [
            {
              "internalType": "bool",
              "name": "",
              "type": "bool"
            }
          ],
          "stateMutability": "view",
          "type": "function"
        },
        {
          "inputs": [],
          "name": "getAllTrustedUsers",
          "outputs": [
            {
              "internalType": "address[]",
              "name": "",
              "type": "address[]"
            }
          ],
          "stateMutability": "view",
          "type": "function"
        },
        {
          "inputs": [],
          "name": "getTotalTrustedUsers",
          "outputs": [
            {
              "internalType": "uint256",
              "name": "",
              "type": "uint256"
            }
          ],
          "stateMutability": "view",
          "type": "function"
        },
        {
          "inputs": [],
          "name": "getTotalUsers",
          "outputs": [
            {
              "internalType": "uint256",
              "name": "",
              "type": "uint256"
            }
          ],
          "stateMutability": "view",
          "type": "function"
        },
        {
          "inputs": [
            {
              "internalType": "address",
              "name": "user",
              "type": "address"
            }
          ],
          "name": "getUserInfo",
          "outputs": [
            {
              "internalType": "string",
              "name": "username",
              "type": "string"
            },
            {
              "internalType": "bool",
              "name": "isTrusted",
              "type": "bool"
            },
            {
              "internalType": "bool",
              "name": "isActive",
              "type": "bool"
            },
            {
              "internalType": "address",
              "name": "referrer",
              "type": "address"
            },
            {
              "internalType": "uint256",
              "name": "referralCount",
              "type": "uint256"
            },
            {
              "internalType": "uint256",
              "name": "totalEarned",
              "type": "uint256"
            },
            {
              "internalType": "uint256",
              "name": "pendingRewards",
              "type": "uint256"
            },
            {
              "internalType": "uint256",
              "name": "joinTime",
              "type": "uint256"
            }
          ],
          "stateMutability": "view",
          "type": "function"
        },
        {
          "inputs": [
            {
              "internalType": "address",
              "name": "",
              "type": "address"
            }
          ],
          "name": "isRegistered",
          "outputs": [
            {
              "internalType": "bool",
              "name": "",
              "type": "bool"
            }
          ],
          "stateMutability": "view",
          "type": "function"
        },
        {
          "inputs": [
            {
              "internalType": "string",
              "name": "username",
              "type": "string"
            }
          ],
          "name": "isUsernameAvailable",
          "outputs": [
            {
              "internalType": "bool",
              "name": "",
              "type": "bool"
            }
          ],
          "stateMutability": "view",
          "type": "function"
        },
        {
          "inputs": [
            {
              "internalType": "address",
              "name": "user",
              "type": "address"
            }
          ],
          "name": "kickUser",
          "outputs": [],
          "stateMutability": "nonpayable",
          "type": "function"
        },
        {
          "inputs": [],
          "name": "owner",
          "outputs": [
            {
              "internalType": "address",
              "name": "",
              "type": "address"
            }
          ],
          "stateMutability": "view",
          "type": "function"
        },
        {
          "inputs": [],
          "name": "referrerMultiplier",
          "outputs": [
            {
              "internalType": "uint256",
              "name": "",
              "type": "uint256"
            }
          ],
          "stateMutability": "view",
          "type": "function"
        },
        {
          "inputs": [
            {
              "internalType": "string",
              "name": "username",
              "type": "string"
            },
            {
              "internalType": "address",
              "name": "referrer",
              "type": "address"
            }
          ],
          "name": "registerUser",
          "outputs": [],
          "stateMutability": "nonpayable",
          "type": "function"
        },
        {
          "inputs": [
            {
              "internalType": "address",
              "name": "userAddress",
              "type": "address"
            },
            {
              "internalType": "string",
              "name": "username",
              "type": "string"
            }
          ],
          "name": "registerUserByTrusted",
          "outputs": [],
          "stateMutability": "nonpayable",
          "type": "function"
        },
        {
          "inputs": [
            {
              "internalType": "address",
              "name": "user",
              "type": "address"
            }
          ],
          "name": "removeTrustedUser",
          "outputs": [],
          "stateMutability": "nonpayable",
          "type": "function"
        },
        {
          "inputs": [],
          "name": "renounceOwnership",
          "outputs": [],
          "stateMutability": "nonpayable",
          "type": "function"
        },
        {
          "inputs": [],
          "name": "toggleDistribution",
          "outputs": [],
          "stateMutability": "nonpayable",
          "type": "function"
        },
        {
          "inputs": [
            {
              "internalType": "address",
              "name": "newOwner",
              "type": "address"
            }
          ],
          "name": "transferOwnership",
          "outputs": [],
          "stateMutability": "nonpayable",
          "type": "function"
        },
        {
          "inputs": [
            {
              "internalType": "uint256",
              "name": "",
              "type": "uint256"
            }
          ],
          "name": "trustedUsers",
          "outputs": [
            {
              "internalType": "address",
              "name": "",
              "type": "address"
            }
          ],
          "stateMutability": "view",
          "type": "function"
        },
        {
          "inputs": [
            {
              "internalType": "uint256",
              "name": "newMultiplier",
              "type": "uint256"
            }
          ],
          "name": "updateReferrerMultiplier",
          "outputs": [],
          "stateMutability": "nonpayable",
          "type": "function"
        },
        {
          "inputs": [
            {
              "internalType": "uint256",
              "name": "newRate",
              "type": "uint256"
            }
          ],
          "name": "updateRewardRate",
          "outputs": [],
          "stateMutability": "nonpayable",
          "type": "function"
        },
        {
          "inputs": [
            {
              "internalType": "string",
              "name": "",
              "type": "string"
            }
          ],
          "name": "usernameToAddress",
          "outputs": [
            {
              "internalType": "address",
              "name": "",
              "type": "address"
            }
          ],
          "stateMutability": "view",
          "type": "function"
        },
        {
          "inputs": [
            {
              "internalType": "address",
              "name": "",
              "type": "address"
            }
          ],
          "name": "users",
          "outputs": [
            {
              "internalType": "string",
              "name": "username",
              "type": "string"
            },
            {
              "internalType": "bool",
              "name": "isTrusted",
              "type": "bool"
            },
            {
              "internalType": "bool",
              "name": "isActive",
              "type": "bool"
            },
            {
              "internalType": "address",
              "name": "referrer",
              "type": "address"
            },
            {
              "internalType": "uint256",
              "name": "referralCount",
              "type": "uint256"
            },
            {
              "internalType": "uint256",
              "name": "lastClaimTime",
              "type": "uint256"
            },
            {
              "internalType": "uint256",
              "name": "totalEarned",
              "type": "uint256"
            },
            {
              "internalType": "uint256",
              "name": "joinTime",
              "type": "uint256"
            }
          ],
          "stateMutability": "view",
          "type": "function"
        }
      ],
      "evm": {
        "bytecode": {
          "linkReferences": {},
          "object": "60a03461015957601f61228b38819003918201601f19168301916001600160401b0383118484101761015e5780849260409485528339810103126101595761004681610174565b906001600160a01b039061005c90602001610174565b1690811561014357600080546001600160a01b031981168417825560405193916001600160a01b03909116907f8be0079c531659141344cd1fd0a4f28419497f9722a3daafe3b4186f6b6457e09080a3600180805566038d7ea4c6800060025560966003556004805460ff191690911790556001600160a01b031690811561010157506080526040516121029081610189823960805181818161087801526114540152f35b62461bcd60e51b815260206004820152601f60248201527f42656572436f696e20616464726573732063616e6e6f74206265207a65726f006044820152606490fd5b631e4fbdf760e01b600052600060045260246000fd5b600080fd5b634e487b7160e01b600052604160045260246000fd5b51906001600160a01b03821682036101595756fe6080604052600436101561001257600080fd5b6000803560e01c8063097aad1014611a515780630e54b872146115e65780631dd5a9481461158a578063372500ab146113b457806337e03f64146113705780636386c1c7146112c2578063715018a6146112685780637863e3c0146111755780637ed8c35e14610d925780637f891c8014610cea5780638bfee820146108a75780638cd93eef146108625780638da5cb5b1461083b57806399fb15d2146108185780639be572f6146107fa5780639ef3a26114610755578063a2bdedf4146106d4578063a87430ba14610646578063af866d8714610469578063afbf34401461044b578063c3c5a5471461040c578063efae2ee6146103ee578063f1de3194146102e8578063f2fde38b14610262578063f69c6dec146101f7578063f825f1431461018d578063f97136af146101715763fdf8d2421461015157600080fd5b3461016e578060031936011261016e576020600354604051908152f35b80fd5b503461016e578060031936011261016e57602060405160648152f35b503461016e57602036600319011261016e576004359067ffffffffffffffff821161016e5760206101c13660048501611aed565b816101d56040519283815193849201611b8d565b600690820190815281900382019020546040516001600160a01b039091168152f35b503461016e57602036600319011261016e576004359067ffffffffffffffff821161016e57602061022b3660048501611aed565b8161023f6040519283815193849201611b8d565b600690820190815281900382019020546040516001600160a01b03909116158152f35b503461016e57602036600319011261016e5761027c611a7d565b6102846120a3565b6001600160a01b031680156102d45781546001600160a01b03198116821783556001600160a01b03167f8be0079c531659141344cd1fd0a4f28419497f9722a3daafe3b4186f6b6457e08380a380f35b631e4fbdf760e01b82526004829052602482fd5b503461016e57602036600319011261016e57610302611a7d565b61030a6120a3565b6001600160a01b03168082526007602052604082205461032c9060ff16612015565b808252600560205260ff600160408420015460081c16156103a95780825260056020526001604083200161ff0019815416905580825260056020527f027b6bf28c3ea625d8e992716aa9d93969a8dcb0eec48431ed006234b270d4036103a360408420604051918291602083526020830190611ca1565b0390a280f35b60405162461bcd60e51b815260206004820152601860248201527f5573657220697320616c726561647920696e61637469766500000000000000006044820152606490fd5b503461016e578060031936011261016e576020600954604051908152f35b503461016e57602036600319011261016e5760209060ff906040906001600160a01b03610437611a7d565b168152600784522054166040519015158152f35b503461016e578060031936011261016e576020600254604051908152f35b503461016e57602036600319011261016e57610483611a7d565b61048b6120a3565b6001600160a01b0316808252600760205260408220546104ad9060ff16612015565b808252600560205260ff6001604084200154161561060b57808252600560205260408220600101805460ff19169055815b6009548082101561060457826104f383611b44565b905460039190911b1c6001600160a01b03161461051357506001016104de565b60001981019081116105f0579061054761052f61056b93611b44565b905460039190911b1c6001600160a01b031691611b44565b81546001600160a01b0393841660039290921b91821b9390911b1916919091179055565b60095480156105dc576000190161058181611b44565b81549060018060a01b039060031b1b191690556009555b80825260056020527fddece651176b4d76629e735760a05157f20556fb0ae07ad54bce944723b5759f6103a360408420604051918291602083526020830190611ca1565b634e487b7160e01b83526031600452602483fd5b634e487b7160e01b84526011600452602484fd5b5050610598565b60405162461bcd60e51b8152602060048201526013602482015272155cd95c881a5cc81b9bdd081d1c9d5cdd1959606a1b6044820152606490fd5b503461016e57602036600319011261016e576040906001600160a01b0361066b611a7d565b1681526005602052206040519061068d826106868184611ca1565b0383611acb565b6106d06001820154916002810154906003810154600560048301549201549260405196879660018060a01b038160101c169160ff808360081c1692169089611bd5565b0390f35b503461016e57602036600319011261016e576004359060085482101561016e5760085482101561074157600881527ff3f7a9fe364faab93b216da50a3214154f22a0a2b415b23a84c8169e8b636ee39091015460405160039290921b1c6001600160a01b03168152602090f35b634e487b7160e01b81526032600452602490fd5b503461016e57602036600319011261016e576004356107726120a3565b80156107aa576020817f41d466ebd06fb97e7786086ac8b69b7eb7da798592036251291d34e9791cde0192600255604051908152a180f35b60405162461bcd60e51b815260206004820152602260248201527f5265776172642072617465206d7573742062652067726561746572207468616e604482015261020360f41b6064820152608490fd5b503461016e578060031936011261016e576020600854604051908152f35b503461016e578060031936011261016e57602060ff600454166040519015158152f35b503461016e578060031936011261016e57546040516001600160a01b039091168152602090f35b503461016e578060031936011261016e576040517f00000000000000000000000000000000000000000000000000000000000000006001600160a01b03168152602090f35b503461016e576108b636611c24565b338352600760205260ff60408420541680610cd1575b80610cb5575b15610c70576108e560ff60045416611e91565b6108f96001600160a01b0383161515612057565b6001600160a01b03821683526007602052604083205461091c9060ff1615611edd565b61092881511515611f29565b61095e604051825161093e818360208701611b8d565b60069082019081528190036020019020546001600160a01b031615611f75565b6001600160a01b0382163314610c2b5760405161097a81611a98565b818152836020820152600160408201523360608201528360808201524260a08201528360c08201524260e082015260018060a01b038316845260056020526040842090805180519067ffffffffffffffff8211610c17576109db8454611c67565b601f8111610bd6575b50602090601f8311600114610b6e5791806005949260e0948a92610b63575b50508160011b916000199060031b1c19161784555b60018401610a3860208301511515829060ff801983541691151516179055565b6040820151815461ff00191690151560081b61ff00161781556060820151815462010000600160b01b03191660109190911b62010000600160b01b03161790556080810151600285015560a0810151600385015560c0810151600485015501519101556001600160a01b0382168352600760209081526040808520805460ff191660011790555182519091908290610ad38183878601611b8d565b60069082019081520301902080546001600160a01b0319166001600160a01b038416179055610b0182611fba565b338352600560205260026040842001610b1a8154612006565b90557facc57e4df9c31b350a3d7e6267e5d7d16c549e68354205767ff1811d1146457c6040516020815280610b5d339560018060a01b0316946020830190611bb0565b0390a380f35b015190503880610a03565b8488528188209190601f198416895b818110610bbe575092600192859260e0966005989610610ba5575b505050811b018455610a18565b015160001960f88460031b161c19169055388080610b98565b92936020600181928786015181550195019301610b7d565b84885260208820601f840160051c810160208510610c10575b601f830160051c82018110610c055750506109e4565b898155600101610bef565b5080610bef565b634e487b7160e01b87526041600452602487fd5b60405162461bcd60e51b815260206004820152601860248201527f43616e6e6f7420726567697374657220796f757273656c6600000000000000006044820152606490fd5b60405162461bcd60e51b815260206004820152601b60248201527f4d757374206265206163746976652074727573746564207573657200000000006044820152606490fd5b50338352600560205260ff600160408520015460081c166108d2565b50338352600560205260ff6001604085200154166108cc565b503461016e57602036600319011261016e57600435610d076120a3565b60648110610d41576020817fa22d6af19c6f93cec4ca5544959e3a75e8b4416139216080171f5662a64489e992600355604051908152a180f35b60405162461bcd60e51b8152602060048201526024808201527f4d756c7469706c696572206d757374206265206174206c6561737420313030206044820152632831782960e01b6064820152608490fd5b503461016e57610da136611c24565b90610daa6120a3565b610dbe6001600160a01b0382161515612057565b610dca82511515611f29565b610de0604051835161093e818360208801611b8d565b6001600160a01b03811683526007602052604083205460ff166110b757604051610e0981611a98565b82815260016020820152600160408201528360608201528360808201524260a08201528360c08201524260e082015260018060a01b038216845260056020526040842090805180519067ffffffffffffffff8211610c1757610e6b8454611c67565b601f8111611076575b50602090601f8311600114610fe8577fe4ab0700c1b4ac7b07b68d06857075bcddc95e5875b9e25cf4316a38a79b5fcd9593836103a3969460059460e0948c92610fdd575b50508160011b916000199060031b1c19161784555b60018401610eee60208301511515829060ff801983541691151516179055565b6040820151815461ff00191690151560081b61ff00161781556060820151815462010000600160b01b03191660109190911b62010000600160b01b03161790556080810151600285015560a0810151600385015560c0810151600485015501519101556001600160a01b0381168552600760209081526040808720805460ff191660011790555185519091908290610f8981838a8601611b8d565b60069082019081520301902080546001600160a01b0319166001600160a01b038316179055610fb781611fba565b610fc081611fe1565b6040519182916020835260018060a01b0316946020830190611bb0565b015190503880610eb9565b8488528188209190601f198416895b81811061105e57508460059460e0947fe4ab0700c1b4ac7b07b68d06857075bcddc95e5875b9e25cf4316a38a79b5fcd9a98946103a39a9860019510611045575b505050811b018455610ece565b015160001960f88460031b161c19169055388080611038565b92936020600181928786015181550195019301610ff7565b84885260208820601f840160051c8101602085106110b0575b601f830160051c820181106110a5575050610e74565b89815560010161108f565b508061108f565b6001600160a01b03811683526005602052604083206001015460ff16611130576001600160a01b03811683526005602052604083206001908101805460ff191690911790557fe4ab0700c1b4ac7b07b68d06857075bcddc95e5875b9e25cf4316a38a79b5fcd906103a39061112b81611fe1565b610fc0565b60405162461bcd60e51b815260206004820152601760248201527f5573657220697320616c726561647920747275737465640000000000000000006044820152606490fd5b503461016e578060031936011261016e57600954801561124b576020906040518092818385935201600985527f6e1540171b6c0c960b71a7020d9f60077f6af931a8bbf590da0223dacf75c7af92855b8181106112295750506111da92500382611acb565b905b604051918291602083016020845282518091526020604085019301915b818110611207575050500390f35b82516001600160a01b03168452859450602093840193909201916001016111f9565b84546001600160a01b03168352600194850194869450602090930192016111c5565b5060405161125a602082611acb565b8181526000368137906111dc565b503461016e578060031936011261016e576112816120a3565b80546001600160a01b03198116825581906001600160a01b03167f8be0079c531659141344cd1fd0a4f28419497f9722a3daafe3b4186f6b6457e08280a380f35b503461016e57602036600319011261016e57611342906106d060406112e5611a7d565b6001600160a01b03811680855260076020528285205491949161130a9060ff16612015565b815260056020522060018101549260028201549061132c600484015491611d5a565b9161134960058501549460405198898092611ca1565b0388611acb565b6040519687966001600160a01b03601082901c169160ff600883901c811692169089611bd5565b503461016e57602036600319011261016e576004359060095482101561016e57602061139b83611b44565b905460405160039290921b1c6001600160a01b03168152f35b503461016e578060031936011261016e5733815260076020526113dd60ff604083205416612015565b338152600560205260ff600160408320015460081c16156115505761140660ff60045416611e91565b60026001541461154157600260015561141e33611d5a565b908115611506573381526005602052426003604083200155338152600560205260046040822001611450838254611d4d565b90557f00000000000000000000000000000000000000000000000000000000000000006001600160a01b0316803b15611502578180916044604051809481936340c10f1960e01b83523360048401528860248401525af180156114f7576114e7575b50906040519081527f896e034966eaaf1adc54acc0f257056febbd300c9e47182cf761982cf1f5e43060203392a26001805580f35b816114f191611acb565b386114b2565b6040513d84823e3d90fd5b5080fd5b60405162461bcd60e51b81526020600482015260136024820152724e6f207265776172647320746f20636c61696d60681b6044820152606490fd5b633ee5aeb560e01b8152600490fd5b60405162461bcd60e51b815260206004820152601260248201527155736572206973206e6f742061637469766560701b6044820152606490fd5b503461016e578060031936011261016e576115a36120a3565b7f23ac23f9a3d47c9cff74aa16364727d0dcedec5665b037fdfc2c171d4b352797602060045460ff8082161516809160ff1916176004556040519015158152a180f35b503461016e57604036600319011261016e5760043567ffffffffffffffff811161150257611618903690600401611aed565b906024356001600160a01b03811681036115025761163a60ff60045416611e91565b338252600760205261165360ff60408420541615611edd565b61165f83511515611f29565b611675604051845161093e818360208901611b8d565b6001600160a01b0381163314611a14576001600160a01b03811682526005602052604082206001015460ff16156119cf576001600160a01b03811682526005602052604082206001015460081c60ff161561198a57604051926116d784611a98565b8084526020840193838552604081019460018652606082019060018060a01b03851682526080830186815260a084019042825260c085019288845260e0860194428652338a52600560205260408a2096519a8b5167ffffffffffffffff8111611976576117448954611c67565b601f811161192c575b5060209c601f82116001146118bc5790808d9e6117ba949360059c9d9e9f926118b1575b50508160011b916000199060031b1c1916178a555b6117a360018b0194511515859060ff801983541691151516179055565b51835461ff00191690151560081b61ff0016178355565b51815462010000600160b01b03191660109190911b62010000600160b01b031617905551600286015551600385015551600484015551910155338352600760209081526040808520805460ff1916600117905551825190919082906118228183878601611b8d565b60069082019081520301902080546001600160a01b0319163390811790915561184a90611fba565b6001600160a01b0382168352600560205260408320600201805461186d90612006565b90557f43864134af361805265e0c6a51a53b97a54d02d4753018d0d1ef2d19a44ff602604051926020845260018060a01b03169280610b5d33946020830190611bb0565b015190503880611771565b898d528d8d209d90601f1983168e5b81811061191257509e60059b9c9d9e9f9284926117ba9695600195106118f9575b505050811b018a55611786565b015160001960f88460031b161c191690553880806118ec565b9f838301518155600101926020019f6020019f929f6118cb565b898d5260208d20601f830160051c8101916020841061196c575b601f0160051c01908d905b82811061195f57505061174d565b6001918155018d90611951565b9091508190611946565b634e487b7160e01b8c52604160045260248cfd5b60405162461bcd60e51b815260206004820152601760248201527f5265666572726572206d757374206265206163746976650000000000000000006044820152606490fd5b60405162461bcd60e51b815260206004820152601860248201527f5265666572726572206d757374206265207472757374656400000000000000006044820152606490fd5b60405162461bcd60e51b815260206004820152601560248201527421b0b73737ba103932b332b9103cb7bab939b2b63360591b6044820152606490fd5b503461016e57602036600319011261016e576020611a75611a70611a7d565b611d5a565b604051908152f35b600435906001600160a01b0382168203611a9357565b600080fd5b610100810190811067ffffffffffffffff821117611ab557604052565b634e487b7160e01b600052604160045260246000fd5b90601f8019910116810190811067ffffffffffffffff821117611ab557604052565b81601f82011215611a935780359067ffffffffffffffff8211611ab55760405192611b22601f8401601f191660200185611acb565b82845260208383010111611a9357816000926020809301838601378301015290565b600954811015611b5f57600960005260206000200190600090565b634e487b7160e01b600052603260045260246000fd5b8054821015611b5f5760005260206000200190600090565b60005b838110611ba05750506000910152565b8181015183820152602001611b90565b90602091611bc981518092818552858086019101611b8d565b601f01601f1916010190565b9491989796939092611bf460e097946101008852610100880190611bb0565b9915156020870152151560408601526001600160a01b03166060850152608084015260a083015260c08201520152565b906040600319830112611a93576004356001600160a01b0381168103611a9357916024359067ffffffffffffffff8211611a9357611c6491600401611aed565b90565b90600182811c92168015611c97575b6020831014611c8157565b634e487b7160e01b600052602260045260246000fd5b91607f1691611c76565b60009291815491611cb183611c67565b8083529260018116908115611d075750600114611ccd57505050565b60009081526020812093945091925b838310611ced575060209250010190565b600181602092949394548385870101520191019190611cdc565b915050602093945060ff929192191683830152151560051b010190565b81810292918115918404141715611d3757565b634e487b7160e01b600052601160045260246000fd5b91908201809211611d3757565b6001600160a01b031660008181526007602052604090205460ff16158015611e72575b8015611e65575b611e5f576000526005602052604060002060405190611da282611a98565b604051611dba81611db38185611ca1565b0382611acb565b8252600181015460ff81161515602084015260ff8160081c161515604084015260018060a01b039060101c1660608301526002810154916080810192835260e060056003840154938460a0850152600481015460c085015201549101524203428111611d3757600254611e2c91611d24565b815190919015611e5b57906064611e54611c6493611e4c60035485611d24565b905190611d24565b0490611d4d565b5090565b50600090565b5060ff6004541615611d84565b5080600052600560205260ff60016040600020015460081c1615611d7d565b15611e9857565b60405162461bcd60e51b815260206004820152601a60248201527f446973747269627574696f6e206973206e6f74206163746976650000000000006044820152606490fd5b15611ee457565b60405162461bcd60e51b815260206004820152601760248201527f5573657220616c726561647920726567697374657265640000000000000000006044820152606490fd5b15611f3057565b60405162461bcd60e51b815260206004820152601860248201527f557365726e616d652063616e6e6f7420626520656d70747900000000000000006044820152606490fd5b15611f7c57565b60405162461bcd60e51b81526020600482015260166024820152752ab9b2b93730b6b29030b63932b0b23c903a30b5b2b760511b6044820152606490fd5b60085490600160401b821015611ab557610547826001611fdf94016008556008611b75565b565b60095490600160401b821015611ab557610547826001611fdf94016009556009611b75565b6000198114611d375760010190565b1561201c57565b60405162461bcd60e51b8152602060048201526013602482015272155cd95c881b9bdd081c9959da5cdd195c9959606a1b6044820152606490fd5b1561205e57565b60405162461bcd60e51b815260206004820152601b60248201527f5573657220616464726573732063616e6e6f74206265207a65726f00000000006044820152606490fd5b6000546001600160a01b031633036120b757565b63118cdaa760e01b6000523360045260246000fdfea26469706673582212203bedde1ac5d347f9342b9873874ced136cff7cb2a5c3ad34a1976df7eb058b3c64736f6c634300081c0033",
          "opcodes": "PUSH1 0xA0 CALLVALUE PUSH2 0x159 JUMPI PUSH1 0x1F PUSH2 0x228B CODESIZE DUP2 SWAP1 SUB SWAP2 DUP3 ADD PUSH1 0x1F NOT AND DUP4 ADD SWAP2 PUSH1 0x1 PUSH1 0x1 PUSH1 0x40 SHL SUB DUP4 GT DUP5 DUP5 LT OR PUSH2 0x15E JUMPI DUP1 DUP5 SWAP3 PUSH1 0x40 SWAP5 DUP6 MSTORE DUP4 CODECOPY DUP2 ADD SUB SLT PUSH2 0x159 JUMPI PUSH2 0x46 DUP2 PUSH2 0x174 JUMP JUMPDEST SWAP1 PUSH1 0x1 PUSH1 0x1 PUSH1 0xA0 SHL SUB SWAP1 PUSH2 0x5C SWAP1 PUSH1 0x20 ADD PUSH2 0x174 JUMP JUMPDEST AND SWAP1 DUP2 ISZERO PUSH2 0x143 JUMPI PUSH1 0x0 DUP1 SLOAD PUSH1 0x1 PUSH1 0x1 PUSH1 0xA0 SHL SUB NOT DUP2 AND DUP5 OR DUP3 SSTORE PUSH1 0x40 MLOAD SWAP4 SWAP2 PUSH1 0x1 PUSH1 0x1 PUSH1 0xA0 SHL SUB SWAP1 SWAP2 AND SWAP1 PUSH32 0x8BE0079C531659141344CD1FD0A4F28419497F9722A3DAAFE3B4186F6B6457E0 SWAP1 DUP1 LOG3 PUSH1 0x1 DUP1 DUP1 SSTORE PUSH7 0x38D7EA4C68000 PUSH1 0x2 SSTORE PUSH1 0x96 PUSH1 0x3 SSTORE PUSH1 0x4 DUP1 SLOAD PUSH1 0xFF NOT AND SWAP1 SWAP2 OR SWAP1 SSTORE PUSH1 0x1 PUSH1 0x1 PUSH1 0xA0 SHL SUB AND SWAP1 DUP2 ISZERO PUSH2 0x101 JUMPI POP PUSH1 0x80 MSTORE PUSH1 0x40 MLOAD PUSH2 0x2102 SWAP1 DUP2 PUSH2 0x189 DUP3 CODECOPY PUSH1 0x80 MLOAD DUP2 DUP2 DUP2 PUSH2 0x878 ADD MSTORE PUSH2 0x1454 ADD MSTORE RETURN JUMPDEST PUSH3 0x461BCD PUSH1 0xE5 SHL DUP2 MSTORE PUSH1 0x20 PUSH1 0x4 DUP3 ADD MSTORE PUSH1 0x1F PUSH1 0x24 DUP3 ADD MSTORE PUSH32 0x42656572436F696E20616464726573732063616E6E6F74206265207A65726F00 PUSH1 0x44 DUP3 ADD MSTORE PUSH1 0x64 SWAP1 REVERT JUMPDEST PUSH4 0x1E4FBDF7 PUSH1 0xE0 SHL PUSH1 0x0 MSTORE PUSH1 0x0 PUSH1 0x4 MSTORE PUSH1 0x24 PUSH1 0x0 REVERT JUMPDEST PUSH1 0x0 DUP1 REVERT JUMPDEST PUSH4 0x4E487B71 PUSH1 0xE0 SHL PUSH1 0x0 MSTORE PUSH1 0x41 PUSH1 0x4 MSTORE PUSH1 0x24 PUSH1 0x0 REVERT JUMPDEST MLOAD SWAP1 PUSH1 0x1 PUSH1 0x1 PUSH1 0xA0 SHL SUB DUP3 AND DUP3 SUB PUSH2 0x159 JUMPI JUMP INVALID PUSH1 0x80 PUSH1 0x40 MSTORE PUSH1 0x4 CALLDATASIZE LT ISZERO PUSH2 0x12 JUMPI PUSH1 0x0 DUP1 REVERT JUMPDEST PUSH1 0x0 DUP1 CALLDATALOAD PUSH1 0xE0 SHR DUP1 PUSH4 0x97AAD10 EQ PUSH2 0x1A51 JUMPI DUP1 PUSH4 0xE54B872 EQ PUSH2 0x15E6 JUMPI DUP1 PUSH4 0x1DD5A948 EQ PUSH2 0x158A JUMPI DUP1 PUSH4 0x372500AB EQ PUSH2 0x13B4 JUMPI DUP1 PUSH4 0x37E03F64 EQ PUSH2 0x1370 JUMPI DUP1 PUSH4 0x6386C1C7 EQ PUSH2 0x12C2 JUMPI DUP1 PUSH4 0x715018A6 EQ PUSH2 0x1268 JUMPI DUP1 PUSH4 0x7863E3C0 EQ PUSH2 0x1175 JUMPI DUP1 PUSH4 0x7ED8C35E EQ PUSH2 0xD92 JUMPI DUP1 PUSH4 0x7F891C80 EQ PUSH2 0xCEA JUMPI DUP1 PUSH4 0x8BFEE820 EQ PUSH2 0x8A7 JUMPI DUP1 PUSH4 0x8CD93EEF EQ PUSH2 0x862 JUMPI DUP1 PUSH4 0x8DA5CB5B EQ PUSH2 0x83B JUMPI DUP1 PUSH4 0x99FB15D2 EQ PUSH2 0x818 JUMPI DUP1 PUSH4 0x9BE572F6 EQ PUSH2 0x7FA JUMPI DUP1 PUSH4 0x9EF3A261 EQ PUSH2 0x755 JUMPI DUP1 PUSH4 0xA2BDEDF4 EQ PUSH2 0x6D4 JUMPI DUP1 PUSH4 0xA87430BA EQ PUSH2 0x646 JUMPI DUP1 PUSH4 0xAF866D87 EQ PUSH2 0x469 JUMPI DUP1 PUSH4 0xAFBF3440 EQ PUSH2 0x44B JUMPI DUP1 PUSH4 0xC3C5A547 EQ PUSH2 0x40C JUMPI DUP1 PUSH4 0xEFAE2EE6 EQ PUSH2 0x3EE JUMPI DUP1 PUSH4 0xF1DE3194 EQ PUSH2 0x2E8 JUMPI DUP1 PUSH4 0xF2FDE38B EQ PUSH2 0x262 JUMPI DUP1 PUSH4 0xF69C6DEC EQ PUSH2 0x1F7 JUMPI DUP1 PUSH4 0xF825F143 EQ PUSH2 0x18D JUMPI DUP1 PUSH4 0xF97136AF EQ PUSH2 0x171 JUMPI PUSH4 0xFDF8D242 EQ PUSH2 0x151 JUMPI PUSH1 0x0 DUP1 REVERT JUMPDEST CALLVALUE PUSH2 0x16E JUMPI DUP1 PUSH1 0x3 NOT CALLDATASIZE ADD SLT PUSH2 0x16E JUMPI PUSH1 0x20 PUSH1 0x3 SLOAD PUSH1 0x40 MLOAD SWAP1 DUP2 MSTORE RETURN JUMPDEST DUP1 REVERT JUMPDEST POP CALLVALUE PUSH2 0x16E JUMPI DUP1 PUSH1 0x3 NOT CALLDATASIZE ADD SLT PUSH2 0x16E JUMPI PUSH1 0x20 PUSH1 0x40 MLOAD PUSH1 0x64 DUP2 MSTORE RETURN JUMPDEST POP CALLVALUE PUSH2 0x16E JUMPI PUSH1 0x20 CALLDATASIZE PUSH1 0x3 NOT ADD SLT PUSH2 0x16E JUMPI PUSH1 0x4 CALLDATALOAD SWAP1 PUSH8 0xFFFFFFFFFFFFFFFF DUP3 GT PUSH2 0x16E JUMPI PUSH1 0x20 PUSH2 0x1C1 CALLDATASIZE PUSH1 0x4 DUP6 ADD PUSH2 0x1AED JUMP JUMPDEST DUP2 PUSH2 0x1D5 PUSH1 0x40 MLOAD SWAP3 DUP4 DUP2 MLOAD SWAP4 DUP5 SWAP3 ADD PUSH2 0x1B8D JUMP JUMPDEST PUSH1 0x6 SWAP1 DUP3 ADD SWAP1 DUP2 MSTORE DUP2 SWAP1 SUB DUP3 ADD SWAP1 KECCAK256 SLOAD PUSH1 0x40 MLOAD PUSH1 0x1 PUSH1 0x1 PUSH1 0xA0 SHL SUB SWAP1 SWAP2 AND DUP2 MSTORE RETURN JUMPDEST POP CALLVALUE PUSH2 0x16E JUMPI PUSH1 0x20 CALLDATASIZE PUSH1 0x3 NOT ADD SLT PUSH2 0x16E JUMPI PUSH1 0x4 CALLDATALOAD SWAP1 PUSH8 0xFFFFFFFFFFFFFFFF DUP3 GT PUSH2 0x16E JUMPI PUSH1 0x20 PUSH2 0x22B CALLDATASIZE PUSH1 0x4 DUP6 ADD PUSH2 0x1AED JUMP JUMPDEST DUP2 PUSH2 0x23F PUSH1 0x40 MLOAD SWAP3 DUP4 DUP2 MLOAD SWAP4 DUP5 SWAP3 ADD PUSH2 0x1B8D JUMP JUMPDEST PUSH1 0x6 SWAP1 DUP3 ADD SWAP1 DUP2 MSTORE DUP2 SWAP1 SUB DUP3 ADD SWAP1 KECCAK256 SLOAD PUSH1 0x40 MLOAD PUSH1 0x1 PUSH1 0x1 PUSH1 0xA0 SHL SUB SWAP1 SWAP2 AND ISZERO DUP2 MSTORE RETURN JUMPDEST POP CALLVALUE PUSH2 0x16E JUMPI PUSH1 0x20 CALLDATASIZE PUSH1 0x3 NOT ADD SLT PUSH2 0x16E JUMPI PUSH2 0x27C PUSH2 0x1A7D JUMP JUMPDEST PUSH2 0x284 PUSH2 0x20A3 JUMP JUMPDEST PUSH1 0x1 PUSH1 0x1 PUSH1 0xA0 SHL SUB AND DUP1 ISZERO PUSH2 0x2D4 JUMPI DUP2 SLOAD PUSH1 0x1 PUSH1 0x1 PUSH1 0xA0 SHL SUB NOT DUP2 AND DUP3 OR DUP4 SSTORE PUSH1 0x1 PUSH1 0x1 PUSH1 0xA0 SHL SUB AND PUSH32 0x8BE0079C531659141344CD1FD0A4F28419497F9722A3DAAFE3B4186F6B6457E0 DUP4 DUP1 LOG3 DUP1 RETURN JUMPDEST PUSH4 0x1E4FBDF7 PUSH1 0xE0 SHL DUP3 MSTORE PUSH1 0x4 DUP3 SWAP1 MSTORE PUSH1 0x24 DUP3 REVERT JUMPDEST POP CALLVALUE PUSH2 0x16E JUMPI PUSH1 0x20 CALLDATASIZE PUSH1 0x3 NOT ADD SLT PUSH2 0x16E JUMPI PUSH2 0x302 PUSH2 0x1A7D JUMP JUMPDEST PUSH2 0x30A PUSH2 0x20A3 JUMP JUMPDEST PUSH1 0x1 PUSH1 0x1 PUSH1 0xA0 SHL SUB AND DUP1 DUP3 MSTORE PUSH1 0x7 PUSH1 0x20 MSTORE PUSH1 0x40 DUP3 KECCAK256 SLOAD PUSH2 0x32C SWAP1 PUSH1 0xFF AND PUSH2 0x2015 JUMP JUMPDEST DUP1 DUP3 MSTORE PUSH1 0x5 PUSH1 0x20 MSTORE PUSH1 0xFF PUSH1 0x1 PUSH1 0x40 DUP5 KECCAK256 ADD SLOAD PUSH1 0x8 SHR AND ISZERO PUSH2 0x3A9 JUMPI DUP1 DUP3 MSTORE PUSH1 0x5 PUSH1 0x20 MSTORE PUSH1 0x1 PUSH1 0x40 DUP4 KECCAK256 ADD PUSH2 0xFF00 NOT DUP2 SLOAD AND SWAP1 SSTORE DUP1 DUP3 MSTORE PUSH1 0x5 PUSH1 0x20 MSTORE PUSH32 0x27B6BF28C3EA625D8E992716AA9D93969A8DCB0EEC48431ED006234B270D403 PUSH2 0x3A3 PUSH1 0x40 DUP5 KECCAK256 PUSH1 0x40 MLOAD SWAP2 DUP3 SWAP2 PUSH1 0x20 DUP4 MSTORE PUSH1 0x20 DUP4 ADD SWAP1 PUSH2 0x1CA1 JUMP JUMPDEST SUB SWAP1 LOG2 DUP1 RETURN JUMPDEST PUSH1 0x40 MLOAD PUSH3 0x461BCD PUSH1 0xE5 SHL DUP2 MSTORE PUSH1 0x20 PUSH1 0x4 DUP3 ADD MSTORE PUSH1 0x18 PUSH1 0x24 DUP3 ADD MSTORE PUSH32 0x5573657220697320616C726561647920696E6163746976650000000000000000 PUSH1 0x44 DUP3 ADD MSTORE PUSH1 0x64 SWAP1 REVERT JUMPDEST POP CALLVALUE PUSH2 0x16E JUMPI DUP1 PUSH1 0x3 NOT CALLDATASIZE ADD SLT PUSH2 0x16E JUMPI PUSH1 0x20 PUSH1 0x9 SLOAD PUSH1 0x40 MLOAD SWAP1 DUP2 MSTORE RETURN JUMPDEST POP CALLVALUE PUSH2 0x16E JUMPI PUSH1 0x20 CALLDATASIZE PUSH1 0x3 NOT ADD SLT PUSH2 0x16E JUMPI PUSH1 0x20 SWAP1 PUSH1 0xFF SWAP1 PUSH1 0x40 SWAP1 PUSH1 0x1 PUSH1 0x1 PUSH1 0xA0 SHL SUB PUSH2 0x437 PUSH2 0x1A7D JUMP JUMPDEST AND DUP2 MSTORE PUSH1 0x7 DUP5 MSTORE KECCAK256 SLOAD AND PUSH1 0x40 MLOAD SWAP1 ISZERO ISZERO DUP2 MSTORE RETURN JUMPDEST POP CALLVALUE PUSH2 0x16E JUMPI DUP1 PUSH1 0x3 NOT CALLDATASIZE ADD SLT PUSH2 0x16E JUMPI PUSH1 0x20 PUSH1 0x2 SLOAD PUSH1 0x40 MLOAD SWAP1 DUP2 MSTORE RETURN JUMPDEST POP CALLVALUE PUSH2 0x16E JUMPI PUSH1 0x20 CALLDATASIZE PUSH1 0x3 NOT ADD SLT PUSH2 0x16E JUMPI PUSH2 0x483 PUSH2 0x1A7D JUMP JUMPDEST PUSH2 0x48B PUSH2 0x20A3 JUMP JUMPDEST PUSH1 0x1 PUSH1 0x1 PUSH1 0xA0 SHL SUB AND DUP1 DUP3 MSTORE PUSH1 0x7 PUSH1 0x20 MSTORE PUSH1 0x40 DUP3 KECCAK256 SLOAD PUSH2 0x4AD SWAP1 PUSH1 0xFF AND PUSH2 0x2015 JUMP JUMPDEST DUP1 DUP3 MSTORE PUSH1 0x5 PUSH1 0x20 MSTORE PUSH1 0xFF PUSH1 0x1 PUSH1 0x40 DUP5 KECCAK256 ADD SLOAD AND ISZERO PUSH2 0x60B JUMPI DUP1 DUP3 MSTORE PUSH1 0x5 PUSH1 0x20 MSTORE PUSH1 0x40 DUP3 KECCAK256 PUSH1 0x1 ADD DUP1 SLOAD PUSH1 0xFF NOT AND SWAP1 SSTORE DUP2 JUMPDEST PUSH1 0x9 SLOAD DUP1 DUP3 LT ISZERO PUSH2 0x604 JUMPI DUP3 PUSH2 0x4F3 DUP4 PUSH2 0x1B44 JUMP JUMPDEST SWAP1 SLOAD PUSH1 0x3 SWAP2 SWAP1 SWAP2 SHL SHR PUSH1 0x1 PUSH1 0x1 PUSH1 0xA0 SHL SUB AND EQ PUSH2 0x513 JUMPI POP PUSH1 0x1 ADD PUSH2 0x4DE JUMP JUMPDEST PUSH1 0x0 NOT DUP2 ADD SWAP1 DUP2 GT PUSH2 0x5F0 JUMPI SWAP1 PUSH2 0x547 PUSH2 0x52F PUSH2 0x56B SWAP4 PUSH2 0x1B44 JUMP JUMPDEST SWAP1 SLOAD PUSH1 0x3 SWAP2 SWAP1 SWAP2 SHL SHR PUSH1 0x1 PUSH1 0x1 PUSH1 0xA0 SHL SUB AND SWAP2 PUSH2 0x1B44 JUMP JUMPDEST DUP2 SLOAD PUSH1 0x1 PUSH1 0x1 PUSH1 0xA0 SHL SUB SWAP4 DUP5 AND PUSH1 0x3 SWAP3 SWAP1 SWAP3 SHL SWAP2 DUP3 SHL SWAP4 SWAP1 SWAP2 SHL NOT AND SWAP2 SWAP1 SWAP2 OR SWAP1 SSTORE JUMP JUMPDEST PUSH1 0x9 SLOAD DUP1 ISZERO PUSH2 0x5DC JUMPI PUSH1 0x0 NOT ADD PUSH2 0x581 DUP2 PUSH2 0x1B44 JUMP JUMPDEST DUP2 SLOAD SWAP1 PUSH1 0x1 DUP1 PUSH1 0xA0 SHL SUB SWAP1 PUSH1 0x3 SHL SHL NOT AND SWAP1 SSTORE PUSH1 0x9 SSTORE JUMPDEST DUP1 DUP3 MSTORE PUSH1 0x5 PUSH1 0x20 MSTORE PUSH32 0xDDECE651176B4D76629E735760A05157F20556FB0AE07AD54BCE944723B5759F PUSH2 0x3A3 PUSH1 0x40 DUP5 KECCAK256 PUSH1 0x40 MLOAD SWAP2 DUP3 SWAP2 PUSH1 0x20 DUP4 MSTORE PUSH1 0x20 DUP4 ADD SWAP1 PUSH2 0x1CA1 JUMP JUMPDEST PUSH4 0x4E487B71 PUSH1 0xE0 SHL DUP4 MSTORE PUSH1 0x31 PUSH1 0x4 MSTORE PUSH1 0x24 DUP4 REVERT JUMPDEST PUSH4 0x4E487B71 PUSH1 0xE0 SHL DUP5 MSTORE PUSH1 0x11 PUSH1 0x4 MSTORE PUSH1 0x24 DUP5 REVERT JUMPDEST POP POP PUSH2 0x598 JUMP JUMPDEST PUSH1 0x40 MLOAD PUSH3 0x461BCD PUSH1 0xE5 SHL DUP2 MSTORE PUSH1 0x20 PUSH1 0x4 DUP3 ADD MSTORE PUSH1 0x13 PUSH1 0x24 DUP3 ADD MSTORE PUSH19 0x155CD95C881A5CC81B9BDD081D1C9D5CDD1959 PUSH1 0x6A SHL PUSH1 0x44 DUP3 ADD MSTORE PUSH1 0x64 SWAP1 REVERT JUMPDEST POP CALLVALUE PUSH2 0x16E JUMPI PUSH1 0x20 CALLDATASIZE PUSH1 0x3 NOT ADD SLT PUSH2 0x16E JUMPI PUSH1 0x40 SWAP1 PUSH1 0x1 PUSH1 0x1 PUSH1 0xA0 SHL SUB PUSH2 0x66B PUSH2 0x1A7D JUMP JUMPDEST AND DUP2 MSTORE PUSH1 0x5 PUSH1 0x20 MSTORE KECCAK256 PUSH1 0x40 MLOAD SWAP1 PUSH2 0x68D DUP3 PUSH2 0x686 DUP2 DUP5 PUSH2 0x1CA1 JUMP JUMPDEST SUB DUP4 PUSH2 0x1ACB JUMP JUMPDEST PUSH2 0x6D0 PUSH1 0x1 DUP3 ADD SLOAD SWAP2 PUSH1 0x2 DUP2 ADD SLOAD SWAP1 PUSH1 0x3 DUP2 ADD SLOAD PUSH1 0x5 PUSH1 0x4 DUP4 ADD SLOAD SWAP3 ADD SLOAD SWAP3 PUSH1 0x40 MLOAD SWAP7 DUP8 SWAP7 PUSH1 0x1 DUP1 PUSH1 0xA0 SHL SUB DUP2 PUSH1 0x10 SHR AND SWAP2 PUSH1 0xFF DUP1 DUP4 PUSH1 0x8 SHR AND SWAP3 AND SWAP1 DUP10 PUSH2 0x1BD5 JUMP JUMPDEST SUB SWAP1 RETURN JUMPDEST POP CALLVALUE PUSH2 0x16E JUMPI PUSH1 0x20 CALLDATASIZE PUSH1 0x3 NOT ADD SLT PUSH2 0x16E JUMPI PUSH1 0x4 CALLDATALOAD SWAP1 PUSH1 0x8 SLOAD DUP3 LT ISZERO PUSH2 0x16E JUMPI PUSH1 0x8 SLOAD DUP3 LT ISZERO PUSH2 0x741 JUMPI PUSH1 0x8 DUP2 MSTORE PUSH32 0xF3F7A9FE364FAAB93B216DA50A3214154F22A0A2B415B23A84C8169E8B636EE3 SWAP1 SWAP2 ADD SLOAD PUSH1 0x40 MLOAD PUSH1 0x3 SWAP3 SWAP1 SWAP3 SHL SHR PUSH1 0x1 PUSH1 0x1 PUSH1 0xA0 SHL SUB AND DUP2 MSTORE PUSH1 0x20 SWAP1 RETURN JUMPDEST PUSH4 0x4E487B71 PUSH1 0xE0 SHL DUP2 MSTORE PUSH1 0x32 PUSH1 0x4 MSTORE PUSH1 0x24 SWAP1 REVERT JUMPDEST POP CALLVALUE PUSH2 0x16E JUMPI PUSH1 0x20 CALLDATASIZE PUSH1 0x3 NOT ADD SLT PUSH2 0x16E JUMPI PUSH1 0x4 CALLDATALOAD PUSH2 0x772 PUSH2 0x20A3 JUMP JUMPDEST DUP1 ISZERO PUSH2 0x7AA JUMPI PUSH1 0x20 DUP2 PUSH32 0x41D466EBD06FB97E7786086AC8B69B7EB7DA798592036251291D34E9791CDE01 SWAP3 PUSH1 0x2 SSTORE PUSH1 0x40 MLOAD SWAP1 DUP2 MSTORE LOG1 DUP1 RETURN JUMPDEST PUSH1 0x40 MLOAD PUSH3 0x461BCD PUSH1 0xE5 SHL DUP2 MSTORE PUSH1 0x20 PUSH1 0x4 DUP3 ADD MSTORE PUSH1 0x22 PUSH1 0x24 DUP3 ADD MSTORE PUSH32 0x5265776172642072617465206D7573742062652067726561746572207468616E PUSH1 0x44 DUP3 ADD MSTORE PUSH2 0x203 PUSH1 0xF4 SHL PUSH1 0x64 DUP3 ADD MSTORE PUSH1 0x84 SWAP1 REVERT JUMPDEST POP CALLVALUE PUSH2 0x16E JUMPI DUP1 PUSH1 0x3 NOT CALLDATASIZE ADD SLT PUSH2 0x16E JUMPI PUSH1 0x20 PUSH1 0x8 SLOAD PUSH1 0x40 MLOAD SWAP1 DUP2 MSTORE RETURN JUMPDEST POP CALLVALUE PUSH2 0x16E JUMPI DUP1 PUSH1 0x3 NOT CALLDATASIZE ADD SLT PUSH2 0x16E JUMPI PUSH1 0x20 PUSH1 0xFF PUSH1 0x4 SLOAD AND PUSH1 0x40 MLOAD SWAP1 ISZERO ISZERO DUP2 MSTORE RETURN JUMPDEST POP CALLVALUE PUSH2 0x16E JUMPI DUP1 PUSH1 0x3 NOT CALLDATASIZE ADD SLT PUSH2 0x16E JUMPI SLOAD PUSH1 0x40 MLOAD PUSH1 0x1 PUSH1 0x1 PUSH1 0xA0 SHL SUB SWAP1 SWAP2 AND DUP2 MSTORE PUSH1 0x20 SWAP1 RETURN JUMPDEST POP CALLVALUE PUSH2 0x16E JUMPI DUP1 PUSH1 0x3 NOT CALLDATASIZE ADD SLT PUSH2 0x16E JUMPI PUSH1 0x40 MLOAD PUSH32 0x0 PUSH1 0x1 PUSH1 0x1 PUSH1 0xA0 SHL SUB AND DUP2 MSTORE PUSH1 0x20 SWAP1 RETURN JUMPDEST POP CALLVALUE PUSH2 0x16E JUMPI PUSH2 0x8B6 CALLDATASIZE PUSH2 0x1C24 JUMP JUMPDEST CALLER DUP4 MSTORE PUSH1 0x7 PUSH1 0x20 MSTORE PUSH1 0xFF PUSH1 0x40 DUP5 KECCAK256 SLOAD AND DUP1 PUSH2 0xCD1 JUMPI JUMPDEST DUP1 PUSH2 0xCB5 JUMPI JUMPDEST ISZERO PUSH2 0xC70 JUMPI PUSH2 0x8E5 PUSH1 0xFF PUSH1 0x4 SLOAD AND PUSH2 0x1E91 JUMP JUMPDEST PUSH2 0x8F9 PUSH1 0x1 PUSH1 0x1 PUSH1 0xA0 SHL SUB DUP4 AND ISZERO ISZERO PUSH2 0x2057 JUMP JUMPDEST PUSH1 0x1 PUSH1 0x1 PUSH1 0xA0 SHL SUB DUP3 AND DUP4 MSTORE PUSH1 0x7 PUSH1 0x20 MSTORE PUSH1 0x40 DUP4 KECCAK256 SLOAD PUSH2 0x91C SWAP1 PUSH1 0xFF AND ISZERO PUSH2 0x1EDD JUMP JUMPDEST PUSH2 0x928 DUP2 MLOAD ISZERO ISZERO PUSH2 0x1F29 JUMP JUMPDEST PUSH2 0x95E PUSH1 0x40 MLOAD DUP3 MLOAD PUSH2 0x93E DUP2 DUP4 PUSH1 0x20 DUP8 ADD PUSH2 0x1B8D JUMP JUMPDEST PUSH1 0x6 SWAP1 DUP3 ADD SWAP1 DUP2 MSTORE DUP2 SWAP1 SUB PUSH1 0x20 ADD SWAP1 KECCAK256 SLOAD PUSH1 0x1 PUSH1 0x1 PUSH1 0xA0 SHL SUB AND ISZERO PUSH2 0x1F75 JUMP JUMPDEST PUSH1 0x1 PUSH1 0x1 PUSH1 0xA0 SHL SUB DUP3 AND CALLER EQ PUSH2 0xC2B JUMPI PUSH1 0x40 MLOAD PUSH2 0x97A DUP2 PUSH2 0x1A98 JUMP JUMPDEST DUP2 DUP2 MSTORE DUP4 PUSH1 0x20 DUP3 ADD MSTORE PUSH1 0x1 PUSH1 0x40 DUP3 ADD MSTORE CALLER PUSH1 0x60 DUP3 ADD MSTORE DUP4 PUSH1 0x80 DUP3 ADD MSTORE TIMESTAMP PUSH1 0xA0 DUP3 ADD MSTORE DUP4 PUSH1 0xC0 DUP3 ADD MSTORE TIMESTAMP PUSH1 0xE0 DUP3 ADD MSTORE PUSH1 0x1 DUP1 PUSH1 0xA0 SHL SUB DUP4 AND DUP5 MSTORE PUSH1 0x5 PUSH1 0x20 MSTORE PUSH1 0x40 DUP5 KECCAK256 SWAP1 DUP1 MLOAD DUP1 MLOAD SWAP1 PUSH8 0xFFFFFFFFFFFFFFFF DUP3 GT PUSH2 0xC17 JUMPI PUSH2 0x9DB DUP5 SLOAD PUSH2 0x1C67 JUMP JUMPDEST PUSH1 0x1F DUP2 GT PUSH2 0xBD6 JUMPI JUMPDEST POP PUSH1 0x20 SWAP1 PUSH1 0x1F DUP4 GT PUSH1 0x1 EQ PUSH2 0xB6E JUMPI SWAP2 DUP1 PUSH1 0x5 SWAP5 SWAP3 PUSH1 0xE0 SWAP5 DUP11 SWAP3 PUSH2 0xB63 JUMPI JUMPDEST POP POP DUP2 PUSH1 0x1 SHL SWAP2 PUSH1 0x0 NOT SWAP1 PUSH1 0x3 SHL SHR NOT AND OR DUP5 SSTORE JUMPDEST PUSH1 0x1 DUP5 ADD PUSH2 0xA38 PUSH1 0x20 DUP4 ADD MLOAD ISZERO ISZERO DUP3 SWAP1 PUSH1 0xFF DUP1 NOT DUP4 SLOAD AND SWAP2 ISZERO ISZERO AND OR SWAP1 SSTORE JUMP JUMPDEST PUSH1 0x40 DUP3 ADD MLOAD DUP2 SLOAD PUSH2 0xFF00 NOT AND SWAP1 ISZERO ISZERO PUSH1 0x8 SHL PUSH2 0xFF00 AND OR DUP2 SSTORE PUSH1 0x60 DUP3 ADD MLOAD DUP2 SLOAD PUSH3 0x10000 PUSH1 0x1 PUSH1 0xB0 SHL SUB NOT AND PUSH1 0x10 SWAP2 SWAP1 SWAP2 SHL PUSH3 0x10000 PUSH1 0x1 PUSH1 0xB0 SHL SUB AND OR SWAP1 SSTORE PUSH1 0x80 DUP2 ADD MLOAD PUSH1 0x2 DUP6 ADD SSTORE PUSH1 0xA0 DUP2 ADD MLOAD PUSH1 0x3 DUP6 ADD SSTORE PUSH1 0xC0 DUP2 ADD MLOAD PUSH1 0x4 DUP6 ADD SSTORE ADD MLOAD SWAP2 ADD SSTORE PUSH1 0x1 PUSH1 0x1 PUSH1 0xA0 SHL SUB DUP3 AND DUP4 MSTORE PUSH1 0x7 PUSH1 0x20 SWAP1 DUP2 MSTORE PUSH1 0x40 DUP1 DUP6 KECCAK256 DUP1 SLOAD PUSH1 0xFF NOT AND PUSH1 0x1 OR SWAP1 SSTORE MLOAD DUP3 MLOAD SWAP1 SWAP2 SWAP1 DUP3 SWAP1 PUSH2 0xAD3 DUP2 DUP4 DUP8 DUP7 ADD PUSH2 0x1B8D JUMP JUMPDEST PUSH1 0x6 SWAP1 DUP3 ADD SWAP1 DUP2 MSTORE SUB ADD SWAP1 KECCAK256 DUP1 SLOAD PUSH1 0x1 PUSH1 0x1 PUSH1 0xA0 SHL SUB NOT AND PUSH1 0x1 PUSH1 0x1 PUSH1 0xA0 SHL SUB DUP5 AND OR SWAP1 SSTORE PUSH2 0xB01 DUP3 PUSH2 0x1FBA JUMP JUMPDEST CALLER DUP4 MSTORE PUSH1 0x5 PUSH1 0x20 MSTORE PUSH1 0x2 PUSH1 0x40 DUP5 KECCAK256 ADD PUSH2 0xB1A DUP2 SLOAD PUSH2 0x2006 JUMP JUMPDEST SWAP1 SSTORE PUSH32 0xACC57E4DF9C31B350A3D7E6267E5D7D16C549E68354205767FF1811D1146457C PUSH1 0x40 MLOAD PUSH1 0x20 DUP2 MSTORE DUP1 PUSH2 0xB5D CALLER SWAP6 PUSH1 0x1 DUP1 PUSH1 0xA0 SHL SUB AND SWAP5 PUSH1 0x20 DUP4 ADD SWAP1 PUSH2 0x1BB0 JUMP JUMPDEST SUB SWAP1 LOG3 DUP1 RETURN JUMPDEST ADD MLOAD SWAP1 POP CODESIZE DUP1 PUSH2 0xA03 JUMP JUMPDEST DUP5 DUP9 MSTORE DUP2 DUP9 KECCAK256 SWAP2 SWAP1 PUSH1 0x1F NOT DUP5 AND DUP10 JUMPDEST DUP2 DUP2 LT PUSH2 0xBBE JUMPI POP SWAP3 PUSH1 0x1 SWAP3 DUP6 SWAP3 PUSH1 0xE0 SWAP7 PUSH1 0x5 SWAP9 SWAP7 LT PUSH2 0xBA5 JUMPI JUMPDEST POP POP POP DUP2 SHL ADD DUP5 SSTORE PUSH2 0xA18 JUMP JUMPDEST ADD MLOAD PUSH1 0x0 NOT PUSH1 0xF8 DUP5 PUSH1 0x3 SHL AND SHR NOT AND SWAP1 SSTORE CODESIZE DUP1 DUP1 PUSH2 0xB98 JUMP JUMPDEST SWAP3 SWAP4 PUSH1 0x20 PUSH1 0x1 DUP2 SWAP3 DUP8 DUP7 ADD MLOAD DUP2 SSTORE ADD SWAP6 ADD SWAP4 ADD PUSH2 0xB7D JUMP JUMPDEST DUP5 DUP9 MSTORE PUSH1 0x20 DUP9 KECCAK256 PUSH1 0x1F DUP5 ADD PUSH1 0x5 SHR DUP2 ADD PUSH1 0x20 DUP6 LT PUSH2 0xC10 JUMPI JUMPDEST PUSH1 0x1F DUP4 ADD PUSH1 0x5 SHR DUP3 ADD DUP2 LT PUSH2 0xC05 JUMPI POP POP PUSH2 0x9E4 JUMP JUMPDEST DUP10 DUP2 SSTORE PUSH1 0x1 ADD PUSH2 0xBEF JUMP JUMPDEST POP DUP1 PUSH2 0xBEF JUMP JUMPDEST PUSH4 0x4E487B71 PUSH1 0xE0 SHL DUP8 MSTORE PUSH1 0x41 PUSH1 0x4 MSTORE PUSH1 0x24 DUP8 REVERT JUMPDEST PUSH1 0x40 MLOAD PUSH3 0x461BCD PUSH1 0xE5 SHL DUP2 MSTORE PUSH1 0x20 PUSH1 0x4 DUP3 ADD MSTORE PUSH1 0x18 PUSH1 0x24 DUP3 ADD MSTORE PUSH32 0x43616E6E6F7420726567697374657220796F757273656C660000000000000000 PUSH1 0x44 DUP3 ADD MSTORE PUSH1 0x64 SWAP1 REVERT JUMPDEST PUSH1 0x40 MLOAD PUSH3 0x461BCD PUSH1 0xE5 SHL DUP2 MSTORE PUSH1 0x20 PUSH1 0x4 DUP3 ADD MSTORE PUSH1 0x1B PUSH1 0x24 DUP3 ADD MSTORE PUSH32 0x4D75737420626520616374697665207472757374656420757365720000000000 PUSH1 0x44 DUP3 ADD MSTORE PUSH1 0x64 SWAP1 REVERT JUMPDEST POP CALLER DUP4 MSTORE PUSH1 0x5 PUSH1 0x20 MSTORE PUSH1 0xFF PUSH1 0x1 PUSH1 0x40 DUP6 KECCAK256 ADD SLOAD PUSH1 0x8 SHR AND PUSH2 0x8D2 JUMP JUMPDEST POP CALLER DUP4 MSTORE PUSH1 0x5 PUSH1 0x20 MSTORE PUSH1 0xFF PUSH1 0x1 PUSH1 0x40 DUP6 KECCAK256 ADD SLOAD AND PUSH2 0x8CC JUMP JUMPDEST POP CALLVALUE PUSH2 0x16E JUMPI PUSH1 0x20 CALLDATASIZE PUSH1 0x3 NOT ADD SLT PUSH2 0x16E JUMPI PUSH1 0x4 CALLDATALOAD PUSH2 0xD07 PUSH2 0x20A3 JUMP JUMPDEST PUSH1 0x64 DUP2 LT PUSH2 0xD41 JUMPI PUSH1 0x20 DUP2 PUSH32 0xA22D6AF19C6F93CEC4CA5544959E3A75E8B4416139216080171F5662A64489E9 SWAP3 PUSH1 0x3 SSTORE PUSH1 0x40 MLOAD SWAP1 DUP2 MSTORE LOG1 DUP1 RETURN JUMPDEST PUSH1 0x40 MLOAD PUSH3 0x461BCD PUSH1 0xE5 SHL DUP2 MSTORE PUSH1 0x20 PUSH1 0x4 DUP3 ADD MSTORE PUSH1 0x24 DUP1 DUP3 ADD MSTORE PUSH32 0x4D756C7469706C696572206D757374206265206174206C656173742031303020 PUSH1 0x44 DUP3 ADD MSTORE PUSH4 0x28317829 PUSH1 0xE0 SHL PUSH1 0x64 DUP3 ADD MSTORE PUSH1 0x84 SWAP1 REVERT JUMPDEST POP CALLVALUE PUSH2 0x16E JUMPI PUSH2 0xDA1 CALLDATASIZE PUSH2 0x1C24 JUMP JUMPDEST SWAP1 PUSH2 0xDAA PUSH2 0x20A3 JUMP JUMPDEST PUSH2 0xDBE PUSH1 0x1 PUSH1 0x1 PUSH1 0xA0 SHL SUB DUP3 AND ISZERO ISZERO PUSH2 0x2057 JUMP JUMPDEST PUSH2 0xDCA DUP3 MLOAD ISZERO ISZERO PUSH2 0x1F29 JUMP JUMPDEST PUSH2 0xDE0 PUSH1 0x40 MLOAD DUP4 MLOAD PUSH2 0x93E DUP2 DUP4 PUSH1 0x20 DUP9 ADD PUSH2 0x1B8D JUMP JUMPDEST PUSH1 0x1 PUSH1 0x1 PUSH1 0xA0 SHL SUB DUP2 AND DUP4 MSTORE PUSH1 0x7 PUSH1 0x20 MSTORE PUSH1 0x40 DUP4 KECCAK256 SLOAD PUSH1 0xFF AND PUSH2 0x10B7 JUMPI PUSH1 0x40 MLOAD PUSH2 0xE09 DUP2 PUSH2 0x1A98 JUMP JUMPDEST DUP3 DUP2 MSTORE PUSH1 0x1 PUSH1 0x20 DUP3 ADD MSTORE PUSH1 0x1 PUSH1 0x40 DUP3 ADD MSTORE DUP4 PUSH1 0x60 DUP3 ADD MSTORE DUP4 PUSH1 0x80 DUP3 ADD MSTORE TIMESTAMP PUSH1 0xA0 DUP3 ADD MSTORE DUP4 PUSH1 0xC0 DUP3 ADD MSTORE TIMESTAMP PUSH1 0xE0 DUP3 ADD MSTORE PUSH1 0x1 DUP1 PUSH1 0xA0 SHL SUB DUP3 AND DUP5 MSTORE PUSH1 0x5 PUSH1 0x20 MSTORE PUSH1 0x40 DUP5 KECCAK256 SWAP1 DUP1 MLOAD DUP1 MLOAD SWAP1 PUSH8 0xFFFFFFFFFFFFFFFF DUP3 GT PUSH2 0xC17 JUMPI PUSH2 0xE6B DUP5 SLOAD PUSH2 0x1C67 JUMP JUMPDEST PUSH1 0x1F DUP2 GT PUSH2 0x1076 JUMPI JUMPDEST POP PUSH1 0x20 SWAP1 PUSH1 0x1F DUP4 GT PUSH1 0x1 EQ PUSH2 0xFE8 JUMPI PUSH32 0xE4AB0700C1B4AC7B07B68D06857075BCDDC95E5875B9E25CF4316A38A79B5FCD SWAP6 SWAP4 DUP4 PUSH2 0x3A3 SWAP7 SWAP5 PUSH1 0x5 SWAP5 PUSH1 0xE0 SWAP5 DUP13 SWAP3 PUSH2 0xFDD JUMPI JUMPDEST POP POP DUP2 PUSH1 0x1 SHL SWAP2 PUSH1 0x0 NOT SWAP1 PUSH1 0x3 SHL SHR NOT AND OR DUP5 SSTORE JUMPDEST PUSH1 0x1 DUP5 ADD PUSH2 0xEEE PUSH1 0x20 DUP4 ADD MLOAD ISZERO ISZERO DUP3 SWAP1 PUSH1 0xFF DUP1 NOT DUP4 SLOAD AND SWAP2 ISZERO ISZERO AND OR SWAP1 SSTORE JUMP JUMPDEST PUSH1 0x40 DUP3 ADD MLOAD DUP2 SLOAD PUSH2 0xFF00 NOT AND SWAP1 ISZERO ISZERO PUSH1 0x8 SHL PUSH2 0xFF00 AND OR DUP2 SSTORE PUSH1 0x60 DUP3 ADD MLOAD DUP2 SLOAD PUSH3 0x10000 PUSH1 0x1 PUSH1 0xB0 SHL SUB NOT AND PUSH1 0x10 SWAP2 SWAP1 SWAP2 SHL PUSH3 0x10000 PUSH1 0x1 PUSH1 0xB0 SHL SUB AND OR SWAP1 SSTORE PUSH1 0x80 DUP2 ADD MLOAD PUSH1 0x2 DUP6 ADD SSTORE PUSH1 0xA0 DUP2 ADD MLOAD PUSH1 0x3 DUP6 ADD SSTORE PUSH1 0xC0 DUP2 ADD MLOAD PUSH1 0x4 DUP6 ADD SSTORE ADD MLOAD SWAP2 ADD SSTORE PUSH1 0x1 PUSH1 0x1 PUSH1 0xA0 SHL SUB DUP2 AND DUP6 MSTORE PUSH1 0x7 PUSH1 0x20 SWAP1 DUP2 MSTORE PUSH1 0x40 DUP1 DUP8 KECCAK256 DUP1 SLOAD PUSH1 0xFF NOT AND PUSH1 0x1 OR SWAP1 SSTORE MLOAD DUP6 MLOAD SWAP1 SWAP2 SWAP1 DUP3 SWAP1 PUSH2 0xF89 DUP2 DUP4 DUP11 DUP7 ADD PUSH2 0x1B8D JUMP JUMPDEST PUSH1 0x6 SWAP1 DUP3 ADD SWAP1 DUP2 MSTORE SUB ADD SWAP1 KECCAK256 DUP1 SLOAD PUSH1 0x1 PUSH1 0x1 PUSH1 0xA0 SHL SUB NOT AND PUSH1 0x1 PUSH1 0x1 PUSH1 0xA0 SHL SUB DUP4 AND OR SWAP1 SSTORE PUSH2 0xFB7 DUP2 PUSH2 0x1FBA JUMP JUMPDEST PUSH2 0xFC0 DUP2 PUSH2 0x1FE1 JUMP JUMPDEST PUSH1 0x40 MLOAD SWAP2 DUP3 SWAP2 PUSH1 0x20 DUP4 MSTORE PUSH1 0x1 DUP1 PUSH1 0xA0 SHL SUB AND SWAP5 PUSH1 0x20 DUP4 ADD SWAP1 PUSH2 0x1BB0 JUMP JUMPDEST ADD MLOAD SWAP1 POP CODESIZE DUP1 PUSH2 0xEB9 JUMP JUMPDEST DUP5 DUP9 MSTORE DUP2 DUP9 KECCAK256 SWAP2 SWAP1 PUSH1 0x1F NOT DUP5 AND DUP10 JUMPDEST DUP2 DUP2 LT PUSH2 0x105E JUMPI POP DUP5 PUSH1 0x5 SWAP5 PUSH1 0xE0 SWAP5 PUSH32 0xE4AB0700C1B4AC7B07B68D06857075BCDDC95E5875B9E25CF4316A38A79B5FCD SWAP11 SWAP9 SWAP5 PUSH2 0x3A3 SWAP11 SWAP9 PUSH1 0x1 SWAP6 LT PUSH2 0x1045 JUMPI JUMPDEST POP POP POP DUP2 SHL ADD DUP5 SSTORE PUSH2 0xECE JUMP JUMPDEST ADD MLOAD PUSH1 0x0 NOT PUSH1 0xF8 DUP5 PUSH1 0x3 SHL AND SHR NOT AND SWAP1 SSTORE CODESIZE DUP1 DUP1 PUSH2 0x1038 JUMP JUMPDEST SWAP3 SWAP4 PUSH1 0x20 PUSH1 0x1 DUP2 SWAP3 DUP8 DUP7 ADD MLOAD DUP2 SSTORE ADD SWAP6 ADD SWAP4 ADD PUSH2 0xFF7 JUMP JUMPDEST DUP5 DUP9 MSTORE PUSH1 0x20 DUP9 KECCAK256 PUSH1 0x1F DUP5 ADD PUSH1 0x5 SHR DUP2 ADD PUSH1 0x20 DUP6 LT PUSH2 0x10B0 JUMPI JUMPDEST PUSH1 0x1F DUP4 ADD PUSH1 0x5 SHR DUP3 ADD DUP2 LT PUSH2 0x10A5 JUMPI POP POP PUSH2 0xE74 JUMP JUMPDEST DUP10 DUP2 SSTORE PUSH1 0x1 ADD PUSH2 0x108F JUMP JUMPDEST POP DUP1 PUSH2 0x108F JUMP JUMPDEST PUSH1 0x1 PUSH1 0x1 PUSH1 0xA0 SHL SUB DUP2 AND DUP4 MSTORE PUSH1 0x5 PUSH1 0x20 MSTORE PUSH1 0x40 DUP4 KECCAK256 PUSH1 0x1 ADD SLOAD PUSH1 0xFF AND PUSH2 0x1130 JUMPI PUSH1 0x1 PUSH1 0x1 PUSH1 0xA0 SHL SUB DUP2 AND DUP4 MSTORE PUSH1 0x5 PUSH1 0x20 MSTORE PUSH1 0x40 DUP4 KECCAK256 PUSH1 0x1 SWAP1 DUP2 ADD DUP1 SLOAD PUSH1 0xFF NOT AND SWAP1 SWAP2 OR SWAP1 SSTORE PUSH32 0xE4AB0700C1B4AC7B07B68D06857075BCDDC95E5875B9E25CF4316A38A79B5FCD SWAP1 PUSH2 0x3A3 SWAP1 PUSH2 0x112B DUP2 PUSH2 0x1FE1 JUMP JUMPDEST PUSH2 0xFC0 JUMP JUMPDEST PUSH1 0x40 MLOAD PUSH3 0x461BCD PUSH1 0xE5 SHL DUP2 MSTORE PUSH1 0x20 PUSH1 0x4 DUP3 ADD MSTORE PUSH1 0x17 PUSH1 0x24 DUP3 ADD MSTORE PUSH32 0x5573657220697320616C72656164792074727573746564000000000000000000 PUSH1 0x44 DUP3 ADD MSTORE PUSH1 0x64 SWAP1 REVERT JUMPDEST POP CALLVALUE PUSH2 0x16E JUMPI DUP1 PUSH1 0x3 NOT CALLDATASIZE ADD SLT PUSH2 0x16E JUMPI PUSH1 0x9 SLOAD DUP1 ISZERO PUSH2 0x124B JUMPI PUSH1 0x20 SWAP1 PUSH1 0x40 MLOAD DUP1 SWAP3 DUP2 DUP4 DUP6 SWAP4 MSTORE ADD PUSH1 0x9 DUP6 MSTORE PUSH32 0x6E1540171B6C0C960B71A7020D9F60077F6AF931A8BBF590DA0223DACF75C7AF SWAP3 DUP6 JUMPDEST DUP2 DUP2 LT PUSH2 0x1229 JUMPI POP POP PUSH2 0x11DA SWAP3 POP SUB DUP3 PUSH2 0x1ACB JUMP JUMPDEST SWAP1 JUMPDEST PUSH1 0x40 MLOAD SWAP2 DUP3 SWAP2 PUSH1 0x20 DUP4 ADD PUSH1 0x20 DUP5 MSTORE DUP3 MLOAD DUP1 SWAP2 MSTORE PUSH1 0x20 PUSH1 0x40 DUP6 ADD SWAP4 ADD SWAP2 JUMPDEST DUP2 DUP2 LT PUSH2 0x1207 JUMPI POP POP POP SUB SWAP1 RETURN JUMPDEST DUP3 MLOAD PUSH1 0x1 PUSH1 0x1 PUSH1 0xA0 SHL SUB AND DUP5 MSTORE DUP6 SWAP5 POP PUSH1 0x20 SWAP4 DUP5 ADD SWAP4 SWAP1 SWAP3 ADD SWAP2 PUSH1 0x1 ADD PUSH2 0x11F9 JUMP JUMPDEST DUP5 SLOAD PUSH1 0x1 PUSH1 0x1 PUSH1 0xA0 SHL SUB AND DUP4 MSTORE PUSH1 0x1 SWAP5 DUP6 ADD SWAP5 DUP7 SWAP5 POP PUSH1 0x20 SWAP1 SWAP4 ADD SWAP3 ADD PUSH2 0x11C5 JUMP JUMPDEST POP PUSH1 0x40 MLOAD PUSH2 0x125A PUSH1 0x20 DUP3 PUSH2 0x1ACB JUMP JUMPDEST DUP2 DUP2 MSTORE PUSH1 0x0 CALLDATASIZE DUP2 CALLDATACOPY SWAP1 PUSH2 0x11DC JUMP JUMPDEST POP CALLVALUE PUSH2 0x16E JUMPI DUP1 PUSH1 0x3 NOT CALLDATASIZE ADD SLT PUSH2 0x16E JUMPI PUSH2 0x1281 PUSH2 0x20A3 JUMP JUMPDEST DUP1 SLOAD PUSH1 0x1 PUSH1 0x1 PUSH1 0xA0 SHL SUB NOT DUP2 AND DUP3 SSTORE DUP2 SWAP1 PUSH1 0x1 PUSH1 0x1 PUSH1 0xA0 SHL SUB AND PUSH32 0x8BE0079C531659141344CD1FD0A4F28419497F9722A3DAAFE3B4186F6B6457E0 DUP3 DUP1 LOG3 DUP1 RETURN JUMPDEST POP CALLVALUE PUSH2 0x16E JUMPI PUSH1 0x20 CALLDATASIZE PUSH1 0x3 NOT ADD SLT PUSH2 0x16E JUMPI PUSH2 0x1342 SWAP1 PUSH2 0x6D0 PUSH1 0x40 PUSH2 0x12E5 PUSH2 0x1A7D JUMP JUMPDEST PUSH1 0x1 PUSH1 0x1 PUSH1 0xA0 SHL SUB DUP2 AND DUP1 DUP6 MSTORE PUSH1 0x7 PUSH1 0x20 MSTORE DUP3 DUP6 KECCAK256 SLOAD SWAP2 SWAP5 SWAP2 PUSH2 0x130A SWAP1 PUSH1 0xFF AND PUSH2 0x2015 JUMP JUMPDEST DUP2 MSTORE PUSH1 0x5 PUSH1 0x20 MSTORE KECCAK256 PUSH1 0x1 DUP2 ADD SLOAD SWAP3 PUSH1 0x2 DUP3 ADD SLOAD SWAP1 PUSH2 0x132C PUSH1 0x4 DUP5 ADD SLOAD SWAP2 PUSH2 0x1D5A JUMP JUMPDEST SWAP2 PUSH2 0x1349 PUSH1 0x5 DUP6 ADD SLOAD SWAP5 PUSH1 0x40 MLOAD SWAP9 DUP10 DUP1 SWAP3 PUSH2 0x1CA1 JUMP JUMPDEST SUB DUP9 PUSH2 0x1ACB JUMP JUMPDEST PUSH1 0x40 MLOAD SWAP7 DUP8 SWAP7 PUSH1 0x1 PUSH1 0x1 PUSH1 0xA0 SHL SUB PUSH1 0x10 DUP3 SWAP1 SHR AND SWAP2 PUSH1 0xFF PUSH1 0x8 DUP4 SWAP1 SHR DUP2 AND SWAP3 AND SWAP1 DUP10 PUSH2 0x1BD5 JUMP JUMPDEST POP CALLVALUE PUSH2 0x16E JUMPI PUSH1 0x20 CALLDATASIZE PUSH1 0x3 NOT ADD SLT PUSH2 0x16E JUMPI PUSH1 0x4 CALLDATALOAD SWAP1 PUSH1 0x9 SLOAD DUP3 LT ISZERO PUSH2 0x16E JUMPI PUSH1 0x20 PUSH2 0x139B DUP4 PUSH2 0x1B44 JUMP JUMPDEST SWAP1 SLOAD PUSH1 0x40 MLOAD PUSH1 0x3 SWAP3 SWAP1 SWAP3 SHL SHR PUSH1 0x1 PUSH1 0x1 PUSH1 0xA0 SHL SUB AND DUP2 MSTORE RETURN JUMPDEST POP CALLVALUE PUSH2 0x16E JUMPI DUP1 PUSH1 0x3 NOT CALLDATASIZE ADD SLT PUSH2 0x16E JUMPI CALLER DUP2 MSTORE PUSH1 0x7 PUSH1 0x20 MSTORE PUSH2 0x13DD PUSH1 0xFF PUSH1 0x40 DUP4 KECCAK256 SLOAD AND PUSH2 0x2015 JUMP JUMPDEST CALLER DUP2 MSTORE PUSH1 0x5 PUSH1 0x20 MSTORE PUSH1 0xFF PUSH1 0x1 PUSH1 0x40 DUP4 KECCAK256 ADD SLOAD PUSH1 0x8 SHR AND ISZERO PUSH2 0x1550 JUMPI PUSH2 0x1406 PUSH1 0xFF PUSH1 0x4 SLOAD AND PUSH2 0x1E91 JUMP JUMPDEST PUSH1 0x2 PUSH1 0x1 SLOAD EQ PUSH2 0x1541 JUMPI PUSH1 0x2 PUSH1 0x1 SSTORE PUSH2 0x141E CALLER PUSH2 0x1D5A JUMP JUMPDEST SWAP1 DUP2 ISZERO PUSH2 0x1506 JUMPI CALLER DUP2 MSTORE PUSH1 0x5 PUSH1 0x20 MSTORE TIMESTAMP PUSH1 0x3 PUSH1 0x40 DUP4 KECCAK256 ADD SSTORE CALLER DUP2 MSTORE PUSH1 0x5 PUSH1 0x20 MSTORE PUSH1 0x4 PUSH1 0x40 DUP3 KECCAK256 ADD PUSH2 0x1450 DUP4 DUP3 SLOAD PUSH2 0x1D4D JUMP JUMPDEST SWAP1 SSTORE PUSH32 0x0 PUSH1 0x1 PUSH1 0x1 PUSH1 0xA0 SHL SUB AND DUP1 EXTCODESIZE ISZERO PUSH2 0x1502 JUMPI DUP2 DUP1 SWAP2 PUSH1 0x44 PUSH1 0x40 MLOAD DUP1 SWAP5 DUP2 SWAP4 PUSH4 0x40C10F19 PUSH1 0xE0 SHL DUP4 MSTORE CALLER PUSH1 0x4 DUP5 ADD MSTORE DUP9 PUSH1 0x24 DUP5 ADD MSTORE GAS CALL DUP1 ISZERO PUSH2 0x14F7 JUMPI PUSH2 0x14E7 JUMPI JUMPDEST POP SWAP1 PUSH1 0x40 MLOAD SWAP1 DUP2 MSTORE PUSH32 0x896E034966EAAF1ADC54ACC0F257056FEBBD300C9E47182CF761982CF1F5E430 PUSH1 0x20 CALLER SWAP3 LOG2 PUSH1 0x1 DUP1 SSTORE DUP1 RETURN JUMPDEST DUP2 PUSH2 0x14F1 SWAP2 PUSH2 0x1ACB JUMP JUMPDEST CODESIZE PUSH2 0x14B2 JUMP JUMPDEST PUSH1 0x40 MLOAD RETURNDATASIZE DUP5 DUP3 RETURNDATACOPY RETURNDATASIZE SWAP1 REVERT JUMPDEST POP DUP1 REVERT JUMPDEST PUSH1 0x40 MLOAD PUSH3 0x461BCD PUSH1 0xE5 SHL DUP2 MSTORE PUSH1 0x20 PUSH1 0x4 DUP3 ADD MSTORE PUSH1 0x13 PUSH1 0x24 DUP3 ADD MSTORE PUSH19 0x4E6F207265776172647320746F20636C61696D PUSH1 0x68 SHL PUSH1 0x44 DUP3 ADD MSTORE PUSH1 0x64 SWAP1 REVERT JUMPDEST PUSH4 0x3EE5AEB5 PUSH1 0xE0 SHL DUP2 MSTORE PUSH1 0x4 SWAP1 REVERT JUMPDEST PUSH1 0x40 MLOAD PUSH3 0x461BCD PUSH1 0xE5 SHL DUP2 MSTORE PUSH1 0x20 PUSH1 0x4 DUP3 ADD MSTORE PUSH1 0x12 PUSH1 0x24 DUP3 ADD MSTORE PUSH18 0x55736572206973206E6F7420616374697665 PUSH1 0x70 SHL PUSH1 0x44 DUP3 ADD MSTORE PUSH1 0x64 SWAP1 REVERT JUMPDEST POP CALLVALUE PUSH2 0x16E JUMPI DUP1 PUSH1 0x3 NOT CALLDATASIZE ADD SLT PUSH2 0x16E JUMPI PUSH2 0x15A3 PUSH2 0x20A3 JUMP JUMPDEST PUSH32 0x23AC23F9A3D47C9CFF74AA16364727D0DCEDEC5665B037FDFC2C171D4B352797 PUSH1 0x20 PUSH1 0x4 SLOAD PUSH1 0xFF DUP1 DUP3 AND ISZERO AND DUP1 SWAP2 PUSH1 0xFF NOT AND OR PUSH1 0x4 SSTORE PUSH1 0x40 MLOAD SWAP1 ISZERO ISZERO DUP2 MSTORE LOG1 DUP1 RETURN JUMPDEST POP CALLVALUE PUSH2 0x16E JUMPI PUSH1 0x40 CALLDATASIZE PUSH1 0x3 NOT ADD SLT PUSH2 0x16E JUMPI PUSH1 0x4 CALLDATALOAD PUSH8 0xFFFFFFFFFFFFFFFF DUP2 GT PUSH2 0x1502 JUMPI PUSH2 0x1618 SWAP1 CALLDATASIZE SWAP1 PUSH1 0x4 ADD PUSH2 0x1AED JUMP JUMPDEST SWAP1 PUSH1 0x24 CALLDATALOAD PUSH1 0x1 PUSH1 0x1 PUSH1 0xA0 SHL SUB DUP2 AND DUP2 SUB PUSH2 0x1502 JUMPI PUSH2 0x163A PUSH1 0xFF PUSH1 0x4 SLOAD AND PUSH2 0x1E91 JUMP JUMPDEST CALLER DUP3 MSTORE PUSH1 0x7 PUSH1 0x20 MSTORE PUSH2 0x1653 PUSH1 0xFF PUSH1 0x40 DUP5 KECCAK256 SLOAD AND ISZERO PUSH2 0x1EDD JUMP JUMPDEST PUSH2 0x165F DUP4 MLOAD ISZERO ISZERO PUSH2 0x1F29 JUMP JUMPDEST PUSH2 0x1675 PUSH1 0x40 MLOAD DUP5 MLOAD PUSH2 0x93E DUP2 DUP4 PUSH1 0x20 DUP10 ADD PUSH2 0x1B8D JUMP JUMPDEST PUSH1 0x1 PUSH1 0x1 PUSH1 0xA0 SHL SUB DUP2 AND CALLER EQ PUSH2 0x1A14 JUMPI PUSH1 0x1 PUSH1 0x1 PUSH1 0xA0 SHL SUB DUP2 AND DUP3 MSTORE PUSH1 0x5 PUSH1 0x20 MSTORE PUSH1 0x40 DUP3 KECCAK256 PUSH1 0x1 ADD SLOAD PUSH1 0xFF AND ISZERO PUSH2 0x19CF JUMPI PUSH1 0x1 PUSH1 0x1 PUSH1 0xA0 SHL SUB DUP2 AND DUP3 MSTORE PUSH1 0x5 PUSH1 0x20 MSTORE PUSH1 0x40 DUP3 KECCAK256 PUSH1 0x1 ADD SLOAD PUSH1 0x8 SHR PUSH1 0xFF AND ISZERO PUSH2 0x198A JUMPI PUSH1 0x40 MLOAD SWAP3 PUSH2 0x16D7 DUP5 PUSH2 0x1A98 JUMP JUMPDEST DUP1 DUP5 MSTORE PUSH1 0x20 DUP5 ADD SWAP4 DUP4 DUP6 MSTORE PUSH1 0x40 DUP2 ADD SWAP5 PUSH1 0x1 DUP7 MSTORE PUSH1 0x60 DUP3 ADD SWAP1 PUSH1 0x1 DUP1 PUSH1 0xA0 SHL SUB DUP6 AND DUP3 MSTORE PUSH1 0x80 DUP4 ADD DUP7 DUP2 MSTORE PUSH1 0xA0 DUP5 ADD SWAP1 TIMESTAMP DUP3 MSTORE PUSH1 0xC0 DUP6 ADD SWAP3 DUP9 DUP5 MSTORE PUSH1 0xE0 DUP7 ADD SWAP5 TIMESTAMP DUP7 MSTORE CALLER DUP11 MSTORE PUSH1 0x5 PUSH1 0x20 MSTORE PUSH1 0x40 DUP11 KECCAK256 SWAP7 MLOAD SWAP11 DUP12 MLOAD PUSH8 0xFFFFFFFFFFFFFFFF DUP2 GT PUSH2 0x1976 JUMPI PUSH2 0x1744 DUP10 SLOAD PUSH2 0x1C67 JUMP JUMPDEST PUSH1 0x1F DUP2 GT PUSH2 0x192C JUMPI JUMPDEST POP PUSH1 0x20 SWAP13 PUSH1 0x1F DUP3 GT PUSH1 0x1 EQ PUSH2 0x18BC JUMPI SWAP1 DUP1 DUP14 SWAP15 PUSH2 0x17BA SWAP5 SWAP4 PUSH1 0x5 SWAP13 SWAP14 SWAP15 SWAP16 SWAP3 PUSH2 0x18B1 JUMPI JUMPDEST POP POP DUP2 PUSH1 0x1 SHL SWAP2 PUSH1 0x0 NOT SWAP1 PUSH1 0x3 SHL SHR NOT AND OR DUP11 SSTORE JUMPDEST PUSH2 0x17A3 PUSH1 0x1 DUP12 ADD SWAP5 MLOAD ISZERO ISZERO DUP6 SWAP1 PUSH1 0xFF DUP1 NOT DUP4 SLOAD AND SWAP2 ISZERO ISZERO AND OR SWAP1 SSTORE JUMP JUMPDEST MLOAD DUP4 SLOAD PUSH2 0xFF00 NOT AND SWAP1 ISZERO ISZERO PUSH1 0x8 SHL PUSH2 0xFF00 AND OR DUP4 SSTORE JUMP JUMPDEST MLOAD DUP2 SLOAD PUSH3 0x10000 PUSH1 0x1 PUSH1 0xB0 SHL SUB NOT AND PUSH1 0x10 SWAP2 SWAP1 SWAP2 SHL PUSH3 0x10000 PUSH1 0x1 PUSH1 0xB0 SHL SUB AND OR SWAP1 SSTORE MLOAD PUSH1 0x2 DUP7 ADD SSTORE MLOAD PUSH1 0x3 DUP6 ADD SSTORE MLOAD PUSH1 0x4 DUP5 ADD SSTORE MLOAD SWAP2 ADD SSTORE CALLER DUP4 MSTORE PUSH1 0x7 PUSH1 0x20 SWAP1 DUP2 MSTORE PUSH1 0x40 DUP1 DUP6 KECCAK256 DUP1 SLOAD PUSH1 0xFF NOT AND PUSH1 0x1 OR SWAP1 SSTORE MLOAD DUP3 MLOAD SWAP1 SWAP2 SWAP1 DUP3 SWAP1 PUSH2 0x1822 DUP2 DUP4 DUP8 DUP7 ADD PUSH2 0x1B8D JUMP JUMPDEST PUSH1 0x6 SWAP1 DUP3 ADD SWAP1 DUP2 MSTORE SUB ADD SWAP1 KECCAK256 DUP1 SLOAD PUSH1 0x1 PUSH1 0x1 PUSH1 0xA0 SHL SUB NOT AND CALLER SWAP1 DUP2 OR SWAP1 SWAP2 SSTORE PUSH2 0x184A SWAP1 PUSH2 0x1FBA JUMP JUMPDEST PUSH1 0x1 PUSH1 0x1 PUSH1 0xA0 SHL SUB DUP3 AND DUP4 MSTORE PUSH1 0x5 PUSH1 0x20 MSTORE PUSH1 0x40 DUP4 KECCAK256 PUSH1 0x2 ADD DUP1 SLOAD PUSH2 0x186D SWAP1 PUSH2 0x2006 JUMP JUMPDEST SWAP1 SSTORE PUSH32 0x43864134AF361805265E0C6A51A53B97A54D02D4753018D0D1EF2D19A44FF602 PUSH1 0x40 MLOAD SWAP3 PUSH1 0x20 DUP5 MSTORE PUSH1 0x1 DUP1 PUSH1 0xA0 SHL SUB AND SWAP3 DUP1 PUSH2 0xB5D CALLER SWAP5 PUSH1 0x20 DUP4 ADD SWAP1 PUSH2 0x1BB0 JUMP JUMPDEST ADD MLOAD SWAP1 POP CODESIZE DUP1 PUSH2 0x1771 JUMP JUMPDEST DUP10 DUP14 MSTORE DUP14 DUP14 KECCAK256 SWAP14 SWAP1 PUSH1 0x1F NOT DUP4 AND DUP15 JUMPDEST DUP2 DUP2 LT PUSH2 0x1912 JUMPI POP SWAP15 PUSH1 0x5 SWAP12 SWAP13 SWAP14 SWAP15 SWAP16 SWAP3 DUP5 SWAP3 PUSH2 0x17BA SWAP7 SWAP6 PUSH1 0x1 SWAP6 LT PUSH2 0x18F9 JUMPI JUMPDEST POP POP POP DUP2 SHL ADD DUP11 SSTORE PUSH2 0x1786 JUMP JUMPDEST ADD MLOAD PUSH1 0x0 NOT PUSH1 0xF8 DUP5 PUSH1 0x3 SHL AND SHR NOT AND SWAP1 SSTORE CODESIZE DUP1 DUP1 PUSH2 0x18EC JUMP JUMPDEST SWAP16 DUP4 DUP4 ADD MLOAD DUP2 SSTORE PUSH1 0x1 ADD SWAP3 PUSH1 0x20 ADD SWAP16 PUSH1 0x20 ADD SWAP16 SWAP3 SWAP16 PUSH2 0x18CB JUMP JUMPDEST DUP10 DUP14 MSTORE PUSH1 0x20 DUP14 KECCAK256 PUSH1 0x1F DUP4 ADD PUSH1 0x5 SHR DUP2 ADD SWAP2 PUSH1 0x20 DUP5 LT PUSH2 0x196C JUMPI JUMPDEST PUSH1 0x1F ADD PUSH1 0x5 SHR ADD SWAP1 DUP14 SWAP1 JUMPDEST DUP3 DUP2 LT PUSH2 0x195F JUMPI POP POP PUSH2 0x174D JUMP JUMPDEST PUSH1 0x1 SWAP2 DUP2 SSTORE ADD DUP14 SWAP1 PUSH2 0x1951 JUMP JUMPDEST SWAP1 SWAP2 POP DUP2 SWAP1 PUSH2 0x1946 JUMP JUMPDEST PUSH4 0x4E487B71 PUSH1 0xE0 SHL DUP13 MSTORE PUSH1 0x41 PUSH1 0x4 MSTORE PUSH1 0x24 DUP13 REVERT JUMPDEST PUSH1 0x40 MLOAD PUSH3 0x461BCD PUSH1 0xE5 SHL DUP2 MSTORE PUSH1 0x20 PUSH1 0x4 DUP3 ADD MSTORE PUSH1 0x17 PUSH1 0x24 DUP3 ADD MSTORE PUSH32 0x5265666572726572206D75737420626520616374697665000000000000000000 PUSH1 0x44 DUP3 ADD MSTORE PUSH1 0x64 SWAP1 REVERT JUMPDEST PUSH1 0x40 MLOAD PUSH3 0x461BCD PUSH1 0xE5 SHL DUP2 MSTORE PUSH1 0x20 PUSH1 0x4 DUP3 ADD MSTORE PUSH1 0x18 PUSH1 0x24 DUP3 ADD MSTORE PUSH32 0x5265666572726572206D75737420626520747275737465640000000000000000 PUSH1 0x44 DUP3 ADD MSTORE PUSH1 0x64 SWAP1 REVERT JUMPDEST PUSH1 0x40 MLOAD PUSH3 0x461BCD PUSH1 0xE5 SHL DUP2 MSTORE PUSH1 0x20 PUSH1 0x4 DUP3 ADD MSTORE PUSH1 0x15 PUSH1 0x24 DUP3 ADD MSTORE PUSH21 0x21B0B73737BA103932B332B9103CB7BAB939B2B633 PUSH1 0x59 SHL PUSH1 0x44 DUP3 ADD MSTORE PUSH1 0x64 SWAP1 REVERT JUMPDEST POP CALLVALUE PUSH2 0x16E JUMPI PUSH1 0x20 CALLDATASIZE PUSH1 0x3 NOT ADD SLT PUSH2 0x16E JUMPI PUSH1 0x20 PUSH2 0x1A75 PUSH2 0x1A70 PUSH2 0x1A7D JUMP JUMPDEST PUSH2 0x1D5A JUMP JUMPDEST PUSH1 0x40 MLOAD SWAP1 DUP2 MSTORE RETURN JUMPDEST PUSH1 0x4 CALLDATALOAD SWAP1 PUSH1 0x1 PUSH1 0x1 PUSH1 0xA0 SHL SUB DUP3 AND DUP3 SUB PUSH2 0x1A93 JUMPI JUMP JUMPDEST PUSH1 0x0 DUP1 REVERT JUMPDEST PUSH2 0x100 DUP2 ADD SWAP1 DUP2 LT PUSH8 0xFFFFFFFFFFFFFFFF DUP3 GT OR PUSH2 0x1AB5 JUMPI PUSH1 0x40 MSTORE JUMP JUMPDEST PUSH4 0x4E487B71 PUSH1 0xE0 SHL PUSH1 0x0 MSTORE PUSH1 0x41 PUSH1 0x4 MSTORE PUSH1 0x24 PUSH1 0x0 REVERT JUMPDEST SWAP1 PUSH1 0x1F DUP1 NOT SWAP2 ADD AND DUP2 ADD SWAP1 DUP2 LT PUSH8 0xFFFFFFFFFFFFFFFF DUP3 GT OR PUSH2 0x1AB5 JUMPI PUSH1 0x40 MSTORE JUMP JUMPDEST DUP2 PUSH1 0x1F DUP3 ADD SLT ISZERO PUSH2 0x1A93 JUMPI DUP1 CALLDATALOAD SWAP1 PUSH8 0xFFFFFFFFFFFFFFFF DUP3 GT PUSH2 0x1AB5 JUMPI PUSH1 0x40 MLOAD SWAP3 PUSH2 0x1B22 PUSH1 0x1F DUP5 ADD PUSH1 0x1F NOT AND PUSH1 0x20 ADD DUP6 PUSH2 0x1ACB JUMP JUMPDEST DUP3 DUP5 MSTORE PUSH1 0x20 DUP4 DUP4 ADD ADD GT PUSH2 0x1A93 JUMPI DUP2 PUSH1 0x0 SWAP3 PUSH1 0x20 DUP1 SWAP4 ADD DUP4 DUP7 ADD CALLDATACOPY DUP4 ADD ADD MSTORE SWAP1 JUMP JUMPDEST PUSH1 0x9 SLOAD DUP2 LT ISZERO PUSH2 0x1B5F JUMPI PUSH1 0x9 PUSH1 0x0 MSTORE PUSH1 0x20 PUSH1 0x0 KECCAK256 ADD SWAP1 PUSH1 0x0 SWAP1 JUMP JUMPDEST PUSH4 0x4E487B71 PUSH1 0xE0 SHL PUSH1 0x0 MSTORE PUSH1 0x32 PUSH1 0x4 MSTORE PUSH1 0x24 PUSH1 0x0 REVERT JUMPDEST DUP1 SLOAD DUP3 LT ISZERO PUSH2 0x1B5F JUMPI PUSH1 0x0 MSTORE PUSH1 0x20 PUSH1 0x0 KECCAK256 ADD SWAP1 PUSH1 0x0 SWAP1 JUMP JUMPDEST PUSH1 0x0 JUMPDEST DUP4 DUP2 LT PUSH2 0x1BA0 JUMPI POP POP PUSH1 0x0 SWAP2 ADD MSTORE JUMP JUMPDEST DUP2 DUP2 ADD MLOAD DUP4 DUP3 ADD MSTORE PUSH1 0x20 ADD PUSH2 0x1B90 JUMP JUMPDEST SWAP1 PUSH1 0x20 SWAP2 PUSH2 0x1BC9 DUP2 MLOAD DUP1 SWAP3 DUP2 DUP6 MSTORE DUP6 DUP1 DUP7 ADD SWAP2 ADD PUSH2 0x1B8D JUMP JUMPDEST PUSH1 0x1F ADD PUSH1 0x1F NOT AND ADD ADD SWAP1 JUMP JUMPDEST SWAP5 SWAP2 SWAP9 SWAP8 SWAP7 SWAP4 SWAP1 SWAP3 PUSH2 0x1BF4 PUSH1 0xE0 SWAP8 SWAP5 PUSH2 0x100 DUP9 MSTORE PUSH2 0x100 DUP9 ADD SWAP1 PUSH2 0x1BB0 JUMP JUMPDEST SWAP10 ISZERO ISZERO PUSH1 0x20 DUP8 ADD MSTORE ISZERO ISZERO PUSH1 0x40 DUP7 ADD MSTORE PUSH1 0x1 PUSH1 0x1 PUSH1 0xA0 SHL SUB AND PUSH1 0x60 DUP6 ADD MSTORE PUSH1 0x80 DUP5 ADD MSTORE PUSH1 0xA0 DUP4 ADD MSTORE PUSH1 0xC0 DUP3 ADD MSTORE ADD MSTORE JUMP JUMPDEST SWAP1 PUSH1 0x40 PUSH1 0x3 NOT DUP4 ADD SLT PUSH2 0x1A93 JUMPI PUSH1 0x4 CALLDATALOAD PUSH1 0x1 PUSH1 0x1 PUSH1 0xA0 SHL SUB DUP2 AND DUP2 SUB PUSH2 0x1A93 JUMPI SWAP2 PUSH1 0x24 CALLDATALOAD SWAP1 PUSH8 0xFFFFFFFFFFFFFFFF DUP3 GT PUSH2 0x1A93 JUMPI PUSH2 0x1C64 SWAP2 PUSH1 0x4 ADD PUSH2 0x1AED JUMP JUMPDEST SWAP1 JUMP JUMPDEST SWAP1 PUSH1 0x1 DUP3 DUP2 SHR SWAP3 AND DUP1 ISZERO PUSH2 0x1C97 JUMPI JUMPDEST PUSH1 0x20 DUP4 LT EQ PUSH2 0x1C81 JUMPI JUMP JUMPDEST PUSH4 0x4E487B71 PUSH1 0xE0 SHL PUSH1 0x0 MSTORE PUSH1 0x22 PUSH1 0x4 MSTORE PUSH1 0x24 PUSH1 0x0 REVERT JUMPDEST SWAP2 PUSH1 0x7F AND SWAP2 PUSH2 0x1C76 JUMP JUMPDEST PUSH1 0x0 SWAP3 SWAP2 DUP2 SLOAD SWAP2 PUSH2 0x1CB1 DUP4 PUSH2 0x1C67 JUMP JUMPDEST DUP1 DUP4 MSTORE SWAP3 PUSH1 0x1 DUP2 AND SWAP1 DUP2 ISZERO PUSH2 0x1D07 JUMPI POP PUSH1 0x1 EQ PUSH2 0x1CCD JUMPI POP POP POP JUMP JUMPDEST PUSH1 0x0 SWAP1 DUP2 MSTORE PUSH1 0x20 DUP2 KECCAK256 SWAP4 SWAP5 POP SWAP2 SWAP3 JUMPDEST DUP4 DUP4 LT PUSH2 0x1CED JUMPI POP PUSH1 0x20 SWAP3 POP ADD ADD SWAP1 JUMP JUMPDEST PUSH1 0x1 DUP2 PUSH1 0x20 SWAP3 SWAP5 SWAP4 SWAP5 SLOAD DUP4 DUP6 DUP8 ADD ADD MSTORE ADD SWAP2 ADD SWAP2 SWAP1 PUSH2 0x1CDC JUMP JUMPDEST SWAP2 POP POP PUSH1 0x20 SWAP4 SWAP5 POP PUSH1 0xFF SWAP3 SWAP2 SWAP3 NOT AND DUP4 DUP4 ADD MSTORE ISZERO ISZERO PUSH1 0x5 SHL ADD ADD SWAP1 JUMP JUMPDEST DUP2 DUP2 MUL SWAP3 SWAP2 DUP2 ISZERO SWAP2 DUP5 DIV EQ OR ISZERO PUSH2 0x1D37 JUMPI JUMP JUMPDEST PUSH4 0x4E487B71 PUSH1 0xE0 SHL PUSH1 0x0 MSTORE PUSH1 0x11 PUSH1 0x4 MSTORE PUSH1 0x24 PUSH1 0x0 REVERT JUMPDEST SWAP2 SWAP1 DUP3 ADD DUP1 SWAP3 GT PUSH2 0x1D37 JUMPI JUMP JUMPDEST PUSH1 0x1 PUSH1 0x1 PUSH1 0xA0 SHL SUB AND PUSH1 0x0 DUP2 DUP2 MSTORE PUSH1 0x7 PUSH1 0x20 MSTORE PUSH1 0x40 SWAP1 KECCAK256 SLOAD PUSH1 0xFF AND ISZERO DUP1 ISZERO PUSH2 0x1E72 JUMPI JUMPDEST DUP1 ISZERO PUSH2 0x1E65 JUMPI JUMPDEST PUSH2 0x1E5F JUMPI PUSH1 0x0 MSTORE PUSH1 0x5 PUSH1 0x20 MSTORE PUSH1 0x40 PUSH1 0x0 KECCAK256 PUSH1 0x40 MLOAD SWAP1 PUSH2 0x1DA2 DUP3 PUSH2 0x1A98 JUMP JUMPDEST PUSH1 0x40 MLOAD PUSH2 0x1DBA DUP2 PUSH2 0x1DB3 DUP2 DUP6 PUSH2 0x1CA1 JUMP JUMPDEST SUB DUP3 PUSH2 0x1ACB JUMP JUMPDEST DUP3 MSTORE PUSH1 0x1 DUP2 ADD SLOAD PUSH1 0xFF DUP2 AND ISZERO ISZERO PUSH1 0x20 DUP5 ADD MSTORE PUSH1 0xFF DUP2 PUSH1 0x8 SHR AND ISZERO ISZERO PUSH1 0x40 DUP5 ADD MSTORE PUSH1 0x1 DUP1 PUSH1 0xA0 SHL SUB SWAP1 PUSH1 0x10 SHR AND PUSH1 0x60 DUP4 ADD MSTORE PUSH1 0x2 DUP2 ADD SLOAD SWAP2 PUSH1 0x80 DUP2 ADD SWAP3 DUP4 MSTORE PUSH1 0xE0 PUSH1 0x5 PUSH1 0x3 DUP5 ADD SLOAD SWAP4 DUP5 PUSH1 0xA0 DUP6 ADD MSTORE PUSH1 0x4 DUP2 ADD SLOAD PUSH1 0xC0 DUP6 ADD MSTORE ADD SLOAD SWAP2 ADD MSTORE TIMESTAMP SUB TIMESTAMP DUP2 GT PUSH2 0x1D37 JUMPI PUSH1 0x2 SLOAD PUSH2 0x1E2C SWAP2 PUSH2 0x1D24 JUMP JUMPDEST DUP2 MLOAD SWAP1 SWAP2 SWAP1 ISZERO PUSH2 0x1E5B JUMPI SWAP1 PUSH1 0x64 PUSH2 0x1E54 PUSH2 0x1C64 SWAP4 PUSH2 0x1E4C PUSH1 0x3 SLOAD DUP6 PUSH2 0x1D24 JUMP JUMPDEST SWAP1 MLOAD SWAP1 PUSH2 0x1D24 JUMP JUMPDEST DIV SWAP1 PUSH2 0x1D4D JUMP JUMPDEST POP SWAP1 JUMP JUMPDEST POP PUSH1 0x0 SWAP1 JUMP JUMPDEST POP PUSH1 0xFF PUSH1 0x4 SLOAD AND ISZERO PUSH2 0x1D84 JUMP JUMPDEST POP DUP1 PUSH1 0x0 MSTORE PUSH1 0x5 PUSH1 0x20 MSTORE PUSH1 0xFF PUSH1 0x1 PUSH1 0x40 PUSH1 0x0 KECCAK256 ADD SLOAD PUSH1 0x8 SHR AND ISZERO PUSH2 0x1D7D JUMP JUMPDEST ISZERO PUSH2 0x1E98 JUMPI JUMP JUMPDEST PUSH1 0x40 MLOAD PUSH3 0x461BCD PUSH1 0xE5 SHL DUP2 MSTORE PUSH1 0x20 PUSH1 0x4 DUP3 ADD MSTORE PUSH1 0x1A PUSH1 0x24 DUP3 ADD MSTORE PUSH32 0x446973747269627574696F6E206973206E6F7420616374697665000000000000 PUSH1 0x44 DUP3 ADD MSTORE PUSH1 0x64 SWAP1 REVERT JUMPDEST ISZERO PUSH2 0x1EE4 JUMPI JUMP JUMPDEST PUSH1 0x40 MLOAD PUSH3 0x461BCD PUSH1 0xE5 SHL DUP2 MSTORE PUSH1 0x20 PUSH1 0x4 DUP3 ADD MSTORE PUSH1 0x17 PUSH1 0x24 DUP3 ADD MSTORE PUSH32 0x5573657220616C72656164792072656769737465726564000000000000000000 PUSH1 0x44 DUP3 ADD MSTORE PUSH1 0x64 SWAP1 REVERT JUMPDEST ISZERO PUSH2 0x1F30 JUMPI JUMP JUMPDEST PUSH1 0x40 MLOAD PUSH3 0x461BCD PUSH1 0xE5 SHL DUP2 MSTORE PUSH1 0x20 PUSH1 0x4 DUP3 ADD MSTORE PUSH1 0x18 PUSH1 0x24 DUP3 ADD MSTORE PUSH32 0x557365726E616D652063616E6E6F7420626520656D7074790000000000000000 PUSH1 0x44 DUP3 ADD MSTORE PUSH1 0x64 SWAP1 REVERT JUMPDEST ISZERO PUSH2 0x1F7C JUMPI JUMP JUMPDEST PUSH1 0x40 MLOAD PUSH3 0x461BCD PUSH1 0xE5 SHL DUP2 MSTORE PUSH1 0x20 PUSH1 0x4 DUP3 ADD MSTORE PUSH1 0x16 PUSH1 0x24 DUP3 ADD MSTORE PUSH22 0x2AB9B2B93730B6B29030B63932B0B23C903A30B5B2B7 PUSH1 0x51 SHL PUSH1 0x44 DUP3 ADD MSTORE PUSH1 0x64 SWAP1 REVERT JUMPDEST PUSH1 0x8 SLOAD SWAP1 PUSH1 0x1 PUSH1 0x40 SHL DUP3 LT ISZERO PUSH2 0x1AB5 JUMPI PUSH2 0x547 DUP3 PUSH1 0x1 PUSH2 0x1FDF SWAP5 ADD PUSH1 0x8 SSTORE PUSH1 0x8 PUSH2 0x1B75 JUMP JUMPDEST JUMP JUMPDEST PUSH1 0x9 SLOAD SWAP1 PUSH1 0x1 PUSH1 0x40 SHL DUP3 LT ISZERO PUSH2 0x1AB5 JUMPI PUSH2 0x547 DUP3 PUSH1 0x1 PUSH2 0x1FDF SWAP5 ADD PUSH1 0x9 SSTORE PUSH1 0x9 PUSH2 0x1B75 JUMP JUMPDEST PUSH1 0x0 NOT DUP2 EQ PUSH2 0x1D37 JUMPI PUSH1 0x1 ADD SWAP1 JUMP JUMPDEST ISZERO PUSH2 0x201C JUMPI JUMP JUMPDEST PUSH1 0x40 MLOAD PUSH3 0x461BCD PUSH1 0xE5 SHL DUP2 MSTORE PUSH1 0x20 PUSH1 0x4 DUP3 ADD MSTORE PUSH1 0x13 PUSH1 0x24 DUP3 ADD MSTORE PUSH19 0x155CD95C881B9BDD081C9959DA5CDD195C9959 PUSH1 0x6A SHL PUSH1 0x44 DUP3 ADD MSTORE PUSH1 0x64 SWAP1 REVERT JUMPDEST ISZERO PUSH2 0x205E JUMPI JUMP JUMPDEST PUSH1 0x40 MLOAD PUSH3 0x461BCD PUSH1 0xE5 SHL DUP2 MSTORE PUSH1 0x20 PUSH1 0x4 DUP3 ADD MSTORE PUSH1 0x1B PUSH1 0x24 DUP3 ADD MSTORE PUSH32 0x5573657220616464726573732063616E6E6F74206265207A65726F0000000000 PUSH1 0x44 DUP3 ADD MSTORE PUSH1 0x64 SWAP1 REVERT JUMPDEST PUSH1 0x0 SLOAD PUSH1 0x1 PUSH1 0x1 PUSH1 0xA0 SHL SUB AND CALLER SUB PUSH2 0x20B7 JUMPI JUMP JUMPDEST PUSH4 0x118CDAA7 PUSH1 0xE0 SHL PUSH1 0x0 MSTORE CALLER PUSH1 0x4 MSTORE PUSH1 0x24 PUSH1 0x0 REVERT INVALID LOG2 PUSH5 0x6970667358 0x22 SLT KECCAK256 EXTCODESIZE 0xED 0xDE BYTE 0xC5 0xD3 SELFBALANCE 0xF9 CALLVALUE 0x2B SWAP9 PUSH20 0x874CED136CFF7CB2A5C3AD34A1976DF7EB058B3C PUSH5 0x736F6C6343 STOP ADDMOD SHR STOP CALLER "
        },
        "methodIdentifiers": {
          "MULTIPLIER_BASE()": "f97136af",
          "addTrustedUser(address,string)": "7ed8c35e",
          "allUsers(uint256)": "a2bdedf4",
          "baseRewardRate()": "afbf3440",
          "beerCoin()": "8cd93eef",
          "calculatePendingRewards(address)": "097aad10",
          "claimRewards()": "372500ab",
          "distributionActive()": "99fb15d2",
          "getAllTrustedUsers()": "7863e3c0",
          "getTotalTrustedUsers()": "efae2ee6",
          "getTotalUsers()": "9be572f6",
          "getUserInfo(address)": "6386c1c7",
          "isRegistered(address)": "c3c5a547",
          "isUsernameAvailable(string)": "f69c6dec",
          "kickUser(address)": "f1de3194",
          "owner()": "8da5cb5b",
          "referrerMultiplier()": "fdf8d242",
          "registerUser(string,address)": "0e54b872",
          "registerUserByTrusted(address,string)": "8bfee820",
          "removeTrustedUser(address)": "af866d87",
          "renounceOwnership()": "715018a6",
          "toggleDistribution()": "1dd5a948",
          "transferOwnership(address)": "f2fde38b",
          "trustedUsers(uint256)": "37e03f64",
          "updateReferrerMultiplier(uint256)": "7f891c80",
          "updateRewardRate(uint256)": "9ef3a261",
          "usernameToAddress(string)": "f825f143",
          "users(address)": "a87430ba"
        }
      }
    }
  }
}