{
  "contracts/BeerCoinDistributor.sol": {
    "BeerCoinDistributor": {
      "abi": [
        {
          "inputs": [
            {
              "internalType": "address",
              "name": "_beerCoin",
              "type": "address"
            },
            {
              "internalType": "address",
              "name": "initialOwner",
              "type": "address"
            }
          ],
          "stateMutability": "nonpayable",
          "type": "constructor"
        },
        {
          "inputs": [
            {
              "internalType": "address",
              "name": "owner",
              "type": "address"
            }
          ],
          "name": "OwnableInvalidOwner",
          "type": "error"
        },
        {
          "inputs": [
            {
              "internalType": "address",
              "name": "account",
              "type": "address"
            }
          ],
          "name": "OwnableUnauthorizedAccount",
          "type": "error"
        },
        {
          "inputs": [],
          "name": "ReentrancyGuardReentrantCall",
          "type": "error"
        },
        {
          "anonymous": false,
          "inputs": [
            {
              "indexed": false,
              "internalType": "bool",
              "name": "active",
              "type": "bool"
            }
          ],
          "name": "DistributionToggled",
          "type": "event"
        },
        {
          "anonymous": false,
          "inputs": [
            {
              "indexed": true,
              "internalType": "address",
              "name": "previousOwner",
              "type": "address"
            },
            {
              "indexed": true,
              "internalType": "address",
              "name": "newOwner",
              "type": "address"
            }
          ],
          "name": "OwnershipTransferred",
          "type": "event"
        },
        {
          "anonymous": false,
          "inputs": [
            {
              "indexed": false,
              "internalType": "uint256",
              "name": "newMultiplier",
              "type": "uint256"
            }
          ],
          "name": "ReferrerMultiplierUpdated",
          "type": "event"
        },
        {
          "anonymous": false,
          "inputs": [
            {
              "indexed": false,
              "internalType": "uint256",
              "name": "newRate",
              "type": "uint256"
            }
          ],
          "name": "RewardRateUpdated",
          "type": "event"
        },
        {
          "anonymous": false,
          "inputs": [
            {
              "indexed": true,
              "internalType": "address",
              "name": "user",
              "type": "address"
            },
            {
              "indexed": false,
              "internalType": "uint256",
              "name": "amount",
              "type": "uint256"
            }
          ],
          "name": "TokensClaimed",
          "type": "event"
        },
        {
          "anonymous": false,
          "inputs": [
            {
              "indexed": true,
              "internalType": "address",
              "name": "user",
              "type": "address"
            },
            {
              "indexed": false,
              "internalType": "string",
              "name": "username",
              "type": "string"
            }
          ],
          "name": "UserKicked",
          "type": "event"
        },
        {
          "anonymous": false,
          "inputs": [
            {
              "indexed": true,
              "internalType": "address",
              "name": "user",
              "type": "address"
            },
            {
              "indexed": false,
              "internalType": "string",
              "name": "username",
              "type": "string"
            },
            {
              "indexed": true,
              "internalType": "address",
              "name": "referrer",
              "type": "address"
            }
          ],
          "name": "UserRegistered",
          "type": "event"
        },
        {
          "anonymous": false,
          "inputs": [
            {
              "indexed": true,
              "internalType": "address",
              "name": "user",
              "type": "address"
            },
            {
              "indexed": false,
              "internalType": "string",
              "name": "username",
              "type": "string"
            }
          ],
          "name": "UserTrusted",
          "type": "event"
        },
        {
          "anonymous": false,
          "inputs": [
            {
              "indexed": true,
              "internalType": "address",
              "name": "user",
              "type": "address"
            },
            {
              "indexed": false,
              "internalType": "string",
              "name": "username",
              "type": "string"
            }
          ],
          "name": "UserUntrusted",
          "type": "event"
        },
        {
          "inputs": [],
          "name": "MULTIPLIER_BASE",
          "outputs": [
            {
              "internalType": "uint256",
              "name": "",
              "type": "uint256"
            }
          ],
          "stateMutability": "view",
          "type": "function"
        },
        {
          "inputs": [
            {
              "internalType": "address",
              "name": "user",
              "type": "address"
            },
            {
              "internalType": "string",
              "name": "username",
              "type": "string"
            }
          ],
          "name": "addTrustedUser",
          "outputs": [],
          "stateMutability": "nonpayable",
          "type": "function"
        },
        {
          "inputs": [
            {
              "internalType": "uint256",
              "name": "",
              "type": "uint256"
            }
          ],
          "name": "allUsers",
          "outputs": [
            {
              "internalType": "address",
              "name": "",
              "type": "address"
            }
          ],
          "stateMutability": "view",
          "type": "function"
        },
        {
          "inputs": [],
          "name": "baseRewardRate",
          "outputs": [
            {
              "internalType": "uint256",
              "name": "",
              "type": "uint256"
            }
          ],
          "stateMutability": "view",
          "type": "function"
        },
        {
          "inputs": [],
          "name": "beerCoin",
          "outputs": [
            {
              "internalType": "contract BeerCoin",
              "name": "",
              "type": "address"
            }
          ],
          "stateMutability": "view",
          "type": "function"
        },
        {
          "inputs": [
            {
              "internalType": "address",
              "name": "user",
              "type": "address"
            }
          ],
          "name": "calculatePendingRewards",
          "outputs": [
            {
              "internalType": "uint256",
              "name": "pendingRewards",
              "type": "uint256"
            }
          ],
          "stateMutability": "view",
          "type": "function"
        },
        {
          "inputs": [],
          "name": "claimRewards",
          "outputs": [],
          "stateMutability": "nonpayable",
          "type": "function"
        },
        {
          "inputs": [],
          "name": "distributionActive",
          "outputs": [
            {
              "internalType": "bool",
              "name": "",
              "type": "bool"
            }
          ],
          "stateMutability": "view",
          "type": "function"
        },
        {
          "inputs": [],
          "name": "getAllTrustedUsers",
          "outputs": [
            {
              "internalType": "address[]",
              "name": "",
              "type": "address[]"
            }
          ],
          "stateMutability": "view",
          "type": "function"
        },
        {
          "inputs": [],
          "name": "getTotalTrustedUsers",
          "outputs": [
            {
              "internalType": "uint256",
              "name": "",
              "type": "uint256"
            }
          ],
          "stateMutability": "view",
          "type": "function"
        },
        {
          "inputs": [],
          "name": "getTotalUsers",
          "outputs": [
            {
              "internalType": "uint256",
              "name": "",
              "type": "uint256"
            }
          ],
          "stateMutability": "view",
          "type": "function"
        },
        {
          "inputs": [
            {
              "internalType": "address",
              "name": "user",
              "type": "address"
            }
          ],
          "name": "getUserInfo",
          "outputs": [
            {
              "internalType": "string",
              "name": "username",
              "type": "string"
            },
            {
              "internalType": "bool",
              "name": "isTrusted",
              "type": "bool"
            },
            {
              "internalType": "bool",
              "name": "isActive",
              "type": "bool"
            },
            {
              "internalType": "address",
              "name": "referrer",
              "type": "address"
            },
            {
              "internalType": "uint256",
              "name": "referralCount",
              "type": "uint256"
            },
            {
              "internalType": "uint256",
              "name": "totalEarned",
              "type": "uint256"
            },
            {
              "internalType": "uint256",
              "name": "pendingRewards",
              "type": "uint256"
            },
            {
              "internalType": "uint256",
              "name": "joinTime",
              "type": "uint256"
            }
          ],
          "stateMutability": "view",
          "type": "function"
        },
        {
          "inputs": [
            {
              "internalType": "address",
              "name": "",
              "type": "address"
            }
          ],
          "name": "isRegistered",
          "outputs": [
            {
              "internalType": "bool",
              "name": "",
              "type": "bool"
            }
          ],
          "stateMutability": "view",
          "type": "function"
        },
        {
          "inputs": [
            {
              "internalType": "string",
              "name": "username",
              "type": "string"
            }
          ],
          "name": "isUsernameAvailable",
          "outputs": [
            {
              "internalType": "bool",
              "name": "",
              "type": "bool"
            }
          ],
          "stateMutability": "view",
          "type": "function"
        },
        {
          "inputs": [
            {
              "internalType": "address",
              "name": "user",
              "type": "address"
            }
          ],
          "name": "kickUser",
          "outputs": [],
          "stateMutability": "nonpayable",
          "type": "function"
        },
        {
          "inputs": [],
          "name": "owner",
          "outputs": [
            {
              "internalType": "address",
              "name": "",
              "type": "address"
            }
          ],
          "stateMutability": "view",
          "type": "function"
        },
        {
          "inputs": [],
          "name": "referrerMultiplier",
          "outputs": [
            {
              "internalType": "uint256",
              "name": "",
              "type": "uint256"
            }
          ],
          "stateMutability": "view",
          "type": "function"
        },
        {
          "inputs": [
            {
              "internalType": "string",
              "name": "username",
              "type": "string"
            },
            {
              "internalType": "address",
              "name": "referrer",
              "type": "address"
            }
          ],
          "name": "registerUser",
          "outputs": [],
          "stateMutability": "nonpayable",
          "type": "function"
        },
        {
          "inputs": [
            {
              "internalType": "address",
              "name": "user",
              "type": "address"
            }
          ],
          "name": "removeTrustedUser",
          "outputs": [],
          "stateMutability": "nonpayable",
          "type": "function"
        },
        {
          "inputs": [],
          "name": "renounceOwnership",
          "outputs": [],
          "stateMutability": "nonpayable",
          "type": "function"
        },
        {
          "inputs": [],
          "name": "toggleDistribution",
          "outputs": [],
          "stateMutability": "nonpayable",
          "type": "function"
        },
        {
          "inputs": [
            {
              "internalType": "address",
              "name": "newOwner",
              "type": "address"
            }
          ],
          "name": "transferOwnership",
          "outputs": [],
          "stateMutability": "nonpayable",
          "type": "function"
        },
        {
          "inputs": [
            {
              "internalType": "uint256",
              "name": "",
              "type": "uint256"
            }
          ],
          "name": "trustedUsers",
          "outputs": [
            {
              "internalType": "address",
              "name": "",
              "type": "address"
            }
          ],
          "stateMutability": "view",
          "type": "function"
        },
        {
          "inputs": [
            {
              "internalType": "uint256",
              "name": "newMultiplier",
              "type": "uint256"
            }
          ],
          "name": "updateReferrerMultiplier",
          "outputs": [],
          "stateMutability": "nonpayable",
          "type": "function"
        },
        {
          "inputs": [
            {
              "internalType": "uint256",
              "name": "newRate",
              "type": "uint256"
            }
          ],
          "name": "updateRewardRate",
          "outputs": [],
          "stateMutability": "nonpayable",
          "type": "function"
        },
        {
          "inputs": [
            {
              "internalType": "string",
              "name": "",
              "type": "string"
            }
          ],
          "name": "usernameToAddress",
          "outputs": [
            {
              "internalType": "address",
              "name": "",
              "type": "address"
            }
          ],
          "stateMutability": "view",
          "type": "function"
        },
        {
          "inputs": [
            {
              "internalType": "address",
              "name": "",
              "type": "address"
            }
          ],
          "name": "users",
          "outputs": [
            {
              "internalType": "string",
              "name": "username",
              "type": "string"
            },
            {
              "internalType": "bool",
              "name": "isTrusted",
              "type": "bool"
            },
            {
              "internalType": "bool",
              "name": "isActive",
              "type": "bool"
            },
            {
              "internalType": "address",
              "name": "referrer",
              "type": "address"
            },
            {
              "internalType": "uint256",
              "name": "referralCount",
              "type": "uint256"
            },
            {
              "internalType": "uint256",
              "name": "lastClaimTime",
              "type": "uint256"
            },
            {
              "internalType": "uint256",
              "name": "totalEarned",
              "type": "uint256"
            },
            {
              "internalType": "uint256",
              "name": "joinTime",
              "type": "uint256"
            }
          ],
          "stateMutability": "view",
          "type": "function"
        }
      ],
      "evm": {
        "bytecode": {
          "linkReferences": {},
          "object": "60a03461015957601f611e2b38819003918201601f19168301916001600160401b0383118484101761015e5780849260409485528339810103126101595761004681610174565b906001600160a01b039061005c90602001610174565b1690811561014357600080546001600160a01b031981168417825560405193916001600160a01b03909116907f8be0079c531659141344cd1fd0a4f28419497f9722a3daafe3b4186f6b6457e09080a3600180805566038d7ea4c6800060025560966003556004805460ff191690911790556001600160a01b03169081156101015750608052604051611ca29081610189823960805181818161086d015261107e0152f35b62461bcd60e51b815260206004820152601f60248201527f42656572436f696e20616464726573732063616e6e6f74206265207a65726f006044820152606490fd5b631e4fbdf760e01b600052600060045260246000fd5b600080fd5b634e487b7160e01b600052604160045260246000fd5b51906001600160a01b03821682036101595756fe6080604052600436101561001257600080fd5b6000803560e01c8063097aad10146116d85780630e54b872146112105780631dd5a948146111b4578063372500ab14610fde57806337e03f6414610f9a5780636386c1c714610eec578063715018a614610e925780637863e3c014610dca5780637ed8c35e146109445780637f891c801461089c5780638cd93eef146108575780638da5cb5b1461083057806399fb15d21461080d5780639be572f6146107ef5780639ef3a2611461074a578063a2bdedf4146106c9578063a87430ba1461063b578063af866d871461045e578063afbf344014610440578063c3c5a54714610401578063efae2ee6146103e3578063f1de3194146102dd578063f2fde38b14610257578063f69c6dec146101ec578063f825f14314610182578063f97136af146101665763fdf8d2421461014657600080fd5b346101635780600319360112610163576020600354604051908152f35b80fd5b5034610163578060031936011261016357602060405160648152f35b5034610163576020366003190112610163576004359067ffffffffffffffff82116101635760206101b63660048501611774565b816101ca6040519283815193849201611814565b600690820190815281900382019020546040516001600160a01b039091168152f35b5034610163576020366003190112610163576004359067ffffffffffffffff82116101635760206102203660048501611774565b816102346040519283815193849201611814565b600690820190815281900382019020546040516001600160a01b03909116158152f35b503461016357602036600319011261016357610271611704565b610279611c43565b6001600160a01b031680156102c95781546001600160a01b03198116821783556001600160a01b03167f8be0079c531659141344cd1fd0a4f28419497f9722a3daafe3b4186f6b6457e08380a380f35b631e4fbdf760e01b82526004829052602482fd5b5034610163576020366003190112610163576102f7611704565b6102ff611c43565b6001600160a01b0316808252600760205260408220546103219060ff16611c01565b808252600560205260ff600160408420015460081c161561039e5780825260056020526001604083200161ff0019815416905580825260056020527f027b6bf28c3ea625d8e992716aa9d93969a8dcb0eec48431ed006234b270d403610398604084206040519182916020835260208301906118e5565b0390a280f35b60405162461bcd60e51b815260206004820152601860248201527f5573657220697320616c726561647920696e61637469766500000000000000006044820152606490fd5b50346101635780600319360112610163576020600954604051908152f35b50346101635760203660031901126101635760209060ff906040906001600160a01b0361042c611704565b168152600784522054166040519015158152f35b50346101635780600319360112610163576020600254604051908152f35b503461016357602036600319011261016357610478611704565b610480611c43565b6001600160a01b0316808252600760205260408220546104a29060ff16611c01565b808252600560205260ff6001604084200154161561060057808252600560205260408220600101805460ff19169055815b600954808210156105f957826104e8836117cb565b905460039190911b1c6001600160a01b03161461050857506001016104d3565b60001981019081116105e5579061053c610524610560936117cb565b905460039190911b1c6001600160a01b0316916117cb565b81546001600160a01b0393841660039290921b91821b9390911b1916919091179055565b60095480156105d15760001901610576816117cb565b81549060018060a01b039060031b1b191690556009555b80825260056020527fddece651176b4d76629e735760a05157f20556fb0ae07ad54bce944723b5759f610398604084206040519182916020835260208301906118e5565b634e487b7160e01b83526031600452602483fd5b634e487b7160e01b84526011600452602484fd5b505061058d565b60405162461bcd60e51b8152602060048201526013602482015272155cd95c881a5cc81b9bdd081d1c9d5cdd1959606a1b6044820152606490fd5b5034610163576020366003190112610163576040906001600160a01b03610660611704565b168152600560205220604051906106828261067b81846118e5565b0383611752565b6106c56001820154916002810154906003810154600560048301549201549260405196879660018060a01b038160101c169160ff808360081c169216908961185c565b0390f35b503461016357602036600319011261016357600435906008548210156101635760085482101561073657600881527ff3f7a9fe364faab93b216da50a3214154f22a0a2b415b23a84c8169e8b636ee39091015460405160039290921b1c6001600160a01b03168152602090f35b634e487b7160e01b81526032600452602490fd5b503461016357602036600319011261016357600435610767611c43565b801561079f576020817f41d466ebd06fb97e7786086ac8b69b7eb7da798592036251291d34e9791cde0192600255604051908152a180f35b60405162461bcd60e51b815260206004820152602260248201527f5265776172642072617465206d7573742062652067726561746572207468616e604482015261020360f41b6064820152608490fd5b50346101635780600319360112610163576020600854604051908152f35b5034610163578060031936011261016357602060ff600454166040519015158152f35b5034610163578060031936011261016357546040516001600160a01b039091168152602090f35b50346101635780600319360112610163576040517f00000000000000000000000000000000000000000000000000000000000000006001600160a01b03168152602090f35b5034610163576020366003190112610163576004356108b9611c43565b606481106108f3576020817fa22d6af19c6f93cec4ca5544959e3a75e8b4416139216080171f5662a64489e992600355604051908152a180f35b60405162461bcd60e51b8152602060048201526024808201527f4d756c7469706c696572206d757374206265206174206c6561737420313030206044820152632831782960e01b6064820152608490fd5b50346101635760403660031901126101635761095e611704565b60243567ffffffffffffffff8111610dc65761097e903690600401611774565b90610987611c43565b6001600160a01b03811615610d81576109a282511515611b24565b6109d860405183516109b8818360208801611814565b60069082019081528190036020019020546001600160a01b031615611b70565b6001600160a01b03811683526007602052604083205460ff16610cc357604051610a018161171f565b82815260016020820152600160408201528360608201528360808201524260a08201528360c08201524260e082015260018060a01b038216845260056020526040842090805180519067ffffffffffffffff8211610caf57610a6384546118ab565b601f8111610c6e575b50602090601f8311600114610be0577fe4ab0700c1b4ac7b07b68d06857075bcddc95e5875b9e25cf4316a38a79b5fcd959383610398969460059460e0948c92610bd5575b50508160011b916000199060031b1c19161784555b60018401610ae660208301511515829060ff801983541691151516179055565b6040820151815461ff00191690151560081b61ff00161781556060820151815462010000600160b01b03191660109190911b62010000600160b01b03161790556080810151600285015560a0810151600385015560c0810151600485015501519101556001600160a01b0381168552600760209081526040808720805460ff191660011790555185519091908290610b8181838a8601611814565b60069082019081520301902080546001600160a01b0319166001600160a01b038316179055610baf81611bb5565b610bb881611bdc565b6040519182916020835260018060a01b0316946020830190611837565b015190503880610ab1565b8488528188209190601f198416895b818110610c5657508460059460e0947fe4ab0700c1b4ac7b07b68d06857075bcddc95e5875b9e25cf4316a38a79b5fcd9a98946103989a9860019510610c3d575b505050811b018455610ac6565b015160001960f88460031b161c19169055388080610c30565b92936020600181928786015181550195019301610bef565b84885260208820601f840160051c810160208510610ca8575b601f830160051c82018110610c9d575050610a6c565b898155600101610c87565b5080610c87565b634e487b7160e01b87526041600452602487fd5b6001600160a01b03811683526005602052604083206001015460ff16610d3c576001600160a01b03811683526005602052604083206001908101805460ff191690911790557fe4ab0700c1b4ac7b07b68d06857075bcddc95e5875b9e25cf4316a38a79b5fcd9061039890610d3781611bdc565b610bb8565b60405162461bcd60e51b815260206004820152601760248201527f5573657220697320616c726561647920747275737465640000000000000000006044820152606490fd5b60405162461bcd60e51b815260206004820152601b60248201527f5573657220616464726573732063616e6e6f74206265207a65726f00000000006044820152606490fd5b8280fd5b503461016357806003193601126101635760405180602060095491828152018091600985527f6e1540171b6c0c960b71a7020d9f60077f6af931a8bbf590da0223dacf75c7af90855b818110610e735750505082610e29910383611752565b604051928392602084019060208552518091526040840192915b818110610e51575050500390f35b82516001600160a01b0316845285945060209384019390920191600101610e43565b82546001600160a01b0316845260209093019260019283019201610e13565b5034610163578060031936011261016357610eab611c43565b80546001600160a01b03198116825581906001600160a01b03167f8be0079c531659141344cd1fd0a4f28419497f9722a3daafe3b4186f6b6457e08280a380f35b503461016357602036600319011261016357610f6c906106c56040610f0f611704565b6001600160a01b038116808552600760205282852054919491610f349060ff16611c01565b8152600560205220600181015492600282015490610f5660048401549161199e565b91610f73600585015494604051988980926118e5565b0388611752565b6040519687966001600160a01b03601082901c169160ff600883901c81169216908961185c565b50346101635760203660031901126101635760043590600954821015610163576020610fc5836117cb565b905460405160039290921b1c6001600160a01b03168152f35b5034610163578060031936011261016357338152600760205261100760ff604083205416611c01565b338152600560205260ff600160408320015460081c161561117a5761103060ff60045416611ad8565b60026001541461116b5760026001556110483361199e565b90811561113057338152600560205242600360408320015533815260056020526004604082200161107a838254611991565b90557f00000000000000000000000000000000000000000000000000000000000000006001600160a01b0316803b1561112c578180916044604051809481936340c10f1960e01b83523360048401528860248401525af1801561112157611111575b50906040519081527f896e034966eaaf1adc54acc0f257056febbd300c9e47182cf761982cf1f5e43060203392a26001805580f35b8161111b91611752565b386110dc565b6040513d84823e3d90fd5b5080fd5b60405162461bcd60e51b81526020600482015260136024820152724e6f207265776172647320746f20636c61696d60681b6044820152606490fd5b633ee5aeb560e01b8152600490fd5b60405162461bcd60e51b815260206004820152601260248201527155736572206973206e6f742061637469766560701b6044820152606490fd5b50346101635780600319360112610163576111cd611c43565b7f23ac23f9a3d47c9cff74aa16364727d0dcedec5665b037fdfc2c171d4b352797602060045460ff8082161516809160ff1916176004556040519015158152a180f35b50346101635760403660031901126101635760043567ffffffffffffffff811161112c57611242903690600401611774565b906024356001600160a01b038116810361112c5761126460ff60045416611ad8565b338252600760205260ff6040832054166116935761128483511515611b24565b61129a60405184516109b8818360208901611814565b6001600160a01b0381163314611656576001600160a01b03811682526005602052604082206001015460ff1615611611576001600160a01b03811682526005602052604082206001015460081c60ff16156115cc57604051926112fc8461171f565b8084526020840193838552604081019460018652606082019060018060a01b03851682526080830186815260a084019042825260c085019288845260e0860194428652338a52600560205260408a2096519a8b5167ffffffffffffffff81116115b85761136989546118ab565b601f811161156e575b5060209c601f82116001146114fe5790808d9e6113df949360059c9d9e9f926114f3575b50508160011b916000199060031b1c1916178a555b6113c860018b0194511515859060ff801983541691151516179055565b51835461ff00191690151560081b61ff0016178355565b51815462010000600160b01b03191660109190911b62010000600160b01b031617905551600286015551600385015551600484015551910155338352600760209081526040808520805460ff1916600117905551825190919082906114478183878601611814565b60069082019081520301902080546001600160a01b0319163390811790915561146f90611bb5565b6001600160a01b0382168352600560205260408320600201805460001981146114df5760010190557f43864134af361805265e0c6a51a53b97a54d02d4753018d0d1ef2d19a44ff602604051926020845260018060a01b031692806114d933946020830190611837565b0390a380f35b634e487b7160e01b85526011600452602485fd5b015190503880611396565b898d528d8d209d90601f1983168e5b81811061155457509e60059b9c9d9e9f9284926113df96956001951061153b575b505050811b018a556113ab565b015160001960f88460031b161c1916905538808061152e565b9f838301518155600101926020019f6020019f929f61150d565b898d5260208d20601f830160051c810191602084106115ae575b601f0160051c01908d905b8281106115a1575050611372565b6001918155018d90611593565b9091508190611588565b634e487b7160e01b8c52604160045260248cfd5b60405162461bcd60e51b815260206004820152601760248201527f5265666572726572206d757374206265206163746976650000000000000000006044820152606490fd5b60405162461bcd60e51b815260206004820152601860248201527f5265666572726572206d757374206265207472757374656400000000000000006044820152606490fd5b60405162461bcd60e51b815260206004820152601560248201527421b0b73737ba103932b332b9103cb7bab939b2b63360591b6044820152606490fd5b60405162461bcd60e51b815260206004820152601760248201527f5573657220616c726561647920726567697374657265640000000000000000006044820152606490fd5b50346101635760203660031901126101635760206116fc6116f7611704565b61199e565b604051908152f35b600435906001600160a01b038216820361171a57565b600080fd5b610100810190811067ffffffffffffffff82111761173c57604052565b634e487b7160e01b600052604160045260246000fd5b90601f8019910116810190811067ffffffffffffffff82111761173c57604052565b81601f8201121561171a5780359067ffffffffffffffff821161173c57604051926117a9601f8401601f191660200185611752565b8284526020838301011161171a57816000926020809301838601378301015290565b6009548110156117e657600960005260206000200190600090565b634e487b7160e01b600052603260045260246000fd5b80548210156117e65760005260206000200190600090565b60005b8381106118275750506000910152565b8181015183820152602001611817565b9060209161185081518092818552858086019101611814565b601f01601f1916010190565b949198979693909261187b60e097946101008852610100880190611837565b9915156020870152151560408601526001600160a01b03166060850152608084015260a083015260c08201520152565b90600182811c921680156118db575b60208310146118c557565b634e487b7160e01b600052602260045260246000fd5b91607f16916118ba565b600092918154916118f5836118ab565b808352926001811690811561194b575060011461191157505050565b60009081526020812093945091925b838310611931575060209250010190565b600181602092949394548385870101520191019190611920565b915050602093945060ff929192191683830152151560051b010190565b8181029291811591840414171561197b57565b634e487b7160e01b600052601160045260246000fd5b9190820180921161197b57565b6001600160a01b031660008181526007602052604090205460ff16158015611ab9575b8015611aac575b611aa65760005260056020526040600020604051906119e68261171f565b6040516119fe816119f781856118e5565b0382611752565b8252600181015460ff81161515602084015260ff8160081c161515604084015260018060a01b039060101c1660608301526002810154916080810192835260e060056003840154938460a0850152600481015460c08501520154910152420342811161197b57600254611a7091611968565b815190919015611aa257906064611a98611a9f93611a9060035485611968565b905190611968565b0490611991565b90565b5090565b50600090565b5060ff60045416156119c8565b5080600052600560205260ff60016040600020015460081c16156119c1565b15611adf57565b60405162461bcd60e51b815260206004820152601a60248201527f446973747269627574696f6e206973206e6f74206163746976650000000000006044820152606490fd5b15611b2b57565b60405162461bcd60e51b815260206004820152601860248201527f557365726e616d652063616e6e6f7420626520656d70747900000000000000006044820152606490fd5b15611b7757565b60405162461bcd60e51b81526020600482015260166024820152752ab9b2b93730b6b29030b63932b0b23c903a30b5b2b760511b6044820152606490fd5b60085490600160401b82101561173c5761053c826001611bda940160085560086117fc565b565b60095490600160401b82101561173c5761053c826001611bda940160095560096117fc565b15611c0857565b60405162461bcd60e51b8152602060048201526013602482015272155cd95c881b9bdd081c9959da5cdd195c9959606a1b6044820152606490fd5b6000546001600160a01b03163303611c5757565b63118cdaa760e01b6000523360045260246000fdfea26469706673582212201147fa8f08b2852e0b06d280451655e7e6e268b4fff548694ded91748f07e6db64736f6c634300081c0033",
          "opcodes": "PUSH1 0xA0 CALLVALUE PUSH2 0x159 JUMPI PUSH1 0x1F PUSH2 0x1E2B CODESIZE DUP2 SWAP1 SUB SWAP2 DUP3 ADD PUSH1 0x1F NOT AND DUP4 ADD SWAP2 PUSH1 0x1 PUSH1 0x1 PUSH1 0x40 SHL SUB DUP4 GT DUP5 DUP5 LT OR PUSH2 0x15E JUMPI DUP1 DUP5 SWAP3 PUSH1 0x40 SWAP5 DUP6 MSTORE DUP4 CODECOPY DUP2 ADD SUB SLT PUSH2 0x159 JUMPI PUSH2 0x46 DUP2 PUSH2 0x174 JUMP JUMPDEST SWAP1 PUSH1 0x1 PUSH1 0x1 PUSH1 0xA0 SHL SUB SWAP1 PUSH2 0x5C SWAP1 PUSH1 0x20 ADD PUSH2 0x174 JUMP JUMPDEST AND SWAP1 DUP2 ISZERO PUSH2 0x143 JUMPI PUSH1 0x0 DUP1 SLOAD PUSH1 0x1 PUSH1 0x1 PUSH1 0xA0 SHL SUB NOT DUP2 AND DUP5 OR DUP3 SSTORE PUSH1 0x40 MLOAD SWAP4 SWAP2 PUSH1 0x1 PUSH1 0x1 PUSH1 0xA0 SHL SUB SWAP1 SWAP2 AND SWAP1 PUSH32 0x8BE0079C531659141344CD1FD0A4F28419497F9722A3DAAFE3B4186F6B6457E0 SWAP1 DUP1 LOG3 PUSH1 0x1 DUP1 DUP1 SSTORE PUSH7 0x38D7EA4C68000 PUSH1 0x2 SSTORE PUSH1 0x96 PUSH1 0x3 SSTORE PUSH1 0x4 DUP1 SLOAD PUSH1 0xFF NOT AND SWAP1 SWAP2 OR SWAP1 SSTORE PUSH1 0x1 PUSH1 0x1 PUSH1 0xA0 SHL SUB AND SWAP1 DUP2 ISZERO PUSH2 0x101 JUMPI POP PUSH1 0x80 MSTORE PUSH1 0x40 MLOAD PUSH2 0x1CA2 SWAP1 DUP2 PUSH2 0x189 DUP3 CODECOPY PUSH1 0x80 MLOAD DUP2 DUP2 DUP2 PUSH2 0x86D ADD MSTORE PUSH2 0x107E ADD MSTORE RETURN JUMPDEST PUSH3 0x461BCD PUSH1 0xE5 SHL DUP2 MSTORE PUSH1 0x20 PUSH1 0x4 DUP3 ADD MSTORE PUSH1 0x1F PUSH1 0x24 DUP3 ADD MSTORE PUSH32 0x42656572436F696E20616464726573732063616E6E6F74206265207A65726F00 PUSH1 0x44 DUP3 ADD MSTORE PUSH1 0x64 SWAP1 REVERT JUMPDEST PUSH4 0x1E4FBDF7 PUSH1 0xE0 SHL PUSH1 0x0 MSTORE PUSH1 0x0 PUSH1 0x4 MSTORE PUSH1 0x24 PUSH1 0x0 REVERT JUMPDEST PUSH1 0x0 DUP1 REVERT JUMPDEST PUSH4 0x4E487B71 PUSH1 0xE0 SHL PUSH1 0x0 MSTORE PUSH1 0x41 PUSH1 0x4 MSTORE PUSH1 0x24 PUSH1 0x0 REVERT JUMPDEST MLOAD SWAP1 PUSH1 0x1 PUSH1 0x1 PUSH1 0xA0 SHL SUB DUP3 AND DUP3 SUB PUSH2 0x159 JUMPI JUMP INVALID PUSH1 0x80 PUSH1 0x40 MSTORE PUSH1 0x4 CALLDATASIZE LT ISZERO PUSH2 0x12 JUMPI PUSH1 0x0 DUP1 REVERT JUMPDEST PUSH1 0x0 DUP1 CALLDATALOAD PUSH1 0xE0 SHR DUP1 PUSH4 0x97AAD10 EQ PUSH2 0x16D8 JUMPI DUP1 PUSH4 0xE54B872 EQ PUSH2 0x1210 JUMPI DUP1 PUSH4 0x1DD5A948 EQ PUSH2 0x11B4 JUMPI DUP1 PUSH4 0x372500AB EQ PUSH2 0xFDE JUMPI DUP1 PUSH4 0x37E03F64 EQ PUSH2 0xF9A JUMPI DUP1 PUSH4 0x6386C1C7 EQ PUSH2 0xEEC JUMPI DUP1 PUSH4 0x715018A6 EQ PUSH2 0xE92 JUMPI DUP1 PUSH4 0x7863E3C0 EQ PUSH2 0xDCA JUMPI DUP1 PUSH4 0x7ED8C35E EQ PUSH2 0x944 JUMPI DUP1 PUSH4 0x7F891C80 EQ PUSH2 0x89C JUMPI DUP1 PUSH4 0x8CD93EEF EQ PUSH2 0x857 JUMPI DUP1 PUSH4 0x8DA5CB5B EQ PUSH2 0x830 JUMPI DUP1 PUSH4 0x99FB15D2 EQ PUSH2 0x80D JUMPI DUP1 PUSH4 0x9BE572F6 EQ PUSH2 0x7EF JUMPI DUP1 PUSH4 0x9EF3A261 EQ PUSH2 0x74A JUMPI DUP1 PUSH4 0xA2BDEDF4 EQ PUSH2 0x6C9 JUMPI DUP1 PUSH4 0xA87430BA EQ PUSH2 0x63B JUMPI DUP1 PUSH4 0xAF866D87 EQ PUSH2 0x45E JUMPI DUP1 PUSH4 0xAFBF3440 EQ PUSH2 0x440 JUMPI DUP1 PUSH4 0xC3C5A547 EQ PUSH2 0x401 JUMPI DUP1 PUSH4 0xEFAE2EE6 EQ PUSH2 0x3E3 JUMPI DUP1 PUSH4 0xF1DE3194 EQ PUSH2 0x2DD JUMPI DUP1 PUSH4 0xF2FDE38B EQ PUSH2 0x257 JUMPI DUP1 PUSH4 0xF69C6DEC EQ PUSH2 0x1EC JUMPI DUP1 PUSH4 0xF825F143 EQ PUSH2 0x182 JUMPI DUP1 PUSH4 0xF97136AF EQ PUSH2 0x166 JUMPI PUSH4 0xFDF8D242 EQ PUSH2 0x146 JUMPI PUSH1 0x0 DUP1 REVERT JUMPDEST CALLVALUE PUSH2 0x163 JUMPI DUP1 PUSH1 0x3 NOT CALLDATASIZE ADD SLT PUSH2 0x163 JUMPI PUSH1 0x20 PUSH1 0x3 SLOAD PUSH1 0x40 MLOAD SWAP1 DUP2 MSTORE RETURN JUMPDEST DUP1 REVERT JUMPDEST POP CALLVALUE PUSH2 0x163 JUMPI DUP1 PUSH1 0x3 NOT CALLDATASIZE ADD SLT PUSH2 0x163 JUMPI PUSH1 0x20 PUSH1 0x40 MLOAD PUSH1 0x64 DUP2 MSTORE RETURN JUMPDEST POP CALLVALUE PUSH2 0x163 JUMPI PUSH1 0x20 CALLDATASIZE PUSH1 0x3 NOT ADD SLT PUSH2 0x163 JUMPI PUSH1 0x4 CALLDATALOAD SWAP1 PUSH8 0xFFFFFFFFFFFFFFFF DUP3 GT PUSH2 0x163 JUMPI PUSH1 0x20 PUSH2 0x1B6 CALLDATASIZE PUSH1 0x4 DUP6 ADD PUSH2 0x1774 JUMP JUMPDEST DUP2 PUSH2 0x1CA PUSH1 0x40 MLOAD SWAP3 DUP4 DUP2 MLOAD SWAP4 DUP5 SWAP3 ADD PUSH2 0x1814 JUMP JUMPDEST PUSH1 0x6 SWAP1 DUP3 ADD SWAP1 DUP2 MSTORE DUP2 SWAP1 SUB DUP3 ADD SWAP1 KECCAK256 SLOAD PUSH1 0x40 MLOAD PUSH1 0x1 PUSH1 0x1 PUSH1 0xA0 SHL SUB SWAP1 SWAP2 AND DUP2 MSTORE RETURN JUMPDEST POP CALLVALUE PUSH2 0x163 JUMPI PUSH1 0x20 CALLDATASIZE PUSH1 0x3 NOT ADD SLT PUSH2 0x163 JUMPI PUSH1 0x4 CALLDATALOAD SWAP1 PUSH8 0xFFFFFFFFFFFFFFFF DUP3 GT PUSH2 0x163 JUMPI PUSH1 0x20 PUSH2 0x220 CALLDATASIZE PUSH1 0x4 DUP6 ADD PUSH2 0x1774 JUMP JUMPDEST DUP2 PUSH2 0x234 PUSH1 0x40 MLOAD SWAP3 DUP4 DUP2 MLOAD SWAP4 DUP5 SWAP3 ADD PUSH2 0x1814 JUMP JUMPDEST PUSH1 0x6 SWAP1 DUP3 ADD SWAP1 DUP2 MSTORE DUP2 SWAP1 SUB DUP3 ADD SWAP1 KECCAK256 SLOAD PUSH1 0x40 MLOAD PUSH1 0x1 PUSH1 0x1 PUSH1 0xA0 SHL SUB SWAP1 SWAP2 AND ISZERO DUP2 MSTORE RETURN JUMPDEST POP CALLVALUE PUSH2 0x163 JUMPI PUSH1 0x20 CALLDATASIZE PUSH1 0x3 NOT ADD SLT PUSH2 0x163 JUMPI PUSH2 0x271 PUSH2 0x1704 JUMP JUMPDEST PUSH2 0x279 PUSH2 0x1C43 JUMP JUMPDEST PUSH1 0x1 PUSH1 0x1 PUSH1 0xA0 SHL SUB AND DUP1 ISZERO PUSH2 0x2C9 JUMPI DUP2 SLOAD PUSH1 0x1 PUSH1 0x1 PUSH1 0xA0 SHL SUB NOT DUP2 AND DUP3 OR DUP4 SSTORE PUSH1 0x1 PUSH1 0x1 PUSH1 0xA0 SHL SUB AND PUSH32 0x8BE0079C531659141344CD1FD0A4F28419497F9722A3DAAFE3B4186F6B6457E0 DUP4 DUP1 LOG3 DUP1 RETURN JUMPDEST PUSH4 0x1E4FBDF7 PUSH1 0xE0 SHL DUP3 MSTORE PUSH1 0x4 DUP3 SWAP1 MSTORE PUSH1 0x24 DUP3 REVERT JUMPDEST POP CALLVALUE PUSH2 0x163 JUMPI PUSH1 0x20 CALLDATASIZE PUSH1 0x3 NOT ADD SLT PUSH2 0x163 JUMPI PUSH2 0x2F7 PUSH2 0x1704 JUMP JUMPDEST PUSH2 0x2FF PUSH2 0x1C43 JUMP JUMPDEST PUSH1 0x1 PUSH1 0x1 PUSH1 0xA0 SHL SUB AND DUP1 DUP3 MSTORE PUSH1 0x7 PUSH1 0x20 MSTORE PUSH1 0x40 DUP3 KECCAK256 SLOAD PUSH2 0x321 SWAP1 PUSH1 0xFF AND PUSH2 0x1C01 JUMP JUMPDEST DUP1 DUP3 MSTORE PUSH1 0x5 PUSH1 0x20 MSTORE PUSH1 0xFF PUSH1 0x1 PUSH1 0x40 DUP5 KECCAK256 ADD SLOAD PUSH1 0x8 SHR AND ISZERO PUSH2 0x39E JUMPI DUP1 DUP3 MSTORE PUSH1 0x5 PUSH1 0x20 MSTORE PUSH1 0x1 PUSH1 0x40 DUP4 KECCAK256 ADD PUSH2 0xFF00 NOT DUP2 SLOAD AND SWAP1 SSTORE DUP1 DUP3 MSTORE PUSH1 0x5 PUSH1 0x20 MSTORE PUSH32 0x27B6BF28C3EA625D8E992716AA9D93969A8DCB0EEC48431ED006234B270D403 PUSH2 0x398 PUSH1 0x40 DUP5 KECCAK256 PUSH1 0x40 MLOAD SWAP2 DUP3 SWAP2 PUSH1 0x20 DUP4 MSTORE PUSH1 0x20 DUP4 ADD SWAP1 PUSH2 0x18E5 JUMP JUMPDEST SUB SWAP1 LOG2 DUP1 RETURN JUMPDEST PUSH1 0x40 MLOAD PUSH3 0x461BCD PUSH1 0xE5 SHL DUP2 MSTORE PUSH1 0x20 PUSH1 0x4 DUP3 ADD MSTORE PUSH1 0x18 PUSH1 0x24 DUP3 ADD MSTORE PUSH32 0x5573657220697320616C726561647920696E6163746976650000000000000000 PUSH1 0x44 DUP3 ADD MSTORE PUSH1 0x64 SWAP1 REVERT JUMPDEST POP CALLVALUE PUSH2 0x163 JUMPI DUP1 PUSH1 0x3 NOT CALLDATASIZE ADD SLT PUSH2 0x163 JUMPI PUSH1 0x20 PUSH1 0x9 SLOAD PUSH1 0x40 MLOAD SWAP1 DUP2 MSTORE RETURN JUMPDEST POP CALLVALUE PUSH2 0x163 JUMPI PUSH1 0x20 CALLDATASIZE PUSH1 0x3 NOT ADD SLT PUSH2 0x163 JUMPI PUSH1 0x20 SWAP1 PUSH1 0xFF SWAP1 PUSH1 0x40 SWAP1 PUSH1 0x1 PUSH1 0x1 PUSH1 0xA0 SHL SUB PUSH2 0x42C PUSH2 0x1704 JUMP JUMPDEST AND DUP2 MSTORE PUSH1 0x7 DUP5 MSTORE KECCAK256 SLOAD AND PUSH1 0x40 MLOAD SWAP1 ISZERO ISZERO DUP2 MSTORE RETURN JUMPDEST POP CALLVALUE PUSH2 0x163 JUMPI DUP1 PUSH1 0x3 NOT CALLDATASIZE ADD SLT PUSH2 0x163 JUMPI PUSH1 0x20 PUSH1 0x2 SLOAD PUSH1 0x40 MLOAD SWAP1 DUP2 MSTORE RETURN JUMPDEST POP CALLVALUE PUSH2 0x163 JUMPI PUSH1 0x20 CALLDATASIZE PUSH1 0x3 NOT ADD SLT PUSH2 0x163 JUMPI PUSH2 0x478 PUSH2 0x1704 JUMP JUMPDEST PUSH2 0x480 PUSH2 0x1C43 JUMP JUMPDEST PUSH1 0x1 PUSH1 0x1 PUSH1 0xA0 SHL SUB AND DUP1 DUP3 MSTORE PUSH1 0x7 PUSH1 0x20 MSTORE PUSH1 0x40 DUP3 KECCAK256 SLOAD PUSH2 0x4A2 SWAP1 PUSH1 0xFF AND PUSH2 0x1C01 JUMP JUMPDEST DUP1 DUP3 MSTORE PUSH1 0x5 PUSH1 0x20 MSTORE PUSH1 0xFF PUSH1 0x1 PUSH1 0x40 DUP5 KECCAK256 ADD SLOAD AND ISZERO PUSH2 0x600 JUMPI DUP1 DUP3 MSTORE PUSH1 0x5 PUSH1 0x20 MSTORE PUSH1 0x40 DUP3 KECCAK256 PUSH1 0x1 ADD DUP1 SLOAD PUSH1 0xFF NOT AND SWAP1 SSTORE DUP2 JUMPDEST PUSH1 0x9 SLOAD DUP1 DUP3 LT ISZERO PUSH2 0x5F9 JUMPI DUP3 PUSH2 0x4E8 DUP4 PUSH2 0x17CB JUMP JUMPDEST SWAP1 SLOAD PUSH1 0x3 SWAP2 SWAP1 SWAP2 SHL SHR PUSH1 0x1 PUSH1 0x1 PUSH1 0xA0 SHL SUB AND EQ PUSH2 0x508 JUMPI POP PUSH1 0x1 ADD PUSH2 0x4D3 JUMP JUMPDEST PUSH1 0x0 NOT DUP2 ADD SWAP1 DUP2 GT PUSH2 0x5E5 JUMPI SWAP1 PUSH2 0x53C PUSH2 0x524 PUSH2 0x560 SWAP4 PUSH2 0x17CB JUMP JUMPDEST SWAP1 SLOAD PUSH1 0x3 SWAP2 SWAP1 SWAP2 SHL SHR PUSH1 0x1 PUSH1 0x1 PUSH1 0xA0 SHL SUB AND SWAP2 PUSH2 0x17CB JUMP JUMPDEST DUP2 SLOAD PUSH1 0x1 PUSH1 0x1 PUSH1 0xA0 SHL SUB SWAP4 DUP5 AND PUSH1 0x3 SWAP3 SWAP1 SWAP3 SHL SWAP2 DUP3 SHL SWAP4 SWAP1 SWAP2 SHL NOT AND SWAP2 SWAP1 SWAP2 OR SWAP1 SSTORE JUMP JUMPDEST PUSH1 0x9 SLOAD DUP1 ISZERO PUSH2 0x5D1 JUMPI PUSH1 0x0 NOT ADD PUSH2 0x576 DUP2 PUSH2 0x17CB JUMP JUMPDEST DUP2 SLOAD SWAP1 PUSH1 0x1 DUP1 PUSH1 0xA0 SHL SUB SWAP1 PUSH1 0x3 SHL SHL NOT AND SWAP1 SSTORE PUSH1 0x9 SSTORE JUMPDEST DUP1 DUP3 MSTORE PUSH1 0x5 PUSH1 0x20 MSTORE PUSH32 0xDDECE651176B4D76629E735760A05157F20556FB0AE07AD54BCE944723B5759F PUSH2 0x398 PUSH1 0x40 DUP5 KECCAK256 PUSH1 0x40 MLOAD SWAP2 DUP3 SWAP2 PUSH1 0x20 DUP4 MSTORE PUSH1 0x20 DUP4 ADD SWAP1 PUSH2 0x18E5 JUMP JUMPDEST PUSH4 0x4E487B71 PUSH1 0xE0 SHL DUP4 MSTORE PUSH1 0x31 PUSH1 0x4 MSTORE PUSH1 0x24 DUP4 REVERT JUMPDEST PUSH4 0x4E487B71 PUSH1 0xE0 SHL DUP5 MSTORE PUSH1 0x11 PUSH1 0x4 MSTORE PUSH1 0x24 DUP5 REVERT JUMPDEST POP POP PUSH2 0x58D JUMP JUMPDEST PUSH1 0x40 MLOAD PUSH3 0x461BCD PUSH1 0xE5 SHL DUP2 MSTORE PUSH1 0x20 PUSH1 0x4 DUP3 ADD MSTORE PUSH1 0x13 PUSH1 0x24 DUP3 ADD MSTORE PUSH19 0x155CD95C881A5CC81B9BDD081D1C9D5CDD1959 PUSH1 0x6A SHL PUSH1 0x44 DUP3 ADD MSTORE PUSH1 0x64 SWAP1 REVERT JUMPDEST POP CALLVALUE PUSH2 0x163 JUMPI PUSH1 0x20 CALLDATASIZE PUSH1 0x3 NOT ADD SLT PUSH2 0x163 JUMPI PUSH1 0x40 SWAP1 PUSH1 0x1 PUSH1 0x1 PUSH1 0xA0 SHL SUB PUSH2 0x660 PUSH2 0x1704 JUMP JUMPDEST AND DUP2 MSTORE PUSH1 0x5 PUSH1 0x20 MSTORE KECCAK256 PUSH1 0x40 MLOAD SWAP1 PUSH2 0x682 DUP3 PUSH2 0x67B DUP2 DUP5 PUSH2 0x18E5 JUMP JUMPDEST SUB DUP4 PUSH2 0x1752 JUMP JUMPDEST PUSH2 0x6C5 PUSH1 0x1 DUP3 ADD SLOAD SWAP2 PUSH1 0x2 DUP2 ADD SLOAD SWAP1 PUSH1 0x3 DUP2 ADD SLOAD PUSH1 0x5 PUSH1 0x4 DUP4 ADD SLOAD SWAP3 ADD SLOAD SWAP3 PUSH1 0x40 MLOAD SWAP7 DUP8 SWAP7 PUSH1 0x1 DUP1 PUSH1 0xA0 SHL SUB DUP2 PUSH1 0x10 SHR AND SWAP2 PUSH1 0xFF DUP1 DUP4 PUSH1 0x8 SHR AND SWAP3 AND SWAP1 DUP10 PUSH2 0x185C JUMP JUMPDEST SUB SWAP1 RETURN JUMPDEST POP CALLVALUE PUSH2 0x163 JUMPI PUSH1 0x20 CALLDATASIZE PUSH1 0x3 NOT ADD SLT PUSH2 0x163 JUMPI PUSH1 0x4 CALLDATALOAD SWAP1 PUSH1 0x8 SLOAD DUP3 LT ISZERO PUSH2 0x163 JUMPI PUSH1 0x8 SLOAD DUP3 LT ISZERO PUSH2 0x736 JUMPI PUSH1 0x8 DUP2 MSTORE PUSH32 0xF3F7A9FE364FAAB93B216DA50A3214154F22A0A2B415B23A84C8169E8B636EE3 SWAP1 SWAP2 ADD SLOAD PUSH1 0x40 MLOAD PUSH1 0x3 SWAP3 SWAP1 SWAP3 SHL SHR PUSH1 0x1 PUSH1 0x1 PUSH1 0xA0 SHL SUB AND DUP2 MSTORE PUSH1 0x20 SWAP1 RETURN JUMPDEST PUSH4 0x4E487B71 PUSH1 0xE0 SHL DUP2 MSTORE PUSH1 0x32 PUSH1 0x4 MSTORE PUSH1 0x24 SWAP1 REVERT JUMPDEST POP CALLVALUE PUSH2 0x163 JUMPI PUSH1 0x20 CALLDATASIZE PUSH1 0x3 NOT ADD SLT PUSH2 0x163 JUMPI PUSH1 0x4 CALLDATALOAD PUSH2 0x767 PUSH2 0x1C43 JUMP JUMPDEST DUP1 ISZERO PUSH2 0x79F JUMPI PUSH1 0x20 DUP2 PUSH32 0x41D466EBD06FB97E7786086AC8B69B7EB7DA798592036251291D34E9791CDE01 SWAP3 PUSH1 0x2 SSTORE PUSH1 0x40 MLOAD SWAP1 DUP2 MSTORE LOG1 DUP1 RETURN JUMPDEST PUSH1 0x40 MLOAD PUSH3 0x461BCD PUSH1 0xE5 SHL DUP2 MSTORE PUSH1 0x20 PUSH1 0x4 DUP3 ADD MSTORE PUSH1 0x22 PUSH1 0x24 DUP3 ADD MSTORE PUSH32 0x5265776172642072617465206D7573742062652067726561746572207468616E PUSH1 0x44 DUP3 ADD MSTORE PUSH2 0x203 PUSH1 0xF4 SHL PUSH1 0x64 DUP3 ADD MSTORE PUSH1 0x84 SWAP1 REVERT JUMPDEST POP CALLVALUE PUSH2 0x163 JUMPI DUP1 PUSH1 0x3 NOT CALLDATASIZE ADD SLT PUSH2 0x163 JUMPI PUSH1 0x20 PUSH1 0x8 SLOAD PUSH1 0x40 MLOAD SWAP1 DUP2 MSTORE RETURN JUMPDEST POP CALLVALUE PUSH2 0x163 JUMPI DUP1 PUSH1 0x3 NOT CALLDATASIZE ADD SLT PUSH2 0x163 JUMPI PUSH1 0x20 PUSH1 0xFF PUSH1 0x4 SLOAD AND PUSH1 0x40 MLOAD SWAP1 ISZERO ISZERO DUP2 MSTORE RETURN JUMPDEST POP CALLVALUE PUSH2 0x163 JUMPI DUP1 PUSH1 0x3 NOT CALLDATASIZE ADD SLT PUSH2 0x163 JUMPI SLOAD PUSH1 0x40 MLOAD PUSH1 0x1 PUSH1 0x1 PUSH1 0xA0 SHL SUB SWAP1 SWAP2 AND DUP2 MSTORE PUSH1 0x20 SWAP1 RETURN JUMPDEST POP CALLVALUE PUSH2 0x163 JUMPI DUP1 PUSH1 0x3 NOT CALLDATASIZE ADD SLT PUSH2 0x163 JUMPI PUSH1 0x40 MLOAD PUSH32 0x0 PUSH1 0x1 PUSH1 0x1 PUSH1 0xA0 SHL SUB AND DUP2 MSTORE PUSH1 0x20 SWAP1 RETURN JUMPDEST POP CALLVALUE PUSH2 0x163 JUMPI PUSH1 0x20 CALLDATASIZE PUSH1 0x3 NOT ADD SLT PUSH2 0x163 JUMPI PUSH1 0x4 CALLDATALOAD PUSH2 0x8B9 PUSH2 0x1C43 JUMP JUMPDEST PUSH1 0x64 DUP2 LT PUSH2 0x8F3 JUMPI PUSH1 0x20 DUP2 PUSH32 0xA22D6AF19C6F93CEC4CA5544959E3A75E8B4416139216080171F5662A64489E9 SWAP3 PUSH1 0x3 SSTORE PUSH1 0x40 MLOAD SWAP1 DUP2 MSTORE LOG1 DUP1 RETURN JUMPDEST PUSH1 0x40 MLOAD PUSH3 0x461BCD PUSH1 0xE5 SHL DUP2 MSTORE PUSH1 0x20 PUSH1 0x4 DUP3 ADD MSTORE PUSH1 0x24 DUP1 DUP3 ADD MSTORE PUSH32 0x4D756C7469706C696572206D757374206265206174206C656173742031303020 PUSH1 0x44 DUP3 ADD MSTORE PUSH4 0x28317829 PUSH1 0xE0 SHL PUSH1 0x64 DUP3 ADD MSTORE PUSH1 0x84 SWAP1 REVERT JUMPDEST POP CALLVALUE PUSH2 0x163 JUMPI PUSH1 0x40 CALLDATASIZE PUSH1 0x3 NOT ADD SLT PUSH2 0x163 JUMPI PUSH2 0x95E PUSH2 0x1704 JUMP JUMPDEST PUSH1 0x24 CALLDATALOAD PUSH8 0xFFFFFFFFFFFFFFFF DUP2 GT PUSH2 0xDC6 JUMPI PUSH2 0x97E SWAP1 CALLDATASIZE SWAP1 PUSH1 0x4 ADD PUSH2 0x1774 JUMP JUMPDEST SWAP1 PUSH2 0x987 PUSH2 0x1C43 JUMP JUMPDEST PUSH1 0x1 PUSH1 0x1 PUSH1 0xA0 SHL SUB DUP2 AND ISZERO PUSH2 0xD81 JUMPI PUSH2 0x9A2 DUP3 MLOAD ISZERO ISZERO PUSH2 0x1B24 JUMP JUMPDEST PUSH2 0x9D8 PUSH1 0x40 MLOAD DUP4 MLOAD PUSH2 0x9B8 DUP2 DUP4 PUSH1 0x20 DUP9 ADD PUSH2 0x1814 JUMP JUMPDEST PUSH1 0x6 SWAP1 DUP3 ADD SWAP1 DUP2 MSTORE DUP2 SWAP1 SUB PUSH1 0x20 ADD SWAP1 KECCAK256 SLOAD PUSH1 0x1 PUSH1 0x1 PUSH1 0xA0 SHL SUB AND ISZERO PUSH2 0x1B70 JUMP JUMPDEST PUSH1 0x1 PUSH1 0x1 PUSH1 0xA0 SHL SUB DUP2 AND DUP4 MSTORE PUSH1 0x7 PUSH1 0x20 MSTORE PUSH1 0x40 DUP4 KECCAK256 SLOAD PUSH1 0xFF AND PUSH2 0xCC3 JUMPI PUSH1 0x40 MLOAD PUSH2 0xA01 DUP2 PUSH2 0x171F JUMP JUMPDEST DUP3 DUP2 MSTORE PUSH1 0x1 PUSH1 0x20 DUP3 ADD MSTORE PUSH1 0x1 PUSH1 0x40 DUP3 ADD MSTORE DUP4 PUSH1 0x60 DUP3 ADD MSTORE DUP4 PUSH1 0x80 DUP3 ADD MSTORE TIMESTAMP PUSH1 0xA0 DUP3 ADD MSTORE DUP4 PUSH1 0xC0 DUP3 ADD MSTORE TIMESTAMP PUSH1 0xE0 DUP3 ADD MSTORE PUSH1 0x1 DUP1 PUSH1 0xA0 SHL SUB DUP3 AND DUP5 MSTORE PUSH1 0x5 PUSH1 0x20 MSTORE PUSH1 0x40 DUP5 KECCAK256 SWAP1 DUP1 MLOAD DUP1 MLOAD SWAP1 PUSH8 0xFFFFFFFFFFFFFFFF DUP3 GT PUSH2 0xCAF JUMPI PUSH2 0xA63 DUP5 SLOAD PUSH2 0x18AB JUMP JUMPDEST PUSH1 0x1F DUP2 GT PUSH2 0xC6E JUMPI JUMPDEST POP PUSH1 0x20 SWAP1 PUSH1 0x1F DUP4 GT PUSH1 0x1 EQ PUSH2 0xBE0 JUMPI PUSH32 0xE4AB0700C1B4AC7B07B68D06857075BCDDC95E5875B9E25CF4316A38A79B5FCD SWAP6 SWAP4 DUP4 PUSH2 0x398 SWAP7 SWAP5 PUSH1 0x5 SWAP5 PUSH1 0xE0 SWAP5 DUP13 SWAP3 PUSH2 0xBD5 JUMPI JUMPDEST POP POP DUP2 PUSH1 0x1 SHL SWAP2 PUSH1 0x0 NOT SWAP1 PUSH1 0x3 SHL SHR NOT AND OR DUP5 SSTORE JUMPDEST PUSH1 0x1 DUP5 ADD PUSH2 0xAE6 PUSH1 0x20 DUP4 ADD MLOAD ISZERO ISZERO DUP3 SWAP1 PUSH1 0xFF DUP1 NOT DUP4 SLOAD AND SWAP2 ISZERO ISZERO AND OR SWAP1 SSTORE JUMP JUMPDEST PUSH1 0x40 DUP3 ADD MLOAD DUP2 SLOAD PUSH2 0xFF00 NOT AND SWAP1 ISZERO ISZERO PUSH1 0x8 SHL PUSH2 0xFF00 AND OR DUP2 SSTORE PUSH1 0x60 DUP3 ADD MLOAD DUP2 SLOAD PUSH3 0x10000 PUSH1 0x1 PUSH1 0xB0 SHL SUB NOT AND PUSH1 0x10 SWAP2 SWAP1 SWAP2 SHL PUSH3 0x10000 PUSH1 0x1 PUSH1 0xB0 SHL SUB AND OR SWAP1 SSTORE PUSH1 0x80 DUP2 ADD MLOAD PUSH1 0x2 DUP6 ADD SSTORE PUSH1 0xA0 DUP2 ADD MLOAD PUSH1 0x3 DUP6 ADD SSTORE PUSH1 0xC0 DUP2 ADD MLOAD PUSH1 0x4 DUP6 ADD SSTORE ADD MLOAD SWAP2 ADD SSTORE PUSH1 0x1 PUSH1 0x1 PUSH1 0xA0 SHL SUB DUP2 AND DUP6 MSTORE PUSH1 0x7 PUSH1 0x20 SWAP1 DUP2 MSTORE PUSH1 0x40 DUP1 DUP8 KECCAK256 DUP1 SLOAD PUSH1 0xFF NOT AND PUSH1 0x1 OR SWAP1 SSTORE MLOAD DUP6 MLOAD SWAP1 SWAP2 SWAP1 DUP3 SWAP1 PUSH2 0xB81 DUP2 DUP4 DUP11 DUP7 ADD PUSH2 0x1814 JUMP JUMPDEST PUSH1 0x6 SWAP1 DUP3 ADD SWAP1 DUP2 MSTORE SUB ADD SWAP1 KECCAK256 DUP1 SLOAD PUSH1 0x1 PUSH1 0x1 PUSH1 0xA0 SHL SUB NOT AND PUSH1 0x1 PUSH1 0x1 PUSH1 0xA0 SHL SUB DUP4 AND OR SWAP1 SSTORE PUSH2 0xBAF DUP2 PUSH2 0x1BB5 JUMP JUMPDEST PUSH2 0xBB8 DUP2 PUSH2 0x1BDC JUMP JUMPDEST PUSH1 0x40 MLOAD SWAP2 DUP3 SWAP2 PUSH1 0x20 DUP4 MSTORE PUSH1 0x1 DUP1 PUSH1 0xA0 SHL SUB AND SWAP5 PUSH1 0x20 DUP4 ADD SWAP1 PUSH2 0x1837 JUMP JUMPDEST ADD MLOAD SWAP1 POP CODESIZE DUP1 PUSH2 0xAB1 JUMP JUMPDEST DUP5 DUP9 MSTORE DUP2 DUP9 KECCAK256 SWAP2 SWAP1 PUSH1 0x1F NOT DUP5 AND DUP10 JUMPDEST DUP2 DUP2 LT PUSH2 0xC56 JUMPI POP DUP5 PUSH1 0x5 SWAP5 PUSH1 0xE0 SWAP5 PUSH32 0xE4AB0700C1B4AC7B07B68D06857075BCDDC95E5875B9E25CF4316A38A79B5FCD SWAP11 SWAP9 SWAP5 PUSH2 0x398 SWAP11 SWAP9 PUSH1 0x1 SWAP6 LT PUSH2 0xC3D JUMPI JUMPDEST POP POP POP DUP2 SHL ADD DUP5 SSTORE PUSH2 0xAC6 JUMP JUMPDEST ADD MLOAD PUSH1 0x0 NOT PUSH1 0xF8 DUP5 PUSH1 0x3 SHL AND SHR NOT AND SWAP1 SSTORE CODESIZE DUP1 DUP1 PUSH2 0xC30 JUMP JUMPDEST SWAP3 SWAP4 PUSH1 0x20 PUSH1 0x1 DUP2 SWAP3 DUP8 DUP7 ADD MLOAD DUP2 SSTORE ADD SWAP6 ADD SWAP4 ADD PUSH2 0xBEF JUMP JUMPDEST DUP5 DUP9 MSTORE PUSH1 0x20 DUP9 KECCAK256 PUSH1 0x1F DUP5 ADD PUSH1 0x5 SHR DUP2 ADD PUSH1 0x20 DUP6 LT PUSH2 0xCA8 JUMPI JUMPDEST PUSH1 0x1F DUP4 ADD PUSH1 0x5 SHR DUP3 ADD DUP2 LT PUSH2 0xC9D JUMPI POP POP PUSH2 0xA6C JUMP JUMPDEST DUP10 DUP2 SSTORE PUSH1 0x1 ADD PUSH2 0xC87 JUMP JUMPDEST POP DUP1 PUSH2 0xC87 JUMP JUMPDEST PUSH4 0x4E487B71 PUSH1 0xE0 SHL DUP8 MSTORE PUSH1 0x41 PUSH1 0x4 MSTORE PUSH1 0x24 DUP8 REVERT JUMPDEST PUSH1 0x1 PUSH1 0x1 PUSH1 0xA0 SHL SUB DUP2 AND DUP4 MSTORE PUSH1 0x5 PUSH1 0x20 MSTORE PUSH1 0x40 DUP4 KECCAK256 PUSH1 0x1 ADD SLOAD PUSH1 0xFF AND PUSH2 0xD3C JUMPI PUSH1 0x1 PUSH1 0x1 PUSH1 0xA0 SHL SUB DUP2 AND DUP4 MSTORE PUSH1 0x5 PUSH1 0x20 MSTORE PUSH1 0x40 DUP4 KECCAK256 PUSH1 0x1 SWAP1 DUP2 ADD DUP1 SLOAD PUSH1 0xFF NOT AND SWAP1 SWAP2 OR SWAP1 SSTORE PUSH32 0xE4AB0700C1B4AC7B07B68D06857075BCDDC95E5875B9E25CF4316A38A79B5FCD SWAP1 PUSH2 0x398 SWAP1 PUSH2 0xD37 DUP2 PUSH2 0x1BDC JUMP JUMPDEST PUSH2 0xBB8 JUMP JUMPDEST PUSH1 0x40 MLOAD PUSH3 0x461BCD PUSH1 0xE5 SHL DUP2 MSTORE PUSH1 0x20 PUSH1 0x4 DUP3 ADD MSTORE PUSH1 0x17 PUSH1 0x24 DUP3 ADD MSTORE PUSH32 0x5573657220697320616C72656164792074727573746564000000000000000000 PUSH1 0x44 DUP3 ADD MSTORE PUSH1 0x64 SWAP1 REVERT JUMPDEST PUSH1 0x40 MLOAD PUSH3 0x461BCD PUSH1 0xE5 SHL DUP2 MSTORE PUSH1 0x20 PUSH1 0x4 DUP3 ADD MSTORE PUSH1 0x1B PUSH1 0x24 DUP3 ADD MSTORE PUSH32 0x5573657220616464726573732063616E6E6F74206265207A65726F0000000000 PUSH1 0x44 DUP3 ADD MSTORE PUSH1 0x64 SWAP1 REVERT JUMPDEST DUP3 DUP1 REVERT JUMPDEST POP CALLVALUE PUSH2 0x163 JUMPI DUP1 PUSH1 0x3 NOT CALLDATASIZE ADD SLT PUSH2 0x163 JUMPI PUSH1 0x40 MLOAD DUP1 PUSH1 0x20 PUSH1 0x9 SLOAD SWAP2 DUP3 DUP2 MSTORE ADD DUP1 SWAP2 PUSH1 0x9 DUP6 MSTORE PUSH32 0x6E1540171B6C0C960B71A7020D9F60077F6AF931A8BBF590DA0223DACF75C7AF SWAP1 DUP6 JUMPDEST DUP2 DUP2 LT PUSH2 0xE73 JUMPI POP POP POP DUP3 PUSH2 0xE29 SWAP2 SUB DUP4 PUSH2 0x1752 JUMP JUMPDEST PUSH1 0x40 MLOAD SWAP3 DUP4 SWAP3 PUSH1 0x20 DUP5 ADD SWAP1 PUSH1 0x20 DUP6 MSTORE MLOAD DUP1 SWAP2 MSTORE PUSH1 0x40 DUP5 ADD SWAP3 SWAP2 JUMPDEST DUP2 DUP2 LT PUSH2 0xE51 JUMPI POP POP POP SUB SWAP1 RETURN JUMPDEST DUP3 MLOAD PUSH1 0x1 PUSH1 0x1 PUSH1 0xA0 SHL SUB AND DUP5 MSTORE DUP6 SWAP5 POP PUSH1 0x20 SWAP4 DUP5 ADD SWAP4 SWAP1 SWAP3 ADD SWAP2 PUSH1 0x1 ADD PUSH2 0xE43 JUMP JUMPDEST DUP3 SLOAD PUSH1 0x1 PUSH1 0x1 PUSH1 0xA0 SHL SUB AND DUP5 MSTORE PUSH1 0x20 SWAP1 SWAP4 ADD SWAP3 PUSH1 0x1 SWAP3 DUP4 ADD SWAP3 ADD PUSH2 0xE13 JUMP JUMPDEST POP CALLVALUE PUSH2 0x163 JUMPI DUP1 PUSH1 0x3 NOT CALLDATASIZE ADD SLT PUSH2 0x163 JUMPI PUSH2 0xEAB PUSH2 0x1C43 JUMP JUMPDEST DUP1 SLOAD PUSH1 0x1 PUSH1 0x1 PUSH1 0xA0 SHL SUB NOT DUP2 AND DUP3 SSTORE DUP2 SWAP1 PUSH1 0x1 PUSH1 0x1 PUSH1 0xA0 SHL SUB AND PUSH32 0x8BE0079C531659141344CD1FD0A4F28419497F9722A3DAAFE3B4186F6B6457E0 DUP3 DUP1 LOG3 DUP1 RETURN JUMPDEST POP CALLVALUE PUSH2 0x163 JUMPI PUSH1 0x20 CALLDATASIZE PUSH1 0x3 NOT ADD SLT PUSH2 0x163 JUMPI PUSH2 0xF6C SWAP1 PUSH2 0x6C5 PUSH1 0x40 PUSH2 0xF0F PUSH2 0x1704 JUMP JUMPDEST PUSH1 0x1 PUSH1 0x1 PUSH1 0xA0 SHL SUB DUP2 AND DUP1 DUP6 MSTORE PUSH1 0x7 PUSH1 0x20 MSTORE DUP3 DUP6 KECCAK256 SLOAD SWAP2 SWAP5 SWAP2 PUSH2 0xF34 SWAP1 PUSH1 0xFF AND PUSH2 0x1C01 JUMP JUMPDEST DUP2 MSTORE PUSH1 0x5 PUSH1 0x20 MSTORE KECCAK256 PUSH1 0x1 DUP2 ADD SLOAD SWAP3 PUSH1 0x2 DUP3 ADD SLOAD SWAP1 PUSH2 0xF56 PUSH1 0x4 DUP5 ADD SLOAD SWAP2 PUSH2 0x199E JUMP JUMPDEST SWAP2 PUSH2 0xF73 PUSH1 0x5 DUP6 ADD SLOAD SWAP5 PUSH1 0x40 MLOAD SWAP9 DUP10 DUP1 SWAP3 PUSH2 0x18E5 JUMP JUMPDEST SUB DUP9 PUSH2 0x1752 JUMP JUMPDEST PUSH1 0x40 MLOAD SWAP7 DUP8 SWAP7 PUSH1 0x1 PUSH1 0x1 PUSH1 0xA0 SHL SUB PUSH1 0x10 DUP3 SWAP1 SHR AND SWAP2 PUSH1 0xFF PUSH1 0x8 DUP4 SWAP1 SHR DUP2 AND SWAP3 AND SWAP1 DUP10 PUSH2 0x185C JUMP JUMPDEST POP CALLVALUE PUSH2 0x163 JUMPI PUSH1 0x20 CALLDATASIZE PUSH1 0x3 NOT ADD SLT PUSH2 0x163 JUMPI PUSH1 0x4 CALLDATALOAD SWAP1 PUSH1 0x9 SLOAD DUP3 LT ISZERO PUSH2 0x163 JUMPI PUSH1 0x20 PUSH2 0xFC5 DUP4 PUSH2 0x17CB JUMP JUMPDEST SWAP1 SLOAD PUSH1 0x40 MLOAD PUSH1 0x3 SWAP3 SWAP1 SWAP3 SHL SHR PUSH1 0x1 PUSH1 0x1 PUSH1 0xA0 SHL SUB AND DUP2 MSTORE RETURN JUMPDEST POP CALLVALUE PUSH2 0x163 JUMPI DUP1 PUSH1 0x3 NOT CALLDATASIZE ADD SLT PUSH2 0x163 JUMPI CALLER DUP2 MSTORE PUSH1 0x7 PUSH1 0x20 MSTORE PUSH2 0x1007 PUSH1 0xFF PUSH1 0x40 DUP4 KECCAK256 SLOAD AND PUSH2 0x1C01 JUMP JUMPDEST CALLER DUP2 MSTORE PUSH1 0x5 PUSH1 0x20 MSTORE PUSH1 0xFF PUSH1 0x1 PUSH1 0x40 DUP4 KECCAK256 ADD SLOAD PUSH1 0x8 SHR AND ISZERO PUSH2 0x117A JUMPI PUSH2 0x1030 PUSH1 0xFF PUSH1 0x4 SLOAD AND PUSH2 0x1AD8 JUMP JUMPDEST PUSH1 0x2 PUSH1 0x1 SLOAD EQ PUSH2 0x116B JUMPI PUSH1 0x2 PUSH1 0x1 SSTORE PUSH2 0x1048 CALLER PUSH2 0x199E JUMP JUMPDEST SWAP1 DUP2 ISZERO PUSH2 0x1130 JUMPI CALLER DUP2 MSTORE PUSH1 0x5 PUSH1 0x20 MSTORE TIMESTAMP PUSH1 0x3 PUSH1 0x40 DUP4 KECCAK256 ADD SSTORE CALLER DUP2 MSTORE PUSH1 0x5 PUSH1 0x20 MSTORE PUSH1 0x4 PUSH1 0x40 DUP3 KECCAK256 ADD PUSH2 0x107A DUP4 DUP3 SLOAD PUSH2 0x1991 JUMP JUMPDEST SWAP1 SSTORE PUSH32 0x0 PUSH1 0x1 PUSH1 0x1 PUSH1 0xA0 SHL SUB AND DUP1 EXTCODESIZE ISZERO PUSH2 0x112C JUMPI DUP2 DUP1 SWAP2 PUSH1 0x44 PUSH1 0x40 MLOAD DUP1 SWAP5 DUP2 SWAP4 PUSH4 0x40C10F19 PUSH1 0xE0 SHL DUP4 MSTORE CALLER PUSH1 0x4 DUP5 ADD MSTORE DUP9 PUSH1 0x24 DUP5 ADD MSTORE GAS CALL DUP1 ISZERO PUSH2 0x1121 JUMPI PUSH2 0x1111 JUMPI JUMPDEST POP SWAP1 PUSH1 0x40 MLOAD SWAP1 DUP2 MSTORE PUSH32 0x896E034966EAAF1ADC54ACC0F257056FEBBD300C9E47182CF761982CF1F5E430 PUSH1 0x20 CALLER SWAP3 LOG2 PUSH1 0x1 DUP1 SSTORE DUP1 RETURN JUMPDEST DUP2 PUSH2 0x111B SWAP2 PUSH2 0x1752 JUMP JUMPDEST CODESIZE PUSH2 0x10DC JUMP JUMPDEST PUSH1 0x40 MLOAD RETURNDATASIZE DUP5 DUP3 RETURNDATACOPY RETURNDATASIZE SWAP1 REVERT JUMPDEST POP DUP1 REVERT JUMPDEST PUSH1 0x40 MLOAD PUSH3 0x461BCD PUSH1 0xE5 SHL DUP2 MSTORE PUSH1 0x20 PUSH1 0x4 DUP3 ADD MSTORE PUSH1 0x13 PUSH1 0x24 DUP3 ADD MSTORE PUSH19 0x4E6F207265776172647320746F20636C61696D PUSH1 0x68 SHL PUSH1 0x44 DUP3 ADD MSTORE PUSH1 0x64 SWAP1 REVERT JUMPDEST PUSH4 0x3EE5AEB5 PUSH1 0xE0 SHL DUP2 MSTORE PUSH1 0x4 SWAP1 REVERT JUMPDEST PUSH1 0x40 MLOAD PUSH3 0x461BCD PUSH1 0xE5 SHL DUP2 MSTORE PUSH1 0x20 PUSH1 0x4 DUP3 ADD MSTORE PUSH1 0x12 PUSH1 0x24 DUP3 ADD MSTORE PUSH18 0x55736572206973206E6F7420616374697665 PUSH1 0x70 SHL PUSH1 0x44 DUP3 ADD MSTORE PUSH1 0x64 SWAP1 REVERT JUMPDEST POP CALLVALUE PUSH2 0x163 JUMPI DUP1 PUSH1 0x3 NOT CALLDATASIZE ADD SLT PUSH2 0x163 JUMPI PUSH2 0x11CD PUSH2 0x1C43 JUMP JUMPDEST PUSH32 0x23AC23F9A3D47C9CFF74AA16364727D0DCEDEC5665B037FDFC2C171D4B352797 PUSH1 0x20 PUSH1 0x4 SLOAD PUSH1 0xFF DUP1 DUP3 AND ISZERO AND DUP1 SWAP2 PUSH1 0xFF NOT AND OR PUSH1 0x4 SSTORE PUSH1 0x40 MLOAD SWAP1 ISZERO ISZERO DUP2 MSTORE LOG1 DUP1 RETURN JUMPDEST POP CALLVALUE PUSH2 0x163 JUMPI PUSH1 0x40 CALLDATASIZE PUSH1 0x3 NOT ADD SLT PUSH2 0x163 JUMPI PUSH1 0x4 CALLDATALOAD PUSH8 0xFFFFFFFFFFFFFFFF DUP2 GT PUSH2 0x112C JUMPI PUSH2 0x1242 SWAP1 CALLDATASIZE SWAP1 PUSH1 0x4 ADD PUSH2 0x1774 JUMP JUMPDEST SWAP1 PUSH1 0x24 CALLDATALOAD PUSH1 0x1 PUSH1 0x1 PUSH1 0xA0 SHL SUB DUP2 AND DUP2 SUB PUSH2 0x112C JUMPI PUSH2 0x1264 PUSH1 0xFF PUSH1 0x4 SLOAD AND PUSH2 0x1AD8 JUMP JUMPDEST CALLER DUP3 MSTORE PUSH1 0x7 PUSH1 0x20 MSTORE PUSH1 0xFF PUSH1 0x40 DUP4 KECCAK256 SLOAD AND PUSH2 0x1693 JUMPI PUSH2 0x1284 DUP4 MLOAD ISZERO ISZERO PUSH2 0x1B24 JUMP JUMPDEST PUSH2 0x129A PUSH1 0x40 MLOAD DUP5 MLOAD PUSH2 0x9B8 DUP2 DUP4 PUSH1 0x20 DUP10 ADD PUSH2 0x1814 JUMP JUMPDEST PUSH1 0x1 PUSH1 0x1 PUSH1 0xA0 SHL SUB DUP2 AND CALLER EQ PUSH2 0x1656 JUMPI PUSH1 0x1 PUSH1 0x1 PUSH1 0xA0 SHL SUB DUP2 AND DUP3 MSTORE PUSH1 0x5 PUSH1 0x20 MSTORE PUSH1 0x40 DUP3 KECCAK256 PUSH1 0x1 ADD SLOAD PUSH1 0xFF AND ISZERO PUSH2 0x1611 JUMPI PUSH1 0x1 PUSH1 0x1 PUSH1 0xA0 SHL SUB DUP2 AND DUP3 MSTORE PUSH1 0x5 PUSH1 0x20 MSTORE PUSH1 0x40 DUP3 KECCAK256 PUSH1 0x1 ADD SLOAD PUSH1 0x8 SHR PUSH1 0xFF AND ISZERO PUSH2 0x15CC JUMPI PUSH1 0x40 MLOAD SWAP3 PUSH2 0x12FC DUP5 PUSH2 0x171F JUMP JUMPDEST DUP1 DUP5 MSTORE PUSH1 0x20 DUP5 ADD SWAP4 DUP4 DUP6 MSTORE PUSH1 0x40 DUP2 ADD SWAP5 PUSH1 0x1 DUP7 MSTORE PUSH1 0x60 DUP3 ADD SWAP1 PUSH1 0x1 DUP1 PUSH1 0xA0 SHL SUB DUP6 AND DUP3 MSTORE PUSH1 0x80 DUP4 ADD DUP7 DUP2 MSTORE PUSH1 0xA0 DUP5 ADD SWAP1 TIMESTAMP DUP3 MSTORE PUSH1 0xC0 DUP6 ADD SWAP3 DUP9 DUP5 MSTORE PUSH1 0xE0 DUP7 ADD SWAP5 TIMESTAMP DUP7 MSTORE CALLER DUP11 MSTORE PUSH1 0x5 PUSH1 0x20 MSTORE PUSH1 0x40 DUP11 KECCAK256 SWAP7 MLOAD SWAP11 DUP12 MLOAD PUSH8 0xFFFFFFFFFFFFFFFF DUP2 GT PUSH2 0x15B8 JUMPI PUSH2 0x1369 DUP10 SLOAD PUSH2 0x18AB JUMP JUMPDEST PUSH1 0x1F DUP2 GT PUSH2 0x156E JUMPI JUMPDEST POP PUSH1 0x20 SWAP13 PUSH1 0x1F DUP3 GT PUSH1 0x1 EQ PUSH2 0x14FE JUMPI SWAP1 DUP1 DUP14 SWAP15 PUSH2 0x13DF SWAP5 SWAP4 PUSH1 0x5 SWAP13 SWAP14 SWAP15 SWAP16 SWAP3 PUSH2 0x14F3 JUMPI JUMPDEST POP POP DUP2 PUSH1 0x1 SHL SWAP2 PUSH1 0x0 NOT SWAP1 PUSH1 0x3 SHL SHR NOT AND OR DUP11 SSTORE JUMPDEST PUSH2 0x13C8 PUSH1 0x1 DUP12 ADD SWAP5 MLOAD ISZERO ISZERO DUP6 SWAP1 PUSH1 0xFF DUP1 NOT DUP4 SLOAD AND SWAP2 ISZERO ISZERO AND OR SWAP1 SSTORE JUMP JUMPDEST MLOAD DUP4 SLOAD PUSH2 0xFF00 NOT AND SWAP1 ISZERO ISZERO PUSH1 0x8 SHL PUSH2 0xFF00 AND OR DUP4 SSTORE JUMP JUMPDEST MLOAD DUP2 SLOAD PUSH3 0x10000 PUSH1 0x1 PUSH1 0xB0 SHL SUB NOT AND PUSH1 0x10 SWAP2 SWAP1 SWAP2 SHL PUSH3 0x10000 PUSH1 0x1 PUSH1 0xB0 SHL SUB AND OR SWAP1 SSTORE MLOAD PUSH1 0x2 DUP7 ADD SSTORE MLOAD PUSH1 0x3 DUP6 ADD SSTORE MLOAD PUSH1 0x4 DUP5 ADD SSTORE MLOAD SWAP2 ADD SSTORE CALLER DUP4 MSTORE PUSH1 0x7 PUSH1 0x20 SWAP1 DUP2 MSTORE PUSH1 0x40 DUP1 DUP6 KECCAK256 DUP1 SLOAD PUSH1 0xFF NOT AND PUSH1 0x1 OR SWAP1 SSTORE MLOAD DUP3 MLOAD SWAP1 SWAP2 SWAP1 DUP3 SWAP1 PUSH2 0x1447 DUP2 DUP4 DUP8 DUP7 ADD PUSH2 0x1814 JUMP JUMPDEST PUSH1 0x6 SWAP1 DUP3 ADD SWAP1 DUP2 MSTORE SUB ADD SWAP1 KECCAK256 DUP1 SLOAD PUSH1 0x1 PUSH1 0x1 PUSH1 0xA0 SHL SUB NOT AND CALLER SWAP1 DUP2 OR SWAP1 SWAP2 SSTORE PUSH2 0x146F SWAP1 PUSH2 0x1BB5 JUMP JUMPDEST PUSH1 0x1 PUSH1 0x1 PUSH1 0xA0 SHL SUB DUP3 AND DUP4 MSTORE PUSH1 0x5 PUSH1 0x20 MSTORE PUSH1 0x40 DUP4 KECCAK256 PUSH1 0x2 ADD DUP1 SLOAD PUSH1 0x0 NOT DUP2 EQ PUSH2 0x14DF JUMPI PUSH1 0x1 ADD SWAP1 SSTORE PUSH32 0x43864134AF361805265E0C6A51A53B97A54D02D4753018D0D1EF2D19A44FF602 PUSH1 0x40 MLOAD SWAP3 PUSH1 0x20 DUP5 MSTORE PUSH1 0x1 DUP1 PUSH1 0xA0 SHL SUB AND SWAP3 DUP1 PUSH2 0x14D9 CALLER SWAP5 PUSH1 0x20 DUP4 ADD SWAP1 PUSH2 0x1837 JUMP JUMPDEST SUB SWAP1 LOG3 DUP1 RETURN JUMPDEST PUSH4 0x4E487B71 PUSH1 0xE0 SHL DUP6 MSTORE PUSH1 0x11 PUSH1 0x4 MSTORE PUSH1 0x24 DUP6 REVERT JUMPDEST ADD MLOAD SWAP1 POP CODESIZE DUP1 PUSH2 0x1396 JUMP JUMPDEST DUP10 DUP14 MSTORE DUP14 DUP14 KECCAK256 SWAP14 SWAP1 PUSH1 0x1F NOT DUP4 AND DUP15 JUMPDEST DUP2 DUP2 LT PUSH2 0x1554 JUMPI POP SWAP15 PUSH1 0x5 SWAP12 SWAP13 SWAP14 SWAP15 SWAP16 SWAP3 DUP5 SWAP3 PUSH2 0x13DF SWAP7 SWAP6 PUSH1 0x1 SWAP6 LT PUSH2 0x153B JUMPI JUMPDEST POP POP POP DUP2 SHL ADD DUP11 SSTORE PUSH2 0x13AB JUMP JUMPDEST ADD MLOAD PUSH1 0x0 NOT PUSH1 0xF8 DUP5 PUSH1 0x3 SHL AND SHR NOT AND SWAP1 SSTORE CODESIZE DUP1 DUP1 PUSH2 0x152E JUMP JUMPDEST SWAP16 DUP4 DUP4 ADD MLOAD DUP2 SSTORE PUSH1 0x1 ADD SWAP3 PUSH1 0x20 ADD SWAP16 PUSH1 0x20 ADD SWAP16 SWAP3 SWAP16 PUSH2 0x150D JUMP JUMPDEST DUP10 DUP14 MSTORE PUSH1 0x20 DUP14 KECCAK256 PUSH1 0x1F DUP4 ADD PUSH1 0x5 SHR DUP2 ADD SWAP2 PUSH1 0x20 DUP5 LT PUSH2 0x15AE JUMPI JUMPDEST PUSH1 0x1F ADD PUSH1 0x5 SHR ADD SWAP1 DUP14 SWAP1 JUMPDEST DUP3 DUP2 LT PUSH2 0x15A1 JUMPI POP POP PUSH2 0x1372 JUMP JUMPDEST PUSH1 0x1 SWAP2 DUP2 SSTORE ADD DUP14 SWAP1 PUSH2 0x1593 JUMP JUMPDEST SWAP1 SWAP2 POP DUP2 SWAP1 PUSH2 0x1588 JUMP JUMPDEST PUSH4 0x4E487B71 PUSH1 0xE0 SHL DUP13 MSTORE PUSH1 0x41 PUSH1 0x4 MSTORE PUSH1 0x24 DUP13 REVERT JUMPDEST PUSH1 0x40 MLOAD PUSH3 0x461BCD PUSH1 0xE5 SHL DUP2 MSTORE PUSH1 0x20 PUSH1 0x4 DUP3 ADD MSTORE PUSH1 0x17 PUSH1 0x24 DUP3 ADD MSTORE PUSH32 0x5265666572726572206D75737420626520616374697665000000000000000000 PUSH1 0x44 DUP3 ADD MSTORE PUSH1 0x64 SWAP1 REVERT JUMPDEST PUSH1 0x40 MLOAD PUSH3 0x461BCD PUSH1 0xE5 SHL DUP2 MSTORE PUSH1 0x20 PUSH1 0x4 DUP3 ADD MSTORE PUSH1 0x18 PUSH1 0x24 DUP3 ADD MSTORE PUSH32 0x5265666572726572206D75737420626520747275737465640000000000000000 PUSH1 0x44 DUP3 ADD MSTORE PUSH1 0x64 SWAP1 REVERT JUMPDEST PUSH1 0x40 MLOAD PUSH3 0x461BCD PUSH1 0xE5 SHL DUP2 MSTORE PUSH1 0x20 PUSH1 0x4 DUP3 ADD MSTORE PUSH1 0x15 PUSH1 0x24 DUP3 ADD MSTORE PUSH21 0x21B0B73737BA103932B332B9103CB7BAB939B2B633 PUSH1 0x59 SHL PUSH1 0x44 DUP3 ADD MSTORE PUSH1 0x64 SWAP1 REVERT JUMPDEST PUSH1 0x40 MLOAD PUSH3 0x461BCD PUSH1 0xE5 SHL DUP2 MSTORE PUSH1 0x20 PUSH1 0x4 DUP3 ADD MSTORE PUSH1 0x17 PUSH1 0x24 DUP3 ADD MSTORE PUSH32 0x5573657220616C72656164792072656769737465726564000000000000000000 PUSH1 0x44 DUP3 ADD MSTORE PUSH1 0x64 SWAP1 REVERT JUMPDEST POP CALLVALUE PUSH2 0x163 JUMPI PUSH1 0x20 CALLDATASIZE PUSH1 0x3 NOT ADD SLT PUSH2 0x163 JUMPI PUSH1 0x20 PUSH2 0x16FC PUSH2 0x16F7 PUSH2 0x1704 JUMP JUMPDEST PUSH2 0x199E JUMP JUMPDEST PUSH1 0x40 MLOAD SWAP1 DUP2 MSTORE RETURN JUMPDEST PUSH1 0x4 CALLDATALOAD SWAP1 PUSH1 0x1 PUSH1 0x1 PUSH1 0xA0 SHL SUB DUP3 AND DUP3 SUB PUSH2 0x171A JUMPI JUMP JUMPDEST PUSH1 0x0 DUP1 REVERT JUMPDEST PUSH2 0x100 DUP2 ADD SWAP1 DUP2 LT PUSH8 0xFFFFFFFFFFFFFFFF DUP3 GT OR PUSH2 0x173C JUMPI PUSH1 0x40 MSTORE JUMP JUMPDEST PUSH4 0x4E487B71 PUSH1 0xE0 SHL PUSH1 0x0 MSTORE PUSH1 0x41 PUSH1 0x4 MSTORE PUSH1 0x24 PUSH1 0x0 REVERT JUMPDEST SWAP1 PUSH1 0x1F DUP1 NOT SWAP2 ADD AND DUP2 ADD SWAP1 DUP2 LT PUSH8 0xFFFFFFFFFFFFFFFF DUP3 GT OR PUSH2 0x173C JUMPI PUSH1 0x40 MSTORE JUMP JUMPDEST DUP2 PUSH1 0x1F DUP3 ADD SLT ISZERO PUSH2 0x171A JUMPI DUP1 CALLDATALOAD SWAP1 PUSH8 0xFFFFFFFFFFFFFFFF DUP3 GT PUSH2 0x173C JUMPI PUSH1 0x40 MLOAD SWAP3 PUSH2 0x17A9 PUSH1 0x1F DUP5 ADD PUSH1 0x1F NOT AND PUSH1 0x20 ADD DUP6 PUSH2 0x1752 JUMP JUMPDEST DUP3 DUP5 MSTORE PUSH1 0x20 DUP4 DUP4 ADD ADD GT PUSH2 0x171A JUMPI DUP2 PUSH1 0x0 SWAP3 PUSH1 0x20 DUP1 SWAP4 ADD DUP4 DUP7 ADD CALLDATACOPY DUP4 ADD ADD MSTORE SWAP1 JUMP JUMPDEST PUSH1 0x9 SLOAD DUP2 LT ISZERO PUSH2 0x17E6 JUMPI PUSH1 0x9 PUSH1 0x0 MSTORE PUSH1 0x20 PUSH1 0x0 KECCAK256 ADD SWAP1 PUSH1 0x0 SWAP1 JUMP JUMPDEST PUSH4 0x4E487B71 PUSH1 0xE0 SHL PUSH1 0x0 MSTORE PUSH1 0x32 PUSH1 0x4 MSTORE PUSH1 0x24 PUSH1 0x0 REVERT JUMPDEST DUP1 SLOAD DUP3 LT ISZERO PUSH2 0x17E6 JUMPI PUSH1 0x0 MSTORE PUSH1 0x20 PUSH1 0x0 KECCAK256 ADD SWAP1 PUSH1 0x0 SWAP1 JUMP JUMPDEST PUSH1 0x0 JUMPDEST DUP4 DUP2 LT PUSH2 0x1827 JUMPI POP POP PUSH1 0x0 SWAP2 ADD MSTORE JUMP JUMPDEST DUP2 DUP2 ADD MLOAD DUP4 DUP3 ADD MSTORE PUSH1 0x20 ADD PUSH2 0x1817 JUMP JUMPDEST SWAP1 PUSH1 0x20 SWAP2 PUSH2 0x1850 DUP2 MLOAD DUP1 SWAP3 DUP2 DUP6 MSTORE DUP6 DUP1 DUP7 ADD SWAP2 ADD PUSH2 0x1814 JUMP JUMPDEST PUSH1 0x1F ADD PUSH1 0x1F NOT AND ADD ADD SWAP1 JUMP JUMPDEST SWAP5 SWAP2 SWAP9 SWAP8 SWAP7 SWAP4 SWAP1 SWAP3 PUSH2 0x187B PUSH1 0xE0 SWAP8 SWAP5 PUSH2 0x100 DUP9 MSTORE PUSH2 0x100 DUP9 ADD SWAP1 PUSH2 0x1837 JUMP JUMPDEST SWAP10 ISZERO ISZERO PUSH1 0x20 DUP8 ADD MSTORE ISZERO ISZERO PUSH1 0x40 DUP7 ADD MSTORE PUSH1 0x1 PUSH1 0x1 PUSH1 0xA0 SHL SUB AND PUSH1 0x60 DUP6 ADD MSTORE PUSH1 0x80 DUP5 ADD MSTORE PUSH1 0xA0 DUP4 ADD MSTORE PUSH1 0xC0 DUP3 ADD MSTORE ADD MSTORE JUMP JUMPDEST SWAP1 PUSH1 0x1 DUP3 DUP2 SHR SWAP3 AND DUP1 ISZERO PUSH2 0x18DB JUMPI JUMPDEST PUSH1 0x20 DUP4 LT EQ PUSH2 0x18C5 JUMPI JUMP JUMPDEST PUSH4 0x4E487B71 PUSH1 0xE0 SHL PUSH1 0x0 MSTORE PUSH1 0x22 PUSH1 0x4 MSTORE PUSH1 0x24 PUSH1 0x0 REVERT JUMPDEST SWAP2 PUSH1 0x7F AND SWAP2 PUSH2 0x18BA JUMP JUMPDEST PUSH1 0x0 SWAP3 SWAP2 DUP2 SLOAD SWAP2 PUSH2 0x18F5 DUP4 PUSH2 0x18AB JUMP JUMPDEST DUP1 DUP4 MSTORE SWAP3 PUSH1 0x1 DUP2 AND SWAP1 DUP2 ISZERO PUSH2 0x194B JUMPI POP PUSH1 0x1 EQ PUSH2 0x1911 JUMPI POP POP POP JUMP JUMPDEST PUSH1 0x0 SWAP1 DUP2 MSTORE PUSH1 0x20 DUP2 KECCAK256 SWAP4 SWAP5 POP SWAP2 SWAP3 JUMPDEST DUP4 DUP4 LT PUSH2 0x1931 JUMPI POP PUSH1 0x20 SWAP3 POP ADD ADD SWAP1 JUMP JUMPDEST PUSH1 0x1 DUP2 PUSH1 0x20 SWAP3 SWAP5 SWAP4 SWAP5 SLOAD DUP4 DUP6 DUP8 ADD ADD MSTORE ADD SWAP2 ADD SWAP2 SWAP1 PUSH2 0x1920 JUMP JUMPDEST SWAP2 POP POP PUSH1 0x20 SWAP4 SWAP5 POP PUSH1 0xFF SWAP3 SWAP2 SWAP3 NOT AND DUP4 DUP4 ADD MSTORE ISZERO ISZERO PUSH1 0x5 SHL ADD ADD SWAP1 JUMP JUMPDEST DUP2 DUP2 MUL SWAP3 SWAP2 DUP2 ISZERO SWAP2 DUP5 DIV EQ OR ISZERO PUSH2 0x197B JUMPI JUMP JUMPDEST PUSH4 0x4E487B71 PUSH1 0xE0 SHL PUSH1 0x0 MSTORE PUSH1 0x11 PUSH1 0x4 MSTORE PUSH1 0x24 PUSH1 0x0 REVERT JUMPDEST SWAP2 SWAP1 DUP3 ADD DUP1 SWAP3 GT PUSH2 0x197B JUMPI JUMP JUMPDEST PUSH1 0x1 PUSH1 0x1 PUSH1 0xA0 SHL SUB AND PUSH1 0x0 DUP2 DUP2 MSTORE PUSH1 0x7 PUSH1 0x20 MSTORE PUSH1 0x40 SWAP1 KECCAK256 SLOAD PUSH1 0xFF AND ISZERO DUP1 ISZERO PUSH2 0x1AB9 JUMPI JUMPDEST DUP1 ISZERO PUSH2 0x1AAC JUMPI JUMPDEST PUSH2 0x1AA6 JUMPI PUSH1 0x0 MSTORE PUSH1 0x5 PUSH1 0x20 MSTORE PUSH1 0x40 PUSH1 0x0 KECCAK256 PUSH1 0x40 MLOAD SWAP1 PUSH2 0x19E6 DUP3 PUSH2 0x171F JUMP JUMPDEST PUSH1 0x40 MLOAD PUSH2 0x19FE DUP2 PUSH2 0x19F7 DUP2 DUP6 PUSH2 0x18E5 JUMP JUMPDEST SUB DUP3 PUSH2 0x1752 JUMP JUMPDEST DUP3 MSTORE PUSH1 0x1 DUP2 ADD SLOAD PUSH1 0xFF DUP2 AND ISZERO ISZERO PUSH1 0x20 DUP5 ADD MSTORE PUSH1 0xFF DUP2 PUSH1 0x8 SHR AND ISZERO ISZERO PUSH1 0x40 DUP5 ADD MSTORE PUSH1 0x1 DUP1 PUSH1 0xA0 SHL SUB SWAP1 PUSH1 0x10 SHR AND PUSH1 0x60 DUP4 ADD MSTORE PUSH1 0x2 DUP2 ADD SLOAD SWAP2 PUSH1 0x80 DUP2 ADD SWAP3 DUP4 MSTORE PUSH1 0xE0 PUSH1 0x5 PUSH1 0x3 DUP5 ADD SLOAD SWAP4 DUP5 PUSH1 0xA0 DUP6 ADD MSTORE PUSH1 0x4 DUP2 ADD SLOAD PUSH1 0xC0 DUP6 ADD MSTORE ADD SLOAD SWAP2 ADD MSTORE TIMESTAMP SUB TIMESTAMP DUP2 GT PUSH2 0x197B JUMPI PUSH1 0x2 SLOAD PUSH2 0x1A70 SWAP2 PUSH2 0x1968 JUMP JUMPDEST DUP2 MLOAD SWAP1 SWAP2 SWAP1 ISZERO PUSH2 0x1AA2 JUMPI SWAP1 PUSH1 0x64 PUSH2 0x1A98 PUSH2 0x1A9F SWAP4 PUSH2 0x1A90 PUSH1 0x3 SLOAD DUP6 PUSH2 0x1968 JUMP JUMPDEST SWAP1 MLOAD SWAP1 PUSH2 0x1968 JUMP JUMPDEST DIV SWAP1 PUSH2 0x1991 JUMP JUMPDEST SWAP1 JUMP JUMPDEST POP SWAP1 JUMP JUMPDEST POP PUSH1 0x0 SWAP1 JUMP JUMPDEST POP PUSH1 0xFF PUSH1 0x4 SLOAD AND ISZERO PUSH2 0x19C8 JUMP JUMPDEST POP DUP1 PUSH1 0x0 MSTORE PUSH1 0x5 PUSH1 0x20 MSTORE PUSH1 0xFF PUSH1 0x1 PUSH1 0x40 PUSH1 0x0 KECCAK256 ADD SLOAD PUSH1 0x8 SHR AND ISZERO PUSH2 0x19C1 JUMP JUMPDEST ISZERO PUSH2 0x1ADF JUMPI JUMP JUMPDEST PUSH1 0x40 MLOAD PUSH3 0x461BCD PUSH1 0xE5 SHL DUP2 MSTORE PUSH1 0x20 PUSH1 0x4 DUP3 ADD MSTORE PUSH1 0x1A PUSH1 0x24 DUP3 ADD MSTORE PUSH32 0x446973747269627574696F6E206973206E6F7420616374697665000000000000 PUSH1 0x44 DUP3 ADD MSTORE PUSH1 0x64 SWAP1 REVERT JUMPDEST ISZERO PUSH2 0x1B2B JUMPI JUMP JUMPDEST PUSH1 0x40 MLOAD PUSH3 0x461BCD PUSH1 0xE5 SHL DUP2 MSTORE PUSH1 0x20 PUSH1 0x4 DUP3 ADD MSTORE PUSH1 0x18 PUSH1 0x24 DUP3 ADD MSTORE PUSH32 0x557365726E616D652063616E6E6F7420626520656D7074790000000000000000 PUSH1 0x44 DUP3 ADD MSTORE PUSH1 0x64 SWAP1 REVERT JUMPDEST ISZERO PUSH2 0x1B77 JUMPI JUMP JUMPDEST PUSH1 0x40 MLOAD PUSH3 0x461BCD PUSH1 0xE5 SHL DUP2 MSTORE PUSH1 0x20 PUSH1 0x4 DUP3 ADD MSTORE PUSH1 0x16 PUSH1 0x24 DUP3 ADD MSTORE PUSH22 0x2AB9B2B93730B6B29030B63932B0B23C903A30B5B2B7 PUSH1 0x51 SHL PUSH1 0x44 DUP3 ADD MSTORE PUSH1 0x64 SWAP1 REVERT JUMPDEST PUSH1 0x8 SLOAD SWAP1 PUSH1 0x1 PUSH1 0x40 SHL DUP3 LT ISZERO PUSH2 0x173C JUMPI PUSH2 0x53C DUP3 PUSH1 0x1 PUSH2 0x1BDA SWAP5 ADD PUSH1 0x8 SSTORE PUSH1 0x8 PUSH2 0x17FC JUMP JUMPDEST JUMP JUMPDEST PUSH1 0x9 SLOAD SWAP1 PUSH1 0x1 PUSH1 0x40 SHL DUP3 LT ISZERO PUSH2 0x173C JUMPI PUSH2 0x53C DUP3 PUSH1 0x1 PUSH2 0x1BDA SWAP5 ADD PUSH1 0x9 SSTORE PUSH1 0x9 PUSH2 0x17FC JUMP JUMPDEST ISZERO PUSH2 0x1C08 JUMPI JUMP JUMPDEST PUSH1 0x40 MLOAD PUSH3 0x461BCD PUSH1 0xE5 SHL DUP2 MSTORE PUSH1 0x20 PUSH1 0x4 DUP3 ADD MSTORE PUSH1 0x13 PUSH1 0x24 DUP3 ADD MSTORE PUSH19 0x155CD95C881B9BDD081C9959DA5CDD195C9959 PUSH1 0x6A SHL PUSH1 0x44 DUP3 ADD MSTORE PUSH1 0x64 SWAP1 REVERT JUMPDEST PUSH1 0x0 SLOAD PUSH1 0x1 PUSH1 0x1 PUSH1 0xA0 SHL SUB AND CALLER SUB PUSH2 0x1C57 JUMPI JUMP JUMPDEST PUSH4 0x118CDAA7 PUSH1 0xE0 SHL PUSH1 0x0 MSTORE CALLER PUSH1 0x4 MSTORE PUSH1 0x24 PUSH1 0x0 REVERT INVALID LOG2 PUSH5 0x6970667358 0x22 SLT KECCAK256 GT SELFBALANCE STATICCALL DUP16 ADDMOD 0xB2 DUP6 0x2E SIGNEXTEND MOD 0xD2 DUP1 GASLIMIT AND SSTORE 0xE7 0xE6 0xE2 PUSH9 0xB4FFF548694DED9174 DUP16 SMOD 0xE6 0xDB PUSH5 0x736F6C6343 STOP ADDMOD SHR STOP CALLER "
        },
        "methodIdentifiers": {
          "MULTIPLIER_BASE()": "f97136af",
          "addTrustedUser(address,string)": "7ed8c35e",
          "allUsers(uint256)": "a2bdedf4",
          "baseRewardRate()": "afbf3440",
          "beerCoin()": "8cd93eef",
          "calculatePendingRewards(address)": "097aad10",
          "claimRewards()": "372500ab",
          "distributionActive()": "99fb15d2",
          "getAllTrustedUsers()": "7863e3c0",
          "getTotalTrustedUsers()": "efae2ee6",
          "getTotalUsers()": "9be572f6",
          "getUserInfo(address)": "6386c1c7",
          "isRegistered(address)": "c3c5a547",
          "isUsernameAvailable(string)": "f69c6dec",
          "kickUser(address)": "f1de3194",
          "owner()": "8da5cb5b",
          "referrerMultiplier()": "fdf8d242",
          "registerUser(string,address)": "0e54b872",
          "removeTrustedUser(address)": "af866d87",
          "renounceOwnership()": "715018a6",
          "toggleDistribution()": "1dd5a948",
          "transferOwnership(address)": "f2fde38b",
          "trustedUsers(uint256)": "37e03f64",
          "updateReferrerMultiplier(uint256)": "7f891c80",
          "updateRewardRate(uint256)": "9ef3a261",
          "usernameToAddress(string)": "f825f143",
          "users(address)": "a87430ba"
        }
      }
    }
  }
}